:020000040002F8
:10600000B87E0020DD630200E5630200E763020062
:10601000E9630200EB630200ED6302000000000090
:10602000000000000000000000000000EF6302001C
:10603000F163020000000000F3630200F563020058
:1060400071680200F7630200816D0200F7630200CD
:1060500039690200F7630200A5650200F7630200D8
:10606000F7630200F7630200F7630200F7630200C0
:10607000F7630200F7630200F7630200F7630200B0
:10608000F7630200C9680200F7630200F7630200C9
:10609000F7630200F7630200E5690200F76302009C
:1060A000F7630200F7630200F7630200F763020080
:1060B000F7630200F7630200000000000000000028
:1060C000F7630200F7630200F7630200F763020060
:1060D000F7630200F7630200F763020000000000AC
:1060E00000000000000000000000000000000000B0
:1060F00000000000000000000000000000000000A0
:10610000000000000000000000000000000000008F
:10611000000000000000000000000000000000007F
:10612000000000000000000000000000000000006F
:10613000000000000000000000000000000000005F
:10614000000000000000000000000000000000004F
:10615000000000000000000000000000000000003F
:10616000000000000000000000000000000000002F
:10617000000000000000000000000000000000001F
:10618000000000000000000000000000000000000F
:1061900000000000000000000000000000000000FF
:1061A00000000000000000000000000000000000EF
:1061B00000000000000000000000000000000000DF
:1061C00000000000000000000000000000000000CF
:1061D00000000000000000000000000000000000BF
:1061E00000000000000000000000000000000000AF
:1061F000000000000000000000000000000000009F
:10620000DFF80CD000F084F900480047319002001C
:10621000B87E002000B583B002900091019244F254
:10622000010071466A4600F0B9FE03B000BD0000EF
:1062300030B450E8012F93B2C48923448489A34227
:1062400028BF1B1B0489A34202BFBFF32F8F00206E
:1062500007E0C3EA020340E80134002CE9D14FF023
:1062600001000A6030BC704750E8012FC2EA0242C8
:1062700040E801210029F7D1704730B450E8022FDF
:106280001FFAA2F3C488A34202BFBFF32F8F0020DE
:106290000DE0C48923448489A34228BF1B1BC2EAA2
:1062A000034340E80234002CE8D14FF001000A60BB
:1062B00030BC704750E8022FC2EA224240E8022177
:1062C0000029F7D17047034653E8022FD988B2EB73
:1062D000324F4FF0000017BF92B241EA014142EA4B
:1062E000014104E05A68B2EB324F08BF012043E895
:1062F0000212002AE8D1704730B4044654E8000F77
:106300000D4644E80053002BF8D1156030BC7047AF
:1063100030B4044654E8000F40EA010544E8005355
:10632000002BF7D1156030BC704730B4044654E8F8
:10633000000F00EA010544E80053002BF7D1156077
:1063400030BC704730B4044654E8000F80EA0105C1
:1063500044E80053002BF7D1156030BC704730B4CF
:10636000044654E8000F00EB010544E80053002BFD
:10637000F7D1156030BC704730B4044654E8000FC4
:10638000A0EB010544E80053002BF7D1156030BCA9
:10639000704770B404464FF0000054E8006F0D6879
:1063A000AE4207BF44E80023012044E800630E60CA
:1063B000002B1CBF0020F0E770BC704730B40446CF
:1063C00054E8000F88422CBF451A054644E80053A4
:1063D000002BF5D1156030BC70470000064880479F
:1063E00006480047FEE7FEE7FEE7FEE7FEE7FEE7BA
:1063F000FEE7FEE7FEE7FEE7E96902000162020050
:106400002DE9F05F0546002092469B4688460646E9
:10641000814640241BE0284641464746224600F07C
:1064200067F853465A46C01A914110D31146184690
:10643000224600F016F82D1A67EB01084F46224657
:106440000120002100F00DF817EB00094E41201E3D
:10645000A4F10104DFDC484631462A464346BDE844
:10646000F09F202A04DB203A00FA02F10020704756
:106470009140C2F1200320FA03F319439040704782
:10648000004870471CC3020040EA01039B0703D089
:1064900009E008C9121F08C0042AFAD203E011F863
:1064A000013B00F8013B521EF9D27047D2B201E025
:1064B00000F8012B491EFBD270470022F6E710B509
:1064C00013460A4604461946FFF7F0FF204610BD62
:1064D000421C10F8011B0029FBD1801A70470346AB
:1064E00011F8012B00F8012B002AF9D1184670474A
:1064F000202A04DB203A21FA02F00021704721FA19
:1065000002F3D040C2F1200291400843194670477F
:10651000064C074D06E0E06840F0010394E80700F0
:1065200098471034AC42F6D3FFF76EFE98CA0200CB
:10653000B8CA020070B58C1810F8015B15F007039B
:1065400001D110F8013B2A1106D110F8012B03E00C
:1065500010F8016B01F8016B5B1EF9D12B0705D414
:106560000023521E0DD401F8013BFAE710F8013B5D
:10657000CB1A921C03E013F8015B01F8015B521E79
:10658000F9D5A142D8D3002070BD000004490822EB
:106590000A70487000208870C87001F0E1BF0000E8
:1065A000E02C00202DE9F04700268AB0DFF850915A
:1065B000B0464FF48075012437460696284603F00E
:1065C000DFFA38B1D9F80403204203D0284603F09B
:1065D000CDFA26432D1D64007F1CADB2082FEDD3EC
:1065E0004FF4BE74204603F0CBFA48B1204603F0C6
:1065F000BDFA46F0004606AA0121002003F0A2FAE7
:10660000404D16F0FF0F15D00127002437420DD062
:1066100009EB8401D1F81005D1F81015C0F304205E
:1066200055F82420C1F3014102B190477F00641C5A
:10663000082CEBD3002E5FDA4FF0FF30CDF810803E
:1066400054E0281910F8507F90F9000027F0C00896
:10665000401C3BD007A9404602F04CFF10B34FEA64
:106660009719404601F0A6FF55F820701FB1B9F107
:10667000030F03D006E0B9F1030F27D104A9404668
:1066800002F040FF4FF0A04101EB8800D0F8000776
:1066900006A9C0F3014A404602F02CFF18B1BAF136
:1066A000020F03D012E0BAF1030F0FD1B9F1030FBB
:1066B00008D1BAF1020F1DD00221404603F018FAAA
:1066C000761CF6B217B149464046B847641C042C04
:1066D000B7D3002E10D06A460121002003F032FA11
:1066E00006990098884207D0069004980026344600
:1066F0000790A6E70321E0E70AB0BDE8F0870000B5
:10670000006000404851002070B590B0D22154483C
:10671000FFF7D3FE0024524D0A2640216846FFF7BA
:10672000CCFE4F4846214638FFF7C7FE6B4629226C
:106730002721002000F0FCFA6B462D222B2101209E
:1067400000F0F6FA6B4631222F21022000F0F0FA19
:106750006B4634223321032000F0EAFA6B463622DE
:106760003521042000F0E4FA6B4638223721052059
:1067700000F0DEFA6B463A223921062000F0D8FA02
:106780006B463C223B21072000F0D2FA6B463E22AA
:106790003D21082000F0CCFA6B46512250210920FF
:1067A00000F0C6FA6B46532252210A2000F0C0FACC
:1067B0006B46552254210B2000F0BAFA6B46572243
:1067C00056210C2000F0B4FA6B46592258210D20B6
:1067D00000F0AEFA6B465B225A210E2000F0A8FAB8
:1067E0006B465D225C210F2000F0A2FA1C4968462E
:1067F000463904F005FD94FBF6F006FB1040C0EBB3
:10680000C000174900EB800005EB400046224639E6
:10681000FFF73AFE641C032CFFF67FAF10484638A2
:106820000178AA2919D14078BB2816D10C49D22267
:1068300001F21A60FFF728FE0A49D220A1F8D2001F
:10684000094803F0CBFD09490428086205D10878FE
:10685000002802D08869401C886110B070BD00001B
:106860005E2E00207834002064CB0200D82C00205B
:1068700070B54FF48076304602F08CFF114CB505B0
:1068800060B1304602F08DFF0120C5F80803607941
:1068900020B9012060712168002088474FF482767A
:1068A000304602F077FF00280AD0304602F079FF28
:1068B0000220C5F808032168BDE8704001200847A0
:1068C00070BD0000502D002002490248091F0968D0
:1068D00000680847A42D002000F058BA70B50E4695
:1068E000144900EB400001EBC0051446E86A183576
:1068F00020B101280FD0022805D113E0284600F06E
:1069000079FAA04201D2002411E0224631462846FD
:1069100000F0A8FA0BE0284600F06CFAA042F4D28E
:106920000446F2E73146284600F06FFA0446204656
:1069300070BD00002C5C0020F8B54FF040200446EC
:10694000114E4FF48C7104F034F800281AD0002551
:10695000C4F81851D4F818010090F07F3446FF288D
:1069600006D0A17F11B103F0D4F801E003F0D8F80C
:1069700065772572D4E9002101B004F10800BDE873
:10698000F0401047F8BD0000F45100201FB50F4B38
:106990000FCB8DE80F0012208DF803001C208DF81E
:1069A00002001D208DF801001E208DF80000074810
:1069B0000023074A6946103802F030FF002804D04F
:1069C00004A240F20741FFF725FC1FBDB4BF02003F
:1069D00055B702002E2E5C2E2E5C2E2E5C6D61694A
:1069E0006E2E630003F03CBFF0B5B5480023021DD6
:1069F0000178101D01254FF0805406290BD116781F
:106A0000360708D10678C6F30316032E06D0042EE7
:106A100004D0052E02D0062907D00EE0B4F8246376
:106A2000A84FC6F304263E6002E01678360704D16C
:106A30000678C6F30316032E02D0062904D00FE011
:106A4000A24FA14E7E670EE01678360708D1067871
:106A5000C6F30316032E06D0042E04D0052E02D052
:106A6000062907D00EE0D4F84462994FC6F34236A7
:106A70003E6002E01678360704D10678C6F30316A6
:106A8000032E02D0062906D011E0924E376827F077
:106A9000807737600EE01678360708D10678C6F39F
:106AA0000316032E06D0042E04D0052E02D006298C
:106AB0000AD011E04FF08046C6F80C31C6F810310C
:106AC000834E361F336002E01678360704D106780D
:106AD000C6F30316032E02D0062905D00CE07C4F26
:106AE000032664373E600AE01678360704D106783C
:106AF000C6F30316032E02D006290DD014E0764FFC
:106B000005263E60744E78363560734E0836336025
:106B10003F263F1D3E6002E01678360704D1067816
:106B2000C6F30316052E02D0062957D062E06B4E3D
:106B300036686B4F3E60694E361D36683F1D3E60BD
:106B4000664E083636683F1D3E60644E0C36366829
:106B50003F1D3E60614E103636683F1D3E605F4E01
:106B6000143636683F1D3E605C4E183636685C4F02
:106B700020373E60594E1C3636683F1D3E60574EEA
:106B8000203636683F1D3E60544E243636683F1D21
:106B90003E60524E283636683F1D3E604F4E2C36C2
:106BA00036683F1D3E604D4E303636684C4F40379C
:106BB0003E604A4E343636683F1D3E60474E38369A
:106BC00036683F1D3E60454E3C3636683F1D3E6090
:106BD000424E403636683F1D3E6002E0167836076A
:106BE00008D10678C6F30316032E06D0042E04D06F
:106BF000052E02D0062907D019E0D4F85812394AD8
:106C000001F04F01116002E0117809070FD10078FF
:106C1000C0F30310032803D0042801D0052806D1AF
:106C200031480168C90702D06FF001010160D4F852
:106C30003001062808D1D4F83401062804D12B48A5
:106C4000016841F48061016022487438016841F4B0
:106C500070010160BFF34F8FBFF36F8F4FF01021B2
:106C6000D1F80002002803DBD1F80402002822DA60
:106C70001F4A15601F480468002CFCD01524C1F879
:106C800000420568002DFCD0C1F8044201680029CB
:106C9000FCD0136001680029FCD0BFF34F8F0D4872
:106CA000F0380168144A01F4E06111430160BFF358
:106CB0004F8F00BFFDE7124910480860F0BD00008B
:106CC000E00F00F0403501400DF0ADBA00C00740C4
:106CD0003C050040FCED00E01056004004040010AC
:106CE00020C50040E40E0040000400403C17004076
:106CF00004E5014000E401400400FA050090D003DF
:106D0000142E002070B54FF0A0444FF48025C4F835
:106D10000C550649802204F5A1640A704870FF20D2
:106D20008870C87001F01CFC256070BDE02C00204C
:106D30002DE9F0411C4616460F460546FFF726FC96
:106D40003846FFF7DFFF3046FFF7DCFF0B4854F80B
:106D50002510027841EA026144F82510427841EAA0
:106D6000024144F82510827841EA022144F82510B6
:106D7000C078014344F82510BDE8F081E82C0020DC
:106D80000148006800470000582D002010B5124C43
:106D900002202061606111A0A06104F17800E0612F
:106DA0004FF4007020620020A06260620BA1A16419
:106DB000E06204F51E71E1641021A065C4E91410BD
:106DC000E06509A1E01DFFF78AFB08A12046FFF757
:106DD00086FB2020A07110BD2C5C00205465726DD4
:106DE000696E616C000000005254540053454747DF
:106DF000455200000269C1688A4203D88068401A7F
:106E0000104400E0501A401E70472DE9F047C46856
:106E10001746894606464FF000083069A04201D95E
:106E2000051B02E0B168201A0D1AB0686D1E001B28
:106E3000A84200D80546BD4200D33D4670682A46A8
:106E400020444946FFF720FBB0687F1B2C44A84430
:106E5000A944A04200D10024F460002FDDD14046B7
:106E6000BDE8F0872DE9F04104468846D4E90207E1
:106E7000C51BE168606816460844B54206D941461C
:106E8000FFF702FBB819E060BDE8F0812A464146F1
:106E9000FFF7FAFA761B08EB050132466068FFF748
:106EA000F3FAE660F0E702E008C8121F08C1002A02
:106EB000FAD170477047002001E001C1121F002A7B
:106EC000FBD170470121202803DA814005480140A9
:106ED00003E0402802DA2038814009B101207047E0
:106EE00000207047FC06FFBD90F82400012801D067
:106EF0001F207047EE20704710B5012202210020AC
:106F000001F0AEF908B1072810D1072202210120B3
:106F100001F0A6F908B1072808D100210A22084685
:106F200001F09EF908B1072800D1002010BD000033
:106F300000B5ABB0AC216846FFF7BFFA02208DF870
:106F4000000000208DF8020005208DF803000120CC
:106F5000ADF84C008DF87C000C4940201491229033
:106F600044F2506023900A4829906946094800F08D
:106F7000EFFA20B1084A40F25121FFF74BF9012105
:106F8000044800F0E2FA2BB000BD0000E42C002021
:106F900051AF02004430002018B90200FEB515467A
:106FA0000E46074672B603F08DF800BF02F0B8FE39
:106FB0000028FBD12249234A0120891AC90800EB85
:106FC0000144012F23D06FF48050381822D0B0F53F
:106FD000405F24D06FF44051C84206D12B88204630
:106FE00019A16A6802F0C1FF04E0204632461DA1E3
:106FF00002F0B4FF21480068C00700D000BE2A4656
:1070000003B031463846BDE8F04000F079B820467C
:107010001BA101E0204622A102F09CFFEAE7A8683C
:1070200003F0E8FC0346D5E90001CDE90010029623
:10703000204624A1AA6802F0A0FF20462BA1EBE77E
:1070400030CB0200C8CA0200415353455254494F45
:107050004E204641494C45442061742025733A2511
:1070600075000000554E4B4E4F574E204641554C33
:10707000542061742030782530385800F0ED00E05D
:10708000534F46544445564943453A20415353458E
:107090005254494F4E204641494C4544000000009F
:1070A000534F46544445564943453A20494E56416C
:1070B0004C4944204D454D4F52592041434345537F
:1070C000530000004552524F52202575205B257316
:1070D0005D2061742025733A25750D0A50432061A7
:1070E000743A20307825303878000000456E6420EE
:1070F0006F66206572726F72207265706F727400B5
:1071000008B501238DF800309DF80030144B18604D
:1071100059609A606FF48041401807D001280FD160
:10712000DA60D86800889861D86807E01A61186941
:107130008068586118690068986118694068D8616A
:10714000186858689868D868186958699869D8693B
:1071500072B600BF9DF800000028FBD162B608BDE2
:107160003052002010B58268C368934203D001F00A
:107170007EFD002010BD052010BD10B58268C368DB
:107180009A1A83889A4203D801F07BFD002010BD33
:10719000042010BD014801F05CBC0000682D0020F7
:1071A0003AB100680129426100D00021016100204C
:1071B000704707207047000038B51148082358224F
:1071C000416800910F49006802F0BBF8002815D112
:1071D0000D4A69460D4801F041FC04000ED1012121
:1071E0000A4801F0B2FC0123094A1946074801F098
:1071F00008FC0649012008390870204638BD000007
:1072000038C002006052002055B30200682D0020F3
:10721000FFFF7F0070B50446007F0D4608B10020D7
:1072200070BDA26101F0D8FD401941F10001C4E92F
:107230000201206900B125612146BDE870400020AF
:1072400004F002BC014600200877012004F0FCBBDA
:1072500010B501461048FFF790FF040019D10F4800
:107260000F4A0178515C19B1001D03F0F3FD02E0F3
:107270000C3003F089FD60B9084907480839FFF769
:1072800071FF30B9054901220839044802F0FEFABD
:107290000446204610BD0000C85200208C2D00205E
:1072A000442D002030B5EFF3108172B60D4A94687A
:1072B000012324B10370002900D162B630BD936070
:1072C0004FF0E023D3F88051074C25401560C3F8F8
:1072D0008041D3F8844154605A17C3F884210022B6
:1072E0000270E8E7D8520020FC06FFBD0B498A680F
:1072F000002A11D000280FD1EFF3108072B60B686E
:107300004FF0E022C2F800314B68C2F8043100228D
:107310008A60002800D162B670470000D852002071
:1073200070B51500044609D00020286034B12068EB
:1073300020B1A079800703D0072070BD0E2070BD5A
:10734000084600F003FBC0B2142804D02179814222
:1073500003D8042070BD052070BDE288216800FBC1
:1073600002102860002070BD2DE9FC470025178819
:107370000646158090F82D001446894630B13A46ED
:107380002146484600F060FB051E09D1B0784FF059
:107390000C0A18B32088C846001DB84202D95046CE
:1073A000BDE8FC87684679DF0028F9D120880321F1
:1073B00008F8001020881921401C80B2208008F8AD
:1073C00000102088401C80B2208000EB0801BDF82E
:1073D000000004F0ABFC218808442080F0780222F1
:1073E000C8B1218896F9033001F1030C4846BC4529
:1073F000D5D8425421884FF0010C491C89B2218014
:1074000000F801C02188491C89B2218009F80130A7
:107410002088401C20807068B8B1218890F9003025
:1074200001F1030C4846BC45B9D8425421880A22D0
:10743000491C89B2218042542188491C89B221808B
:1074400009F801302088401C2080308950B1CDE9F6
:1074500000474B460622022106F1080004F018FD01
:10746000051E9DD1308A50B1CDE900474B46072219
:10747000032106F1100004F00BFD051E90D1308BA6
:1074800050B1CDE900474B461522142106F11800F2
:1074900004F0FEFC051E83D1306A30B13B46224623
:1074A000494601F0A4F9051EDBD1706A30B13B46B4
:1074B0002246494601F068FE051ED2D196F82C00FE
:1074C00038B13B4622464946304604F063F8051E73
:1074D000C7D1307838B13B4622464946304601F0A4
:1074E000DDFE051EBDD128465AE718B5044600202A
:1074F000ADF8000013466A46204600F006F8002862
:1075000002D0BDF80000204418BD70B5C8B1C2B1AA
:107510000024158803E0065D641C3444A4B2A5422F
:1075200003D8061976789E4201D08C42F3D38C4260
:1075300007D2005DA31C401E9BB280B21C188C4277
:1075400001D9002070BD138070BD80F830107047E5
:107550002DE9F0410D00044606D02CB195F87A00D3
:107560000026012803D006E00E20BDE8F08195F842
:107570009800012829D0D5F8A000042825D0D5F8F6
:107580009C00042821D04FF00108A6702C2205F1A0
:107590007801201DFEF778FF84F83060D5F8A4004C
:1075A0006063D5F8A800A0634FF6FF70A4F8240428
:1075B00004F58260C4F82004C4F82664A4F82A64A0
:1075C00084F82C64207810B104E00720CDE7FF2078
:1075D00084F8540004F155072046C4F81074FFF7EE
:1075E00083FCA4F8140404F2144239462846FFF739
:1075F000BBFE0028B9D104F23120C4F8180420469B
:10760000FFF772FCA4F81C0404F21C4205F13C00D4
:10761000D4F81814FFF7A8FE0028A6D184F85180EA
:10762000208BA4F8480084F83C80266484F85060DD
:10763000606900216064454604F13C02781E72DFF7
:10764000002892D1257090E710B50288102A1BD02F
:10765000112A20D0262A1DD1007A0C46012801D0FB
:10766000022817D1A0780521401CB0FBF1F201FBE4
:107670001201204600F01DF800280BD0A16B002954
:1076800008D0BDE810400847C27B012A02D180889B
:10769000A1F8240410BD0C46002184F82E14808823
:1076A000B4F824148842F5D120790028F2D10121C0
:1076B000DFE72DE9F05F044600780F4698B1A77028
:1076C0000025C4F82654A4F82A5484F82C54A07930
:1076D000012608B1012F09D0E07980B1012F05D032
:1076E000022F03D00BE00820BDE8F09F616B21B1B1
:1076F00084F82D640820884701E084F82D5404F2B2
:10770000274100200A5C0AB1304603E0401C0628ED
:10771000F8D300204FF002084FF0030B012F06D0E2
:10772000022F0CD0032F0FD0042F15D110E0A17918
:1077300029B194F8241011B908B130460DE0E1796F
:1077400011B108B1404608E0207A08B1584604E07B
:10775000607A08B1042000E02846A070616B41B156
:10776000032801D0042804D1607910B194F82E04C4
:1077700098B184F82F5404F13C0018210746FEF715
:107780009CFE84F83C6004F12C0003F054FD58B1D9
:1077900094F82C0084F8510008E084F8305484F800
:1077A0002F6407208847E6E784F8516094F82400A6
:1077B00058B104F1280003F03EFD20B194F82800F0
:1077C00084F8520001E084F8526084F85050A278A6
:1077D00004F2264104F582694FF0060A052A64D2B4
:1077E000DFE802F07C030F22420084F83160C4F825
:1077F0002054C4E9101584F83C808020A4F8480087
:1078000055E084F8318094F82420384612B10722DC
:10781000027001E080F800B0228A8281C4F820540E
:107820004160E168B96042E06069B860208BB8816E
:1078300094F824003D460028204602D084F83CA05D
:1078400001E084F83C6004F005FB50B185F8148039
:107850000421204601F023FA38BB052184F83110B9
:1078600021E084F831B01EE0E069B860208CB88176
:1078700094F824003D460028204602D084F83CA01D
:1078800001E084F83C6004F0E5FA48B185F8148022
:107890000421204601F003FA38B984F831A002E04F
:1078A000042084F83100C4F82094A07878B13A46D6
:1078B00004F15400D4F8201472DF00287FF414AFD0
:1078C00094F8301094F8540073DF0028F6D1616BFF
:1078D00011B194F831008847002005E784F8315051
:1078E000F5E7000070B5040012D001461C221448D0
:1078F000FEF7CAFD1248134D0560206850B17ADFCB
:10790000002806D12068016829604068686005E0A9
:107910000E2070BD0B487BDF0028FAD108484FF6D7
:10792000FF711438084A20F8041B054934390160F6
:107930000021FFF735FC0028EBD0032070BD0000CC
:107940009C5000203C2D0020EDBD020010B50446E7
:1079500000F006F808B1204610BD142010BD00004C
:10796000142801D3002070470146014801F033BDBF
:10797000BC500020F8B52D4C0026ADF800602078F2
:1079800000284AD0A0782A4DE8B1B5F8D200ADF869
:107990000000A3886A46294604F1240000F090FA0A
:1079A00013283AD008280ED005280CD028B121A2DF
:1079B00040F28E21FEF72EFC05E0BDF80010606954
:1079C00008446061A67005F1D2071E4802F0E7FC8A
:1079D000002822D1A07800281FD10022144919487C
:1079E00002F096FC002818D1B5F8D200ADF80000DE
:1079F0000E48A3883A460E49243000F061FA082860
:107A000009D0132807D0052805D038B109A240F2C3
:107A1000A721FEF7FFFB0120A070F8BDBDF8001004
:107A2000606908446061A670CFE70000D82C002090
:107A30004C3500202E2E5C2E2E5C2E2E5C6D616946
:107A40006E2E630064CB02007CB5054608880C46A8
:107A50000930904201D90C207CBD68466DDF0028BA
:107A6000FAD121880820685420881B21401C80B24C
:107A7000208029542088401C80B220802844DDF8D2
:107A800001100160BDF8051081802088801D80B242
:107A900020809DF80010490800D001212954208839
:107AA000401C208000207CBD7CB50188434E444DA5
:107AB0000446212960D01ADC4248434A1029A0EB31
:107AC00002004FEAD0004FF0030202EB00401DD04D
:107AD00011293DD013294ED100231A468521A888AB
:107AE0007FDF002847D039A240F27D114EE03B29CC
:107AF0005AD052294DD056293DD18088132176DFA6
:107B0000002838D031A240F291113FE033A102F0B9
:107B100021FA072000F0C6FB20B12CA24FF4AB7174
:107B2000FEF778FBA188A9802F4801F0BBFD20B1AA
:107B300026A240F25911FEF76DFB30680090A08834
:107B400069468FDF002816D020A240F261111DE0A7
:107B500000242C7025A102F0FDF94FF6FF70A880DB
:107B6000B068FFF76FFB20B118A240F26911FEF771
:107B700051FB6C61EC617CBD70680190A08801A92B
:107B80008FDF0028F7D011A240F27711FEF742FBF9
:107B90007CBD00231A461946A888B1DF0028F7D01B
:107BA0000AA240F28311F1E78088132176DF0028D2
:107BB000EED006A24FF4C571E8E7000098BF0200BE
:107BC000D82C002030CB0200C8CA02002E2E5C2E1A
:107BD0002E5C2E2E5C6D61696E2E6300436F6E6E9F
:107BE0006563746564000000383000204469736385
:107BF0006F6E6E65637465640000000010B51A4C0A
:107C00000188606810290ED011292BD1401E6060B8
:107C100028D1FFF771F9002824D02168002921D04C
:107C2000BDE810400847D0B900210122084600F005
:107C300017FB08B107280FD107220221012000F00D
:107C40000FFB08B1072807D104220221002000F011
:107C500007FB20B1072802D0216801B1884760687E
:107C6000401C606010BD0000342D00202DE9F0475D
:107C700001883B4E40F2F3194FF6FF7510291BD0D7
:107C800011293ED0122954D0502946D1C188F289F9
:107C9000841D914241D1618902293ED186883046B6
:107CA00001F0BAF8050038D004F10C0000F0DEF95C
:107CB000A8B3294630464EE0C17B87880446012997
:107CC0002BD1A846284601F0A7F8050017D02F8031
:107CD00000202872234843464A460168C5F80A1026
:107CE0004068C5F80E0004F1100105F10A0001F02A
:107CF0000AF96872F08900280FD129462AE0042089
:107D000013E0808801F088F8040006D06068FFF76F
:107D100099FA08B103F00EFC2580BDE8F087FFE773
:107D20006868FFF78FFA0028F7D0BDE8F04703F046
:107D300001BC87880646384601F06EF80400ECD096
:107D40002B464A4606F1080104F10A0001F0DBF86F
:107D5000607221463846BDE8F04700F09BBD000048
:107D60009C5000203C2D00202DE9F04F04468688D1
:107D70000188434897B0834610290CD0112952D06E
:107D8000103019296CD01A2976D1217A0C09042CCB
:107D90004FD301224EE03A4D083DA868C0430B90F6
:107DA00069680BA801F038FB0B990CA800F000FDE6
:107DB0002C220CA96846FEF767FB0027E946A84677
:107DC00010E000BF09EB47005FF00005B0F804A029
:107DD00008EB85005146001D01F0F2FA6D1C1E2DC6
:107DE000F6D37F1C0098B842ECD8142E07D317B0F6
:107DF000F021BDE8F04F23A20420FEF70BBA314674
:107E0000584601F0F3FA314608F1040001F0EEFAA9
:107E1000E07B012830D017B03146BDE8F04F18485C
:107E2000001D01F0E3BA17B03146BDE8F04F01F094
:107E3000C7BA0022314600F02DFF032C01D30122E6
:107E400000E000220E4831460C3000F023FF022CE7
:107E500001D3012200E0002209483146083006E043
:107E6000217A002908D1617AC1F3C002314617B0E6
:107E7000BDE8F04F00F00EBF17B0BDE8F08F000076
:107E8000C05000202E2E5C2E2E5C2E2E5C2E2E5CE2
:107E90002E2E5C2E2E5C636F6D706F6E656E74732C
:107EA0005C626C655C636F6D6D6F6E5C626C655F70
:107EB000636F6E6E5F73746174652E630000000003
:107EC000F0B585B016460F4604001D4614D004AA2E
:107ED00019466069FFF724FA00280BD1A5F57F4009
:107EE000FF380BD0049848B1007848B13088F428A6
:107EF00008D9072005B0F0BD0E20FBE70520F9E703
:107F00000820F7E700200090019002900390A088DD
:107F1000ADF8000001208DF80200CDE90267694646
:107F20002846AEDFE6E7000070B5334D04008EB0A2
:107F30002DCD08AE86E82D005BD0E9B30868A061BE
:107F4000214608A862DF002851D1207801258DF84C
:107F50003200ADF83050A21C0CA92846A8DF00283A
:107F600045D120216846FEF7A8FA0220ADF80000AE
:107F700020788DF802008DF80C509DF80D00F42645
:107F8000ADF8046040F00C008DF81150ADF80650CB
:107F90008DF80D008DF81250608804F10C026946CE
:107FA00000F010FB002822D120216846FEF785FA58
:107FB0000320ADF8000000E01BE020788DF80200FF
:107FC0008DF80C509DF80D008DF81150ADF804603F
:107FD00040F010008DF81250ADF806508DF80D00ED
:107FE0008DF813506088221D694600F0EBFA0EB040
:107FF00070BD0E20FBE7000010C0020070B588B015
:108000000446002924D0002C22D0084621881029BB
:1080100020D0502924D057291AD10546A18840697B
:1080200006AAFFF77DF9002812D1069E30780028B5
:108030000ED018216846FEF740FA01208DF80000A6
:108040000195A088ADF808000396A969684688479D
:1080500008B070BD08B02146BDE8704002F0AEBF68
:1080600008B02146BDE8704003F088B8007800F001
:10807000010070471FB502F0B9FB20B11A4A4FF456
:10808000D271FEF7C7F8002469460120009402F07F
:1080900029FA20B1144A4FF4D571FEF7BBF80194C8
:1080A0000294039401248DF8044002208DF8060008
:1080B00001A92220009A69DF58B102F09BFC024618
:1080C0000A480B49401AC00804EB0040094901F076
:1080D00045FF684602F09EFA002804D0024A40F2AA
:1080E000BB11FEF797F81FBD18B9020030CB020094
:1080F000C8CA020020C302000149085C70470000A2
:10810000C8BF020007490B5C4FF0A041D1F804251D
:108110000120984020EA0203C1F808351040C1F858
:108120000C057047C4BF02000249085C012101F040
:10813000FEBC0000C4BF02000249085C002101F03F
:10814000F6BC0000C4BF02000649095C4FF0A04025
:10815000D0F80405C84010F0010000D0012080F0E4
:1081600001007047C4BF020010B500242046FFF78D
:10817000DBFF641C042CF9D310BD10B5002420468D
:10818000FFF7DAFF641C042CF9D310BD10B50246CA
:10819000064B4FF0FF3000215C5C944201D1084651
:1081A00010BD491C0429F7D310BD0000C8BF020050
:1081B00010B5002000F066F908B1062806D10120AC
:1081C00000F060F908B1062800D1002010BD0000C1
:1081D0002DE9F0470D468146FFF7D8FF04460428F5
:1081E00036D2DFF874801B481C4EA8F10C0725B36B
:1081F000012D0ED0022D2BD104EB440030444578E4
:10820000002D25D0B968002922D02846BDE8F047C6
:10821000084704EB4401755C0E44717849B10E4A7D
:108220004FF48041093A8068FEF7F4FF08B987F8F7
:108230000390B17808F80410E2E78068FFF702F8CD
:1082400004EB4401314418F804008D78A842D7D0DB
:10825000BDE8F087CCBF0200302D00203850002050
:1082600070B50023042810D20D4D00EB4004012A04
:1082700002D101290CD00022094E00EB400030440D
:1082800061B1012906D0022906D00723184670BD26
:108290000E30C2B22A55F9E74270F7E78270F5E76F
:1082A00038500020044A014600201279D20702D03B
:1082B000084600F003B87047242D00202DE9F05F38
:1082C0006E4C054600266078B34618B184F801B0BC
:1082D00000F03CFE6A4F4FF47A694FF4C87A4FF0D1
:1082E0000108182D69D2DFE805F00C131338475444
:1082F000696E727B727BC58484848484B3B6B9BC96
:10830000C5C500F023FE3868FEF79CFF06465CE01A
:108310000020FFF719FF00284FF0000008D0FFF7FA
:1083200003FF022D02D14FF4E16008E0484606E069
:10833000FFF702FF022D01D1C82000E05046410C9A
:10834000C0034FF47A72801841F100012570520089
:108350000023FEF755F801462AE00020FFF7F4FE5F
:1083600000284FF0000004D0FFF7DEFE4FF4487005
:10837000E5E7FFF7E1FEDFE70020FFF7E5FE002875
:108380004FF0000002D0FFF7CFFECFE7FFF7D4FE9B
:10839000D4E70020FFF7D8FE00284FF0000002D0FD
:1083A000FFF7C2FE01E0FFF7C7FE257040F6CD41A2
:1083B00000223868FEF72EFF064646E00020FFF751
:1083C000A1FE257008E0002051E025703DE084F812
:1083D00001800120FFF796FE002240F26661E8E787
:1083E00084F801800120FFF78DFE00224FF4005138
:1083F000DFE77868FEF726FF0646D5F1110000D0CA
:108400002EB10220FFF790FE84F802B01DE0012893
:1084100016D980B2C8214843C117C90341EA504167
:10842000C0034FF47A72801841F10001520000231A
:10843000FDF7E6FF014600227868FEF7EBFE0646F0
:108440000220FFF779FE84F802803046BDE8F09FF5
:1084500000F07CFDB9E700F079FDB4E700F076FDAF
:1084600004E000F073FD0020FFF766FE0120FFF737
:1084700063FEAAE7FFF781FEA7E70000242D002096
:10848000CCBF0200012103F06ABD00002DE9F843D2
:108490000546C61C00208DF8000090460F464FF0A0
:1084A00001096846FEF7FEFE1B4C20683860D4E9DF
:1084B0000001401AA16804F21C47081A0EE00121CD
:1084C000384600F0A3FF00F065FD0146384600F095
:1084D0009DFFD4E90001401AA168081A401C864299
:1084E000EDD8B8F1000F03D0052065F3891002E044
:1084F000062065F39F50A2682168114004EB8101BA
:10850000C8602068304420609DF80000FEF7EEFE51
:108510004846BDE8F88300000858002070B50D46B5
:1085200004460A2902D10D21FFF7F8FFA06822684E
:10853000411CA1601554D4E90101814204D32046B5
:10854000BDE8704001F0BFB970BD0000034803C82A
:10855000814201D101207047002070470858002057
:108560007FB50E4C0020E07004F10801042201F1F7
:10857000080315468DE82E0009480022694602F0DE
:108580007DFB30B107A240F2C221FDF743FE00E0BF
:1085900020BFE0780028FBD07FBD0000D82C002051
:1085A000A8BF02002E2E5C2E2E5C2E2E5C6D616903
:1085B0006E2E63000249084490F9300070470000B5
:1085C000485100202DE9F0438146887891B09046CB
:1085D0000C4600B901208DF83E002088ADF83C0023
:1085E00000250095607C694603F018F86E46A07C73
:1085F000711C03F013F8E07B00289DF8020002D004
:1086000040F0080001E020F008008DF80200217C15
:1086100011B140F0100001E020F010008DF80200D0
:10862000217B11B140F0010001E020F001008DF844
:108630000200217D09B1022100E0012161F3420025
:108640008DF802001C2102A8FDF737FF607BC106F0
:1086500001D4800617D50E950EAFE07C791C02F090
:10866000DDFF9DF83800079720F00F00401C20F038
:10867000F00010308DF838009DF83A0020F0060028
:10868000801C8DF83A00607B8DF80800A07B8DF887
:108690000900142109A8FDF710FF0FA8CDE909066C
:1086A000A088ADF83000A06820B1E088ADF82C00BB
:1086B000A0680D90A06998B301950088ADF81000EE
:1086C000A06901AD01A94088ADF81200A069406819
:1086D00006950390A069007B02F0A0FFA069691CC9
:1086E000407B02F09BFFA069807A00289DF806007D
:1086F00002D040F0080001E020F008008DF80600EC
:10870000A169C97A11B140F0100001E020F0100019
:108710008DF80600A169097A19B140F0010002E064
:108720000DE020F001008DF80600A169897B09B1F8
:10873000022100E0012161F342008DF80600E069AA
:1087400000B10590434609AA02A94846AADF11B024
:10875000BDE8F08370B5084C050009D010342168DD
:10876000002907D008682060496828468847F6E74E
:108770000834F4E770BD000034510020054A01219F
:1087800020B1012805D19170FFF7E4BF517000209E
:10879000FAE770473451002010B5D0E90234D1E92E
:1087A0000220D11AA04101D3012010BD002010BD2C
:1087B00073B58CB00646002000900D9880B100245F
:1087C0006D4621460DA800F006FE30B1009805EB7D
:1087D000400084800098401C0090641C142CF0D34E
:1087E0002C2269463046FDF74FFE0EB070BD2DE9D4
:1087F000F04117880646B81D14460D46984202D926
:108800000C20BDE8F0813188072206290AD34FF4F5
:10881000486C4FF6FF73614501D9994202D17088C7
:10882000062801D21046ECE7604501D99842F9D1FB
:10883000994203D0984201D08142F3D80520E855EF
:1088400020881221401C80B2208029542088401C9E
:1088500080B220804119308803F068FA21880844EA
:1088600080B220804119708803F060FA21880844A2
:1088700020800020C5E7000002A24FF48471FDF7BC
:10888000C9BC00002E2E5C2E2E5C2E2E5C6D616904
:108890006E2E630038B54A7A0F4B62B100220A721D
:1088A0005969002906D001228DF80020ADF8020098
:1088B0006846884738BD0A7A62B19B684C680246B0
:1088C00019462046FEF7A6FC0028F3D0BDE8384044
:1088D00002F030BE5B68F1E79C50002070B50546A1
:1088E0004FF6FF7000224AF201040BE0AB5C5840E7
:1088F0000023C6074FEA500000D060405B1C082BE5
:10890000F7D3521C8A42F1D370BD000070B588B015
:108910000646002005900690ADF81410ADF816102C
:108920000190029001AA05A9304690DF050021D0F0
:1089300002F060F80346114811493246401AC10856
:10894000012000EB014004460E4901F00EFBBDF88A
:10895000042012B9BDF8060028B1BDF80630204643
:1089600009A101F002FBBDF808201AB12046164902
:1089700001F0F4FA08B0284670BD0000C8CA020031
:10898000C8CA020068C30200546865207265717528
:1089900065737465642054582F5258207061636B5E
:1089A0006574206C656E67746820697320746F6FDE
:1089B000206C6F6E672062792025752F2575206FDA
:1089C00063746574732E0000B4C3020010B50021F7
:1089D000024800F02CFD80F3100010BD245C002044
:1089E0004FF480328A400168C1F848230068C0F81B
:1089F000082370474FF4A07202EB810189B200F0A6
:108A00002CB92DE9F04105460E464FF4A07000EB5D
:108A1000860081B228684FF48034B440984622F032
:108A20007F47C0F808432868C0F84843286801F029
:108A300049FD286800EB8600C0F840752868C0F83A
:108A40004443B8F1000F02D02868C0F80443BDE8E1
:108A5000F0810068D0F804057047000070B54379D4
:108A6000224C44F823204279241D04EBC202204BFF
:108A70001579204A9A1AD3082DB10824022000EB58
:108A800003401DA12EE002680D88C2F8085590F938
:108A900004208978002A4FEA411106DA02F00F0219
:108AA00002F1E02282F8141D03E002F1E02282F8D4
:108AB000001490F90410012201F01F0502FA05F5D7
:108AC0004909890001F1E021C1F80051417904EB25
:108AD000C1010A71417944F831000320002400EB00
:108AE00003400EA101F036FA204670BDA02D0020F3
:108AF00018CB0200C8CA020052544320696E737436
:108B0000616E636520616C726561647920696E696C
:108B10007469616C697A65642E0000005254433AAE
:108B200020696E697469616C697A65642E00000061
:108B300090F90400012100F01F02914040098000DB
:108B400000F1E020C0F8001270470A46022100F050
:108B50007BB84FF4827100F080B800680121016099
:108B6000704700680121416070472DE9F05F0746BA
:108B70000C464FF4A07000EB84001FFA80FA3868AE
:108B80004FF48036A6409B4622F07F45C0F84863EC
:108B90003868C0F808633868D0F8048500EB8402B0
:108BA000D2F84095C2F840855146386801F08AFCF9
:108BB000A9EB080020F07F40012806D1102001F029
:108BC0006DFF5146386801F07DFC3868D0F80485A7
:108BD000C0F84463A5EB080121F07F413868012902
:108BE00000EB840010D0C0F840553868D0F8041568
:108BF0006FF07F4C6A1A521E22F07F42ACEB0B03DF
:108C0000934217D362B118E06D1CC0F84055102094
:108C100001F044FF3868D0F8040540450AD10CE063
:108C200000EB84006D1CC0F840553868D0F804058E
:108C3000884202D00D20BDE8F09F0122314638461F
:108C400000F002F80020F6E70368C3F84413002A96
:108C500002D00068C0F80413704710B5006842588D
:108C60001AB101F02FFC012010BD002010BD826858
:108C700083881A4003689A5C0A708168491C816085
:108C80007047C26883881A4003689954C168491CB8
:108C9000C16070470AB100F0A9BB00F091BB70B58C
:108CA0000D460446B0F81414D0F810040122FEF763
:108CB0001CFC00B1057004F13C0204F5826104F172
:108CC000540072DF70BD00000EB515A19DF80800BC
:108CD00020F00F00401C20F0F00010308DF808004C
:108CE0000B2202A87CDF18B1104A8D21FDF792FA01
:108CF0000020009001900821ADF80400ADF80010AC
:108D00004FF4C8701021ADF80600ADF802106846A7
:108D10007ADF002803D0054A9721FDF77BFA0EBDC4
:108D20004E6F726469635F554152540018B9020076
:108D30000C484A8883889A4213D10A88A2F5206396
:108D4000773B0ED18988C91E8AB2C280064807497E
:108D50001346401AC008032101EB004004A101F0B2
:108D600004B97047D82C002030CB0200C8CA0200DA
:108D700044617461206C656E206973207365742092
:108D8000746F2030782558282564290010B50C49C7
:108D90000C4800F0CDFB20B10BA24FF4EB71FDF7B6
:108DA00039FAF721074800F0B7FB002806D0BDE8E4
:108DB000104005A240F2D911FDF72CBA10BD0000F9
:108DC000318D0200243000202E2E5C2E2E5C2E2EA3
:108DD0005C6D61696E2E630010B50B48FFF739FEBC
:108DE000094A083AD2E90434C018D2E9063244F1FB
:108DF0000001C31A71EB020204D24FF08072801896
:108E000041F1000110BD0000682D002001480068FC
:108E100070470000041501400146034802888A4259
:108E200000D0002070470000885000202DE9FC5F32
:108E30000E008346DDE90C47C6F1000098469246D5
:108E4000814600D40846012503E000BF90FBFAF0FC
:108E50006D1C5045FADAA84500D9454624B1002ECC
:108E600001DB780700D5641EB80702D5B8F1000F02
:108E70000AD0F80708D13CB1A54205D220215846B6
:108E8000641EFFF74BFBF6E7002E02DA4E462D215B
:108E900002E0780703D52B215846FFF73FFB07F088
:108EA000030002280BD1B8F1000F08D13CB1A54254
:108EB00005D230215846641EFFF730FBF6E7CDE9B6
:108EC0000047434652463146584602F035FFBDE85A
:108ED000FC9F024600201268530713D502F00300DE
:108EE000012802D002280CD105E0C2F383100B68E0
:108EF000C01C184404E00323086803EB925210449A
:108F0000086001207047F0B58488A518944200D805
:108F10002246A41AC288D6189A4200D81346D21AFA
:108F20004B880788BB420CD34088834209D8888885
:108F3000A04206D3A84204D8C888904201D3B042C8
:108F400001D90020F0BD0120F0BD00000A4810B595
:108F5000807860B1002401E0022C06D02046FFF7A3
:108F6000E3F8641C042CF7D310BD0324F6E7BDE836
:108F70001040FFF7F9B80000242D0020F7210180F0
:108F800017214180002101714171FB2181711B2159
:108F9000C17170472DE9FF410026234800F033FAE4
:108FA0002148001F074600F02EFA204C6068009010
:108FB000A56800E000986946284004EB80000C306A
:108FC000FFF787FF0028F5D101AA009901EA050300
:108FD00004EB8303491CDB6842F82030401C0091FD
:108FE0000328F2D3019800F0030001280BD00228D7
:108FF00010D10198032101EB90500099BDF80A604F
:1090000001EB900005E00198BDF80A60C0F3831001
:1090100008440090384600F0F3F908B10098606009
:1090200004B03046BDE8F081205C002008580020E4
:1090300088B0FDF7ABFC4FF480413E4801F004F8E6
:1090400020B13D4A40F25E21FDF7E4F800F05AFEFF
:1090500002F05CFDFEF7B0F818B1374A7A21FDF74F
:10906000D9F801F01FF920B1334A40F26721FDF72A
:10907000D1F8FEF7FFFFFFF727FEFFF787FE2F4827
:109080000190002401A92E4800F017FB18B12A4ACC
:10909000EB21FDF7BFF82B48009069462A48FEF700
:1090A00043FF18B1244AF321FDF7B4F8FDF740FF60
:1090B0001C216846FDF701FA4FF4A030CDE90040CD
:1090C0004FF4F020029021480590032520488DF8A8
:1090D0000C500690ADF80E408DF810406846FEF733
:1090E00001FC20B1144A40F21F11FDF793F8194812
:1090F0001949401AC00805EB004018A100F02AFFEA
:109100000F4803210C30FEF7D4FA20B10A4A40F28E
:109110007721FDF77FF802F0EBFB00BFFDF7F4FAD3
:10912000FEF728FC00F0FCFD0028F7D101F0CEF896
:10913000F4E700000D8E020018B9020091A40200AD
:109140003830002071AE0200FC2C00208DAF0200F0
:109150007988020030CB0200C8CA020044656275FB
:1091600067206C6F6767696E6720666F7220554174
:109170005254206F76657220525454207374617279
:109180007465642E0000000070B5144682880E4697
:1091900005462088111D0144921C994201D8FE2ADF
:1091A00001D90C2070BD521C32542088FF21401C74
:1091B00080B2208031542088401C80B220808119E8
:1091C000288802F0B3FD2188084480B22080AA8854
:1091D00042B1A96841B13044FDF756F92088A98809
:1091E00008442080002070BD072070BD2DE9F047A5
:1091F000C5881E1DB6FBF5F78946B6FBF5F104469A
:1092000005FB176C407916686843DDF820A0F71855
:10921000001F874200D9C61A166001E02468491E63
:109220000029FBD1A5EB0C078846B74216D818E0F9
:1092300004EB0C00001D09EB0803BAF1000F3A46DD
:1092400002D00146184600E01946FDF71DF92468D2
:10925000F61B4FF0000CB844B54201D9374600E088
:109260002F46002EE4D1BDE8F087000030B502465D
:1092700051B100F00FFF0021074C08E034F8213015
:109280001568AB4202D11160002030BD491C8142FB
:10929000F4D3052030BD000000000000F8B50F46F3
:1092A000017814460546012901D1687830B120883B
:1092B000821C9A4232D8012902D006E00720F8BD6C
:1092C00069780144891C994228D8181A801E86B2F0
:1092D000ADF800602188B81C084469467DDF00288D
:1092E000EDD12978022904D06878BDF80020904299
:1092F00005D3BDF80000B04201D809200AE00820DB
:10930000012905D16978B14202D8ADF8001001E019
:10931000ADF80060BDF80010FE2901D90C20F8BDA1
:109320002288491CB9542188491C89B2218078546B
:109330002088401C2080BDF80010084420800020B8
:10934000F8BD10B531B1B2FBF3F403FB14241CB12A
:10935000092010BD0E2010BD016000214160816018
:109360008281C381084610BD70B50C460546FCF7E6
:109370005FFF002802D021882868084470BD10B51E
:109380000A8849888A4203D1FCF794FF012010BD66
:10939000002010BD70B50C460546FCF76EFF002896
:1093A00002D061882868084470BD10B50A884988D1
:1093B0008A4203D1FCF758FF012010BD002010BDE8
:1093C00001F01F0301229A40D243490900EB8100BA
:1093D000114600F021B84A0950F8220001F01F029E
:1093E00001219140084000D00120704701F01F0387
:1093F00001229A40490900EB8100114600F01CB897
:10940000002100F00FB8012100F016B808B56A4637
:10941000FCF7A5FF009808BD08B56A46FCF785FF74
:10942000009808BD08B56A46FCF77FFF08BD08B57F
:109430006A46FCF761FF08BD08B56A46FCF768FF9D
:10944000009808BD08B56A46FCF796FF009808BD6D
:1094500038B5044600258DF800506846FDF722FF18
:1094600021686268086890420ED9401E0860017841
:10947000238AE26801FB0325227A2168101AC0B210
:109480000A79824200D208719DF80000FDF72EFF94
:10949000284638BD38B5054600208DF800000C463A
:1094A0006846FDF7FFFEE868298A201AB0FBF1F153
:1094B0002A681068431C136001709DF80000FDF7D6
:1094C00015FF38BD10B530B1017A42680368891ABA
:1094D000C9B21A6006E00E2010BD03681A68541C59
:1094E0001C601170491EC9B2F7D2006800210171D9
:1094F000084610BDC20800F007030120895C9840AF
:109500000840704710B5C20800F00703885C0124CA
:109510009C402043885410BD28B1A1F11702E12AD4
:1095200003D3072070470E2070470180002070474A
:1095300010B560B10161F72120F8021B20F8021B71
:10954000FB2100F8021BFFF719FD002010BD0E20C3
:1095500010BD0000F0B5858893B00C46002D39D1C0
:10956000018800263F4F24293BD006DC102909D072
:1095700011290CD0232958D14FE03A290BD0552975
:1095800053D129E00146204601F04EFD4DE0A01DDB
:10959000FFF7F4FC49E02246408934F8061F814277
:1095A00000D808466080172800D217206080106914
:1095B00070B1607960B1D7E90001CDE90301ADF880
:1095C0000E506088ADF81000136903A91046984743
:1095D0006671267113B0F0BD0146204601F078FD9A
:1095E00023E0011D2C2206A8FCF74EFFBDF8180051
:1095F000BDF81C2004EBC0014A732269AAB1D7E967
:109600000423CDE90423ADF81200487B8DF8140043
:109610002269204604A9904707E0017A207B88420E
:1096200000D201462846FFF771F9A07A0028D1D070
:10963000E1882846A5DF012580B11128CAD001F0B4
:10964000D9F902460848094913B0401AC00805EB89
:109650000040BDE8F04006A100F080BCA672E572B3
:10966000B8E70000F8BF0200C8CA0200C8CA02007A
:1096700073645F626C655F67617474635F65786370
:1096800068616E67655F6D74755F7265717565732E
:109690007428292072657475726E65642025732E96
:1096A0000000000020B10278DE2A03D008207047B5
:1096B0000E20704741800020704760B159B1027898
:1096C000DE2A0AD009684160DE2101704FF6FF7181
:1096D0004180002070470E207047082070477FB5FA
:1096E000054600294DD0002D4BD008780C46DE28C9
:1096F00047D1A8886188884202D1204602F0B6FB93
:109700002888012825D002283BD011283AD051289A
:1097100037D135F8040F6188884232D1A978A81C66
:1097200002292ED1017A042903D0062901D0052966
:1097300027D10021009102228DF8002001914FF4E1
:10974000C07202910391ADF80420007A05280FD071
:1097500010E0297A2046012913D1A9884288914234
:109760000FD10121017204B0BDE8704002F07EBB50
:10977000ADF8041028886946B0DF002801D0616880
:1097800088477FBDA88861888842FAD14FF6FF706C
:1097900060807FBD00F180400068002800D001207B
:1097A000704708B500F1804000210160006800901A
:1097B00008BD000070B50B4C207808B185250FE07E
:1097C0000020A06060602061E060074801F048F977
:1097D000054601F057F808B901F02CF90120207076
:1097E000284670BD345100207D87020038B5002521
:1097F0008DF800506846FDF755FD074CE068401EA7
:10980000E060E06810B901F03BF9A5709DF8000038
:10981000FDF76CFD38BD0000345100202DE9FF41FB
:109820001C460378164D174E45F823200C3545F895
:109830002340F0CE8DE8F0000C788DF800404C7895
:109840008DF801408C788DF80240CC788DF803407B
:109850000C798DF805404C798DF806408C6802949F
:109860000C7B8DF80C40497B8DF80D1002B1064A37
:109870006946001D01F048F904B0BDE8F081000020
:109880001852002028C0020061B7020030B40378EB
:10989000054CE35C1BB130BC001D01F085BA30BC47
:1098A0000C3001F01DBA0000442D00200FB408B5A3
:1098B0000399002904D004AA00926A4600F00FF828
:1098C00001B05DF814FB10B582680446002A05D08B
:1098D000D4E90403216898470020A06010BD2DE959
:1098E000FC4791460C00804676D014F8011B39B134
:1098F00025290ED04046FEF711FE20780028F4D12D
:1099000098F80C00002867D04046BDE8FC47FFF7F8
:10991000DABF0020012221782B291BD02D2902D06B
:10992000302908D102E040F0010001E040F00200DF
:10993000641C002AEFD100252A290ED02178A1F13C
:1099400030020A2A11D205EB850201EB4205641CA4
:10995000303DF1E740F00400EAE7D9F800100B1DB4
:10996000C9F800300968641C0D44217800232E29B1
:109970000BD114F8011FA1F130020A2A05D203EB22
:10998000830201EB4203303BF3E76C290DD06829D9
:109990000BD0692921D00BDC252918D0582931D0CA
:1099A00063290ED0642915D117E014F8011FECE7E4
:1099B000702969D0732932D075291BD0782909D133
:1099C00020E0D9F80000011DC9F8001001784046D8
:1099D000FEF7A4FD641C90E76CE0D9F800100A1DA6
:1099E000C9F800200968CDE900500A224046FFF777
:1099F0001DFAEFE7D9F800100A1DC9F80020096820
:109A00000A2206E0D9F800100A1DC9F800200968EA
:109A10001022CDE90050404602F08EF9DAE7D9F87D
:109A2000001000270A1DC9F800200E68C00705D1E4
:109A300012E04046761C7F1CFEF770FD317800294D
:109A4000F7D104E0202140466D1EFEF767FDBD42C0
:109A5000C0D9002DF6D1BDE74EB13046FCF738FD38
:109A6000074604E0202140466D1EFEF757FDBD422B
:109A700006D9002DF6D103E04046761CFEF74EFDD8
:109A800031780029F8D1A5E7D9F80000011DC9F8FF
:109A90000010056830214046FEF740FD7821404621
:109AA000FEF73CFD08200021CDE90001034610220D
:109AB0002946B0E7BDE8FC8770B541EA4201DDE91F
:109AC00004564FF0A04441EA830141EA052104EB2A
:109AD000800041EA0641C0F8001770BD1CB50021A6
:109AE00000910B46012201911146FFF7E5FF1CBDD5
:109AF0004FF0A04202EB8000D0F8002722F4403261
:109B0000C0F80027D0F8002742EA0141C0F800174A
:109B100070474FF0A04201218140C2F80C157047F8
:109B20004FF0A04201218140C2F808157047012280
:109B30004FF0A043824011B1C3F808257047C3F825
:109B40000C25704718B5084B6C4601441B68009300
:109B500006E000BF54F82030D3F81035401C08C28E
:109B60008142F7D818BD000020C00200034908B5A3
:109B70000844002101600068009008BD00600040BA
:109B800002494058012800D0002070470060004082
:109B900030B5154A01460020D2F8104423460AE0A9
:109BA000DB681D79854205D1401C0A28F6DB4FF0A1
:109BB000FF3030BD1B68002BF2D1431CF9D0CB68BD
:109BC0001871D2F8103443B1DB68CC681B6823608D
:109BD000D2F81024D268116030BDC2F81014C968E0
:109BE00000220A6030BD0000085800207047FCF7D2
:109BF00073BE704708B5034A00924023024A00F042
:109C000005F808BD45B50200F0520020F0B595B04A
:109C10001C4615460F4608461A9E00F01EFB1821EA
:109C200009A8FCF74AFC0E96CDE9095400230C2242
:109C300003A9384600F026FB05980690BDF81000F1
:109C4000ADF81C00BDF81200ADF81E0000208DF824
:109C5000210003980C2600F00300012802D00228FE
:109C600018D032E003983346850AC0F3C2008DF85D
:109C7000200003980FA9C0F38314A200384600F017
:109C800001FB09A8009006AB22460FA9284600F068
:109C90002FFA1AE00398840DC0F3C2008DF820005B
:109CA000082C01D2254600E0082533462A460FA994
:109CB000384600F0E7FA2E44641B09AB06AA294691
:109CC0000FA800F069F9002CEAD1384600F0CBFA71
:109CD00015B0F0BD0A4A012902EBC00007D00229E5
:109CE00007D0032907D0042907D00020704702209D
:109CF0007047042070470079704740797047000032
:109D0000C8CA020010B5FFF772FF04210348FFF72D
:109D10003FFF02490120C968487110BDB8CA02005E
:109D20002DE9F04F8DB0FEF711FC18B100200DB0F9
:109D3000BDE8F08F7E4C4FF0000BC4F818B4BFF3B1
:109D40004F8F60680290A568D846284004EB8000D9
:109D50000CE000BFD4F8180470B921680298814261
:109D600001D86160E2E7284004EB80000C3002A9D2
:109D7000FFF7AFF80028EDD1002005AA029901EA0B
:109D8000050304EB8303491CDB6842F82030401CC8
:109D900002910328F2D3059800F00300022802D0B4
:109DA00001284DD0AAE005985022810D8946B2EBDA
:109DB000905F00D850210E4666F39F5005900C31FD
:109DC0005C4800F001FA070078D000F046FA4346FC
:109DD0000C2205A9384600F05DFA029908F10C0A38
:109DE0002940681A8000001D864222D9504D0C354A
:109DF00030B1C2B204EB8101301A90460C3104E05C
:109E00002946F2B2002590462846C6B25346384647
:109E100000F040FA0AEB080325B1324629463846DD
:109E200000F038FA029909F1030001EB900002906A
:109E30003BE004EB81015346324638460C31EFE7F4
:109E40000598C0F38310062800D30620059960F317
:109E50008911C1F38310C01C05918100354800F0C1
:109E6000B3F907004AD000F0F8F943460C2205A9DF
:109E7000384600F00FFA08F10C0800260FE00298AF
:109E8000434600EA0501401C04EB810102900422D4
:109E900038460C3100F0FEF908F10408761C0598EC
:109EA000C0F38310B042EAD847B1D4F81054D4F8C4
:109EB000180478B1384600F0D6F934E01EE0E868BE
:109EC0004079012804D12A6828463946126890470B
:109ED000E8680568002DF2D1384600F0C4F98DF825
:109EE00000B06846FDF7DEF9D4F8180408B9029806
:109EF00060609DF80000FDF7F9F914E0D4F8104413
:109F000005E02168204689688847E0680468002CDD
:109F1000F7D109480949401AC008022101EB004065
:109F200007A100F017F8FEF711FB80F00100FEE634
:109F30000858002050CB020030CB0200C8CA0200F3
:109F40004261636B656E647320666C7573686564EB
:109F50000000000000231A4601F07CBC08B5012374
:109F600000926A4601F076FC08BD1CB5CDE90023DD
:109F700002236A4601F06EFC1CBD70B586B00DF17F
:109F8000280C9CE870008DE87C0005236A4601F0EF
:109F900061FC06B070BD00002DE9F0470E4680461A
:109FA0001C469246082940D894F80C900020207353
:109FB0001946104601F066F90025B54206D218F898
:109FC00005201BA12046FFF771FC03E01AA12046E3
:109FD000FFF76CFC6D1C082DEFD318A12046FFF78E
:109FE00065FC0025B54212D218F805707E2F08D8FE
:109FF000FCF746FA0068C05D10F03E0F01D03A460B
:10A0000000E02E220EA12046FFF750FC03E00DA138
:10A010002046FFF74BFC6D1C082DE3D3012221469F
:10A02000504601F011F984F80C90BDE8F08700006B
:10A030002025303278000000202020007C00000025
:10A04000256300002000000070B505001AD00E4CFA
:10A05000FF20A060002020606060C4F81804C4F8ED
:10A06000140484F82004084600F09EF80748C4F859
:10A070000C5400F0F6F8002803D1054800F014FA5B
:10A08000002070BD072070BD0858002050CB020092
:10A09000E8C1020002480349401AC00870470000A6
:10A0A00050CB0200C8CA020013B56846FFF7DEF8BD
:10A0B00008B100201CBD0248009950F831001CBDB9
:10A0C000C8CA020070B509480125D0F8104480F8CC
:10A0D000205407E0E06845712168204649688847B8
:10A0E000E0680468002CF5D170BD0000085800201D
:10A0F0002DE9FF4781460C9D00200C462F7B2873DD
:10A10000984616462946184601F0BCF8072E42D25A
:10A11000DFE806F004090F161F2A360049462846D4
:10A12000FFF7C4FB37E0494628462268FFF7BEFB2D
:10A1300031E0D4E9002349462846FFF7B7FB2AE07F
:10A14000A0680090D4E9002349462846FFF7AEFBFB
:10A1500021E0D4E90201CDE90001D4E90023494618
:10A160002846FFF7A3FB16E004F1080007C88DE8B6
:10A170000700D4E9002349462846FFF797FB0AE089
:10A1800004F108000FC88DE80F00D4E90023494608
:10A190002846FFF78BFB00222946404601F054F881
:10A1A0002F73BDE8FF870000054A0121054B516070
:10A1B00001E0400849009842FBD8C2E9000170471D
:10A1C000D02D002040420F002DE9F041058A804645
:10A1D0002D1F4819C01CB0FBF5F0C6B24046FFF772
:10A1E00037F9041E19D00020207101206071E5802C
:10A1F00000272546761EC4F800800BE04046FFF796
:10A2000027F960B16179491C6171286005467F1C9E
:10A21000C0F80080B742F1D32046BDE8F081204667
:10A2200000F002F80020F8E72DE9F04145790146F9
:10A230006B1E002201E00968521C9A42FBD30F6892
:10A240000146002605E038460C68FFF723F9214651
:10A25000761CAE42F7D3BDE8F0810121001DFFF767
:10A26000D5B8FFF72FB910B504460121001DFFF73F
:10A27000E9F810F0FF0F04D12046BDE81040FFF7C9
:10A28000D3BF10BD1CB501920122009201AAFEF7B6
:10A29000ADFF1CBD1CB501920022009201AAFEF781
:10A2A000A5FF1CBD064910B500204870091D0860B7
:10A2B000BFF35F8F0349044800F02AFB002010BD64
:10A2C000AC2D002080C00200E452002008B5002020
:10A2D0008DF800006846FCF7E5FFF1EE100A20F06B
:10A2E0009F00E1EE100ABFF35F8F08494020C1F8DC
:10A2F00080029DF80000FCF7F9FF00F0C3FA08B1F6
:10A3000041DF08BD20BF40BF20BF08BD04E000E022
:10A310002DE9F8430446002790460E468DF800705C
:10A320006846FCF7BFFF204600F039F838B1052732
:10A330009DF80000FCF7DAFF3846BDE8F883206896
:10A340000568B8F1000F05D10168204600F03FF81C
:10A3500021680860E268012A0CD0022A0ED0042A83
:10A3600011D06068082A13D005FB02013046FCF7C3
:10A370008BF8DDE76068405D3070D9E7606830F8E1
:10A3800015003080D4E7606850F825003060CFE7D2
:10A3900000EBC501D1E90001C6E90001C8E7016889
:10A3A00008684968884201D1012070470020704741
:10A3B00001680A6849688068884201D9491C00E040
:10A3C0000021914201D10120704700207047806830
:10A3D000884201D9481C7047002070472DE9F84396
:10A3E00004464FF000080E468DF800806846FCF7E2
:10A3F00059FF2046FFF7DCFF07000AD0207C40B160
:10A400004FF004089DF80000FCF770FF4046BDE8DF
:10A41000F8832068456841682046FFF7D8FF216827
:10A42000486037B1206801682046FFF7D0FF2168F7
:10A430000860E268012A14D0022A16D0042A19D032
:10A44000082A1CD06068314605FB0200FCF71CF8A6
:10A45000204600F073FF21688A688242D2D2886069
:10A46000D0E7616830784855F2E76168308821F8B4
:10A470001500EDE76168306841F82500E8E7D6E9A6
:10A480000001626802EBC502C2E90001E0E70000DA
:10A4900001A29C21FBF7BEBE2E2E5C2E2E5C2E2E22
:10A4A0005C6D61696E2E6300826800219160826834
:10A4B0001161826851618268D160826851608068F0
:10A4C0000160704708B5002242504058009008BD16
:10A4D00020B1034909680160002070470E207047D1
:10A4E0006CC202002DE9FE4307460E460846FFF700
:10A4F000EFFF00287CD100240094019408208DF8FF
:10A5000000704FF00108ADF8040002948DF802804D
:10A5100069462020326869DF3649374A891AC908F6
:10A52000012202EB014530B100F064FA02462846F0
:10A530003249FFF713FD00948DF801808DF8024039
:10A54000019402948DF8034069464020326869DF27
:10A5500030B100F04FFA024628462949FFF7FEFCC9
:10A5600000948DF80070F720ADF802000194029479
:10A5700069462320326869DF30B100F03BFA0246B9
:10A5800028462049FFF7EAFC0094019402948DF8D4
:10A59000008069460120326869DF30B100F02AFA94
:10A5A000024628461849FFF7D9FC4FF4B0600090E6
:10A5B000019402946946A120326869DF30B100F04D
:10A5C00019FA024628461149FFF7C8FC0094019485
:10A5D00002948DF800406946A020326869DF30B1EE
:10A5E00000F008FA024628460949FFF7B7FC0020A8
:10A5F000BDE8FE8340CB0200C8CA020020C30200AF
:10A6000054C90200A0C90200B4C8020000C9020077
:10A6100060C802002DE9F0410546076860DF80460A
:10A6200019491A482A68081AC608BA4219D90220D4
:10A6300000EB064416A12046FFF78CFC20463A4664
:10A640001FA12B68FFF791FC4FF08050D0F80C0150
:10A650002968800200F10050421A204625A1FFF728
:10A660007DFCB8F100004FF001040AD000F0C2F9FF
:10A67000024604EB06402AA1FFF770FC4046BDE805
:10A68000F0812F480470F9E740CB0200C8CA0200ED
:10A69000496E73756666696369656E742052414DD3
:10A6A00020616C6C6F636174656420666F722074E6
:10A6B000686520536F66744465766963652E000093
:10A6C0004368616E6765207468652052414D207350
:10A6D00074617274206C6F636174696F6E2066724E
:10A6E0006F6D203078257820746F20307825782E93
:10A6F000000000004D6178696D756D2052414D205C
:10A7000073697A6520666F72206170706C6963612D
:10A7100074696F6E20697320307825782E000000F0
:10A7200073645F626C655F656E61626C6528292089
:10A7300072657475726E65642025732E00000000CA
:10A74000132E002030B51748ADF5017D00780028A4
:10A7500025D04FF4FA7400BFADF8004280A96846D6
:10A7600061DF50B105281AD00DF5017D0EA2BDE8BC
:10A77000304040F23911FBF74DBD6D461A497DA8B6
:10A7800000F0C6F807E000BFD0E900212846904756
:10A790007DA800F0D4F87F980028DDD0F4E70DF50F
:10A7A000017D30BD132E00202E2E5C2E2E5C2E2E11
:10A7B0005C2E2E5C2E2E5C2E2E5C636F6D706F6E89
:10A7C000656E74735C736F66746465766963655CEB
:10A7D000636F6D6D6F6E5C6E72665F7364685F62EF
:10A7E0006C652E630000000070C202007CB5194C3D
:10A7F000207808B108207CBD0120A070002000F066
:10A800006BFE112819D0002000F07EFE12480026B1
:10A81000006801908DF800606846FCF743FD0F4921
:10A8200001A810DF05000AD0002020709DF800006C
:10A83000FCF75CFD2DB128467CBD00207CBD0120CD
:10A84000F3E7A670667000F033FF012000F05CFEB5
:10A85000F3E70000102E002004C202009D6F0200EA
:10A860000EB50749684600F053F805E0D0E900103E
:10A870008847684600F063F802980028F6D10EBDBC
:10A8800020C202000148007870470000102E00200E
:10A890001FB568464BDF40B1052816D004B00BA2A7
:10A8A000BDE810406B21FBF7B5BC184901A800F0CA
:10A8B0002FF806E0D0E900210098904701A800F0A9
:10A8C0003EF803980028E4D0F4E71FBD2E2E5C2E3E
:10A8D0002E5C2E2E5C2E2E5C2E2E5C2E2E5C636F3C
:10A8E0006D706F6E656E74735C736F66746465769D
:10A8F0006963655C636F6D6D6F6E5C6E72665F73CE
:10A9000064685F736F632E63000000008CC20200F6
:10A91000016009684160AFF3008010B5D0E9002103
:10A920005368994201D1002104E0D1E90034A342E7
:10A9300002D01946816010BD08314160F0E781689E
:10A9400000290BD0026892680A44826041684B6813
:10A950009A4203D108314160FFF7DFBF704770B5FD
:10A960000D460646446804E0B2682946904718B18F
:10A97000246820680028F7D120682860256070BD11
:10A9800040680068704741680868002801D0026884
:10A990000A60704702460020526806E08B4203D1ED
:10A9A00008681060012070471A461368002BF5D123
:10A9B00070474058002800D0012070470C4A10B55D
:10A9C00002F594730EE0991AC91001EBD171491088
:10A9D00002EBC1010C68844201D90B4602E005D2AA
:10A9E00001F108029A42EED3002010BD486810BD64
:10A9F000A0C0020000B5FFF7E1FF002800D1014828
:10AA000000BD00008CC002004058002800D001208A
:10AA1000704708B5002242504058009008BD405889
:10AA2000002800D00120704708B50022425040584D
:10AA3000009008BD08480068012110F0010F06D100
:10AA40004FF0E020C02280F80024C0F80011034934
:10AA5000012008607047000000E100E01805004098
:10AA60000649024600200B790BB1852070470A6029
:10AA700001220A7100224A7170470000502D002007
:10AA800004490120086004480168C1F3004100291D
:10AA9000FAD170470C00004018040040002802D092
:10AAA000014980010847704751C002000121B1EB04
:10AAB000507F01D101207047002070470121B1EB88
:10AAC000507F01D1012070470020704738B50D46F6
:10AAD00000F028FC040014D000208DF80000684627
:10AAE000FCF7E0FB207928B19DF80000FCF7FEFBA5
:10AAF000112038BD0120256020719DF80000FCF771
:10AB0000F5FB002038BD00002DE9FC470C4615463A
:10AB100001798046574A01EBC10002EB8006994655
:10AB2000307F10B10820BDE8FC87534AD8F80000F8
:10AB3000074652F82110FFF7C9FF08B11120F2E7CC
:10AB4000C6E90059207B0128207802D8FEF7E1FFF2
:10AB500001E0FEF7E5FF4FF0000ACDF800A0CDF8C8
:10AB600004A02078534652460121FEF7A5FF6078E5
:10AB70004FF0FF35FF2806D08146FEF7CAFF484652
:10AB8000FEF7ACFF00E0A946A078FF2809D000221C
:10AB900005460123CDF800A01146CDF804A0FEF72C
:10ABA0008BFFA07886F82000E078F077E078FF2827
:10ABB0000BD0217911B1FEF7ACFF01E0FEF7B0FF39
:10ABC000E078FEF78BFF2079B0772178C7F8081579
:10ABD000C7F80C95C7F81055A068C7F82405217B65
:10ABE000607B00B10120012904D0022905D003298E
:10ABF00008D105E040F0020004E040F0040001E06C
:10AC000040F00600C7F85405A079C7F8C0053068C1
:10AC100010B14020C7F804030720C7F800053068CA
:10AC2000012108B3D8F80000627940F3073000280A
:10AC30004FEA421206DA00F00F0000F1E02080F83F
:10AC4000142D03E000F1E02080F80024D8F8000083
:10AC500040F3073000F01F0201FA02F240098000C1
:10AC600000F1E020C0F80021504686F81DA03177A1
:10AC700059E70000F451002024C002002DE9F04102
:10AC800005460F460079154900EBC00001EB800432
:10AC90001646607F10B11120BDE8F081206820B118
:10ACA00016F0140F01D10120607797E80F0004F12E
:10ACB0000C0888E80F00E07FFF2806D0A17F11B1C3
:10ACC000FEF72EFF01E0FEF724FF33463A46214609
:10ACD0002868BDE8F04100F05FBD0000F45100209D
:10ACE0002DE9F05F054600790B4600EB400101EBD2
:10ACF000C000244901EB8004284600F045F810B15B
:10AD00001120BDE8F09F62614FF00009C4F8209067
:10AD1000A36084F828904FF48E784E464146286808
:10AD2000FFF777FE28684FF0010AC0F808A0214617
:10AD3000286800F0EBFF606808BBD5F800B06769D1
:10AD40000FE000BF94F8280008B10F2615E0414637
:10AD50005846FFF759FE0028F4D02146584600F027
:10AD6000D5FF206AB842F2D3574641462868FFF71C
:10AD70004BFE0028F9D02868C760C4F8149030460C
:10AD8000BFE70000A4510020007900EB400101EB77
:10AD9000C000044901EB80004069002800D0012078
:10ADA00070470000A45100202DE9F04704460E46EC
:10ADB0000079274900EBC00001EB800517463046BB
:10ADC000FFF774FE30B1204600F044F820B11120A6
:10ADD000BDE8F0871020FBE76F61AE604FF490771D
:10ADE0004FF0000839462068FFF71EFE4FF4AC769E
:10ADF00031462068FFF718FE2068AA686969C0F824
:10AE00004425C0F8481520684FF00109C0F80890A3
:10AE10006868D0B9BA4651462068FFF700FE074679
:10AE200031462068FFF7FBFD0743F4D010B14FF027
:10AE30000F0808E02068C0F80C9031462068FFF742
:10AE4000EEFD0028F9D0002068614046C0E7000010
:10AE5000D05100200079054900EBC00001EB8000D3
:10AE60004069002800D0012070470000D051002028
:10AE70002DE9F04105460078012738B1022830D08D
:10AE800001282CD1BDE8F041FCF774BD002617E085
:10AE90002869805DFCF7DCF9040010D0112CF7D094
:10AEA000184819492246401AC00807EB004017A16C
:10AEB000FFF754F8204620A2B121FBF7ABF9761C2E
:10AEC000A88AB042E4D8A98A2869084410F8010C7D
:10AED0000D2804D10A20FCF7BBF91128FAD0BDE8EF
:10AEE000F081194800224FF48041077017488068AC
:10AEF000FCF790F90028F2D0BDE8F0410EA2BD2188
:10AF0000FBF788B930CB0200C8CA02004661696C01
:10AF1000656420726563656976696E67204E555376
:10AF2000206D6573736167652E204572726F7220A4
:10AF3000307825782E2000002E2E5C2E2E5C2E2EB2
:10AF40005C6D61696E2E6300D82C002098BF0200F2
:10AF500010B568B103280FD10220FDF7A3F900282E
:10AF60000AD0BDE8104005A240F23D11FBF752B9EE
:10AF7000BDE8104000F06ABB10BD00002E2E5C2E14
:10AF80002E5C2E2E5C6D61696E2E630000780028A9
:10AF900009D105483B21808876DF002803D003A231
:10AFA000FD21FBF737B97047D82C00202E2E5C2EE0
:10AFB0002E5C2E2E5C6D61696E2E6300F0B58BB039
:10AFC000002601960D4604468988406901AAFCF7CF
:10AFD000A7F90AA8CDE908600227ADF82070ADF8FE
:10AFE00022602189A88808AAADDF002819D1A069AC
:10AFF000002816D00998FDF739F8002811D0019ED5
:10B000000EB101203070182102A8FBF756FA8DF816
:10B0100008700394A888ADF810000596A16902A8ED
:10B0200088470BB0F0BD000070B58D88027900EB49
:10B03000C5042273C97BA41D012902D0022904D1B1
:10B0400001E0008800E040882080218860888142FB
:10B0500011D92846A5DF0126B0B1112816D0FFF777
:10B06000C9FC02460B480C49401AC00806EB0040D8
:10B070000AA1FEF773FFA179E079814208D9284639
:10B08000BDE87040FDF742BC6671F4E72671F2E757
:10B0900070BD0000C8CA0200C8CA020073645F62C3
:10B0A0006C655F67617474635F65786368616E6720
:10B0B000655F6D74755F726571756573742829209D
:10B0C00072657475726E65642025732E0000000031
:10B0D0007CB506468D88C88806EBC504A41D1728D4
:10B0E00000D217202188814200D8084660800020C5
:10B0F000207121882846B5DF60B1FFF77BFC02464E
:10B100000F481049401AC008012101EB00400EA170
:10B11000FEF724FF6079002810D1306900280DD097
:10B120001549D1E90201CDE90001ADF8025060886E
:10B13000ADF8040032696946304690477CBD000096
:10B14000C8CA0200C8CA020073645F626C655F67A8
:10B15000617474735F65786368616E67655F6D7451
:10B16000755F7265706C7928292072657475726ECE
:10B1700065642025732E0000F8BF0200F0B587B08B
:10B180000C4605468E1D8988406906AAFCF7C8F85A
:10B1900018216846FBF791F90195A088069AADF849
:10B1A0000800039231882B89002704F1120099428C
:10B1B00002D17389022B0DD0AA8991421ED1A969AF
:10B1C00000291BD08DF8007004907089ADF8140030
:10B1D000A96911E0002A11D0FCF748FF20B10699B7
:10B1E00001200870022002E00698077003208DF805
:10B1F0000000A969002901D06846884707B0F0BD62
:10B2000010B50C460146AA202070BB2060700020BB
:10B21000A0704020E070002023180A5C401C1A71C6
:10B220004028F9D34221A01CFDF758FB010A04F87D
:10B23000441F607010BD0068012803D0022801D0AF
:10B24000002070470120704710B50C46017A05298F
:10B2500008D0407A38B1084808A102682046FEF7B5
:10B2600025FB00E01AB106A12046FEF71FFB204691
:10B27000BDE81040FEF727BBEC2D00202573000031
:10B280000D0A000038B5C3880D46044633B116A038
:10B29000009017A218A12846FEF708FB217A05297D
:10B2A00020D0607A48B1A088FEF714FD184951F803
:10B2B000202018A12846FEF7F9FA2846216800F058
:10B2C000DFFBA0880021FEF7EFFE03461049207A3D
:10B2D000143951F8202001B02846BDE830400EA1B5
:10B2E000FEF7E4BA38BD00001B5B306D00000000C3
:10B2F0001B5B313B33316D0025734C6F67732064EA
:10B30000726F70706564202825642925730D0A000A
:10B31000EC2D0020257300003C25733E2025733A58
:10B32000200000000349884201D1034870470020F3
:10B330007047000000200040582D002001680A6876
:10B340004968914201D3881A70478068801A08447E
:10B35000401C704770B50546FDF7FBFB134C40B130
:10B36000D4E904024FF08071411842F10000C4E9B1
:10B37000041000212846FDF73DFB30B1606820B184
:10B38000606800F0F9FA0020606001212846FDF7AE
:10B3900031FB18B1FDF720FDC4E90601284600F095
:10B3A00017FB2846BDE8704000F034B8602D00203F
:10B3B00070B5054600200C460870FDF70DFDD5E977
:10B3C0000223101A63EB010300263146361A994115
:10B3D00012DAB0F5350F03D3FBF7DCFE0B49421848
:10B3E0004FF4960300210A48FDF7BFFB10B10D286A
:10B3F00006D009E0012070BD00210548FDF7F0FAF4
:10B40000284600F0B9FA2070002070BDFFFFB4009C
:10B41000682D0020F8B51A4C074600261948FFF79A
:10B42000AFFAD0B1616871B1D0E902106268D2E9B7
:10B430000232C91A904120D26068007F18B1616859
:10B440001048FFF78CFA00F07FF905466946FFF7D0
:10B45000AFFF98B1606840B10AE0606800280CD185
:10B460003846BDE8F840FDF77CBB3846FDF775FB74
:10B4700065609DF800000028D0D1F8BD6660CDE77A
:10B48000602D002040C0020038B50021012548B1E0
:10B4900001280CD0032809D1FFF7CCFABDE83840C9
:10B4A000FEF7A4B94FF0E020C0F8805138BD8DF808
:10B4B00000106846FBF7F6FE064C207808B9FEF748
:10B4C00079F9E068401CE060A5709DF80000FBF78A
:10B4D0000DFF38BD345100203EB504460949684689
:10B4E000FFF716FA08E000BFD0E900212046904798
:10B4F00030B16846FFF723FA02980028F4D13EBD28
:10B5000011203EBD08C202003EB504460849684607
:10B51000FFF7FEF907E000BFD0E900212046904781
:10B520006846FFF70CFA02980028F5D13EBD0000EE
:10B5300014C2020002498969002900D008477047F7
:10B540009C5000202DE9F0411400884618D00025B9
:10B550000E4F032608EB050122460020FBF7BEF93B
:10B560000544241A40B93878002809D008494FF416
:10B570007A408847761E05D001203870002CE9D12A
:10B58000BDE8F08100203870FAE70000B42D0020FB
:10B59000E1C102002DE9F0410746806A1446884661
:10B5A000C8B3002531E000BFB96A05EB450001EBE7
:10B5B0008006B088801CFE2802D90C20BDE8F081EE
:10B5C0002288401C08F8020020881622401C80B205
:10B5D000208008F800202088401C80B2208000EBEA
:10B5E0000801308800F0A2FB2188084480B2208046
:10B5F000B28842B1B16871B14044FAF745FF208882
:10B60000B188084420806D1CEDB297F82C00A84248
:10B61000CAD80020D2E7FFE70720CFE70A7806283C
:10B6200022F0FF020A7010D2DFE800F003050709DC
:10B630000B0D002008E0112006E0212004E031205D
:10B6400002E0122000E022200870704710B50020B0
:10B65000FCF728FE20B10CA24FF49571FAF7DAFD41
:10B66000FCF7A6FD20B108A24FF49771FAF7D2FDBE
:10B6700033DF002806D0BDE8104003A24FF49971D3
:10B68000FAF7C8BD10BD00002E2E5C2E2E5C2E2EAB
:10B690005C6D61696E2E6300002805D103490120AD
:10B6A00048700020FDF756B8704700003451002064
:10B6B00010B51620FBF706FCA0B1124890F8000464
:10B6C0004009082811D20121814011F0EC0F0CD063
:10B6D0000D4882684FF480017AB1016841F480011D
:10B6E000016010BD42F2010001E042F20200BDE83B
:10B6F000104006A2A121FAF78DBD4FF0E020C0F85E
:10B70000001110BD16E000E0D85200202E2E5C2E55
:10B710002E5C2E2E5C2E2E5C2E2E5C2E2E5C636FED
:10B720006D706F6E656E74735C736F66746465764E
:10B730006963655C636F6D6D6F6E5C6E72665F737F
:10B7400064682E63000000000148FFF71CB9000088
:10B7500040C0020001490120C8707047D82C002069
:10B7600000B585B00A4601788DF800104168019156
:10B77000017A8DF80810C1680391007C8DF81000E3
:10B78000044850F822100C3850F8222068469047A0
:10B7900005B000BD245200202DE9F843044610688E
:10B7A0001E4615460F464FF0000810B1FFF786F908
:10B7B000F8B1A86810B1FFF781F9D0B1D5E900015F
:10B7C000C4F84405C4F84815D5E90201C4F83405A5
:10B7D000C4F838154FF48C754046C4F81881D4F875
:10B7E00018110091F2074FF0010107D0C4F850156D
:10B7F00006E087F81D801020BDE8F883C4F85005E6
:10B80000B20702D5C4F8401501E0C4F8400530077E
:10B8100000D42161386848B146F38000401C4FF0E5
:10B82000400014D0C4F804030020E5E72946204670
:10B83000FFF7BFF80028F9D0F87FFF28F4D0B97FD0
:10B8400011B1FEF766F9EFE7FEF76AF9ECE7C4F825
:10B850000803E9E72DE9F84F244D9246894607464B
:10B860009846012269461846AE68FCF70FFE98B369
:10B87000009800210446C01C09E000BF00EA06034E
:10B880005AF8212005EB8303401C491CDA6041452E
:10B89000F4D34FEA174AFDF799F84AEA0041601CD1
:10B8A000304005EB8000C160D5F80C048047A11C36
:10B8B000314005EB8101344005EB8402C860D0685B
:10B8C00067F3C50068F3891069F39F2020F0030037
:10B8D000401C20F00400D06095F8200402E000BF76
:10B8E000FEF71EFA0028FBD1BDE8F88F08580020AB
:10B8F00010B5074A01210748FBF752FC002806D083
:10B90000BDE8104004A240F24241FAF783BC10BDEA
:10B9100029B90200A0BF02002E2E5C2E2E5C2E2E16
:10B920005C6D61696E2E630010B508480849094CCA
:10B93000401AC0080321D4E9052301EB004006A109
:10B94000FEF713FB0020A061606110BD30CB020048
:10B95000C8CA0200D82C00203D3D2A2A53706565D4
:10B96000643A20256420422F732C64726F703A254C
:10B97000642A2A3D3D00000070B5044612480025A7
:10B980000078F8B1F4B1207FE0B1FDF725FAD4E9F1
:10B990000223801A994110D32069002600B9267726
:10B9A000D4E905108847206960B1217F51B1D4E9FD
:10B9B000022110187141C4E9020121460348FEF733
:10B9C000CEFF0125284670BD602D002040C002003A
:10B9D000F8B51B4C69462068FDF7DCFC0026012702
:10B9E000184D29E0017821B101290CD002291BD181
:10B9F00014E041680A7FBAB90F77416810480830EF
:10BA0000FEF7ADFF10E041686868814201D16E60C9
:10BA10000AE00B480830FEF7BDFF05E0FFF794FE93
:10BA200008B10677FAE72F7069462068FDF7A7FC92
:10BA300069462068FDF7AEFC0028D3D1F8BD0000B0
:10BA400038C00200602D0020F8B50B4C0D460646AC
:10BA500069462068FDF788FC58B106704560694664
:10BA60002068FDF7A2FC10B10448FDF761F8002042
:10BA7000F8BD0420F8BD000038C00200682D002089
:10BA8000FEB51A4A6FF0E0055368B1FBF3F4116894
:10BA90004FF46162B4FBF1F3B3FBF2F2554303EBF5
:10BAA00005153C23B5FBF3F3A3EB031605EB860664
:10BAB000B4FBF1F501FB15444FF47A756543B5FB12
:10BAC000F1F504EB440C05FB01F7CCEBC414C7EB18
:10BAD000C4044FF47A777C43B4FBF1F10096CDE9CE
