:020000040002F8
:10600000287D0020E1630200E9630200EB630200E7
:10601000ED630200EF630200F16302000000000084
:10602000000000000000000000000000F363020018
:10603000F563020000000000F7630200F96302004C
:1060400039670200FB630200F56B02008168020001
:10605000FB630200FB63020065650200FB63020054
:10606000FB630200FB630200FB630200FB630200B0
:10607000FB630200FB630200FB630200FB630200A0
:10608000FB63020011680200FB630200FB63020075
:10609000FB630200FB630200D5680200FB630200A1
:1060A000FB630200FB630200FB630200FB63020070
:1060B000FB630200FB630200000000000000000020
:1060C000FB630200FB630200FB630200FB63020050
:1060D000FB630200FB630200FB63020000000000A0
:1060E00000000000000000000000000000000000B0
:1060F00000000000000000000000000000000000A0
:10610000000000000000000000000000000000008F
:10611000000000000000000000000000000000007F
:10612000000000000000000000000000000000006F
:10613000000000000000000000000000000000005F
:10614000000000000000000000000000000000004F
:10615000000000000000000000000000000000003F
:10616000000000000000000000000000000000002F
:10617000000000000000000000000000000000001F
:10618000000000000000000000000000000000000F
:1061900000000000000000000000000000000000FF
:1061A00000000000000000000000000000000000EF
:1061B00000000000000000000000000000000000DF
:1061C00000000000000000000000000000000000CF
:1061D00000000000000000000000000000000000BF
:1061E00000000000000000000000000000000000AF
:1061F000000000000000000000000000000000009F
:10620000DFF810D000F036F900480047158A020088
:10621000AFF30080287D002000B583B0029000918C
:10622000019244F2010071466A4600F0F1FD03B0AC
:1062300000BD000030B450E8012F93B2C48923445C
:106240008489A34228BF1B1B0489A34202BFBFF35A
:106250002F8F002007E0C3EA020340E80134002C3E
:10626000E9D14FF001000A6030BC704750E8012FBF
:10627000C2EA024240E801210029F7D1704730B458
:1062800050E8022F1FFAA2F3C488A34202BFBFF353
:106290002F8F00200DE0C48923448489A34228BFA6
:1062A0001B1BC2EA034340E80234002CE8D14FF044
:1062B00001000A6030BC704750E8022FC2EA224257
:1062C00040E802210029F7D17047034653E8022F26
:1062D000D988B2EB324F4FF0000017BF92B241EABB
:1062E000014142EA014104E05A68B2EB324F08BF73
:1062F000012043E80212002AE8D1704730B4044676
:1063000054E8000F0D4644E80053002BF8D1156007
:1063100030BC704730B4044654E8000F40EA010531
:1063200044E80053002BF7D1156030BC704730B4FF
:10633000044654E8000F00EA010544E80053002B2E
:10634000F7D1156030BC704730B4044654E8000FF4
:1063500080EA010544E80053002BF7D1156030BCFA
:10636000704730B4044654E8000F00EB010544E8E0
:106370000053002BF7D1156030BC704730B4044691
:1063800054E8000FA0EB010544E80053002BF7D1BF
:10639000156030BC704770B404464FF0000054E8FC
:1063A000006F0D68AE4207BF44E80023012044E8B7
:1063B00000630E60002B1CBF0020F0E770BC70472C
:1063C00030B4044654E8000F88422CBF451A0546F5
:1063D00044E80053002BF5D1156030BC7047000035
:1063E0000648804706480047FEE7FEE7FEE7FEE76F
:1063F000FEE7FEE7FEE7FEE7FEE7FEE7D9680200FC
:1064000001620200004870475CBC020040EA0103E0
:106410009B0703D009E008C9121F08C0042AFAD25A
:1064200003E011F8013B00F8013B521EF9D270471E
:10643000D2B201E000F8012B491EFBD270470022C6
:10644000F6E710B513460A4604461946FFF7F0FF73
:10645000204610BD421C10F8011B0029FBD1801AF8
:106460007047034611F8012B00F8012B002AF9D1DF
:1064700018467047064C074D06E0E06840F00103FF
:1064800094E8070098471034AC42F6D3FFF7BCFEFF
:10649000D8C30200F8C3020010B54FF0D440002169
:1064A00004F052FE00214C1E204604F04DFE204612
:1064B000BDE81040002104F047BE38B54FF0006140
:1064C00041EA0040694604F03FFE4FF0FF34694660
:1064D000204604F039FE6946204604F035FE009857
:1064E00038BD38B51D464FF0404400B1641009B1C5
:1064F00044F0805444EA0240694604F025FE4FF01F
:10650000FF346946204604F01FFE6946204604F029
:106510001BFE0098288038BD38B51D464FF000445A
:1065200008B14FF0204409B144F0805445EA0240DC
:106530002043694604F008FE4FF0FF3469462046C8
:1065400004F002FE6946204604F0FEFD0098210C8E
:10655000B1EB104F02D180B2A84201D0FF2038BD6C
:10656000002038BD2DE9F04700268AB0DFF85091B1
:10657000B0464FF48075012437460696284602F04F
:10658000DBFF38B1D9F80403204203D0284602F0DB
:10659000C9FF26432D1D64007F1CADB2082FEDD32B
:1065A0004FF4BE74204602F0C7FF48B1204602F007
:1065B000B9FF46F0004606AA0121002002F09EFF26
:1065C000404D16F0FF0F15D00127002437420DD0A3
:1065D00009EB8401D1F81005D1F81015C0F304209F
:1065E00055F82420C1F3014102B190477F00641C9B
:1065F000082CEBD3002E5FDA4FF0FF30CDF810807F
:1066000054E0281910F8507F90F9000027F0C008D6
:10661000401C3BD007A9404602F052FC10B34FEAA1
:106620009719404601F006FD55F820701FB1B9F1E9
:10663000030F03D006E0B9F1030F27D104A94046A8
:1066400002F046FC4FF0A04101EB8800D0F80007B3
:1066500006A9C0F3014A404602F032FC18B1BAF173
:10666000020F03D012E0BAF1030F0FD1B9F1030FFB
:1066700008D1BAF1020F1DD00221404602F01EFFE0
:10668000761CF6B217B149464046B847641C042C44
:10669000B7D3002E10D06A460121002002F02EFF51
:1066A00006990098884207D0069004980026344640
:1066B0000790A6E70321E0E70AB0BDE8F0870000F5
:1066C00000600040B84F0020F0B5E5B000256F46EF
:1066D000002407EB851600BF04EB0510C0B2FFF7DE
:1066E000ECFE46F82400641C102CF5DB6D1C032D19
:1066F000EEDB30A9684604F013FAC62230A90B4835
:10670000FFF784FE0949C620A1F8D200084803F02B
:106710003DFB08490428886105D10878002802D08B
:106720000869401C086165B0F0BD000068330020B6
:10673000A4C40200E02C002070B54FF480763046EF
:1067400002F00EFD114CB50560B1304602F00FFDB0
:106750000120C5F80803607920B901206071216823
:10676000002088474FF48276304602F0F9FC00287A
:106770000AD0304602F0FBFC0220C5F8080321686D
:10678000BDE870400120084770BD0000382D002092
:1067900030B587B0010E8DF81410010C8DF815106E
:1067A000010A8DF81610144C8DF817000020E070C7
:1067B00004220DF1040C05A96B4615468CE82E0049
:1067C0000E48002201A903F031FF20B10CA240F2D3
:1067D0001D21FFF721FDE0780028FCD0BDF8000066
:1067E0009DF8021040BA000440EA01209DF8031011
:1067F00007B0084330BD0000E02C0020D4B70200F1
:106800002E2E5C2E2E5C2E2E5C6D61696E2E63002A
:1068100002490248091F0968006808478C2D0020BA
:1068200000F0EEB970B50E46144900EB400001EBE4
:10683000C0051446E86A183520B101280FD0022897
:1068400005D113E0284600F00FFAA04201D200243F
:1068500011E022463146284600F03EFA0BE0284679
:1068600000F002FAA042F4D20446F2E7314628468C
:1068700000F005FA0446204670BD00009C5A002036
:10688000F8B51248124E04464FF48C7103F069FDBE
:1068900000281AD00025C4F81851D4F81801009027
:1068A000F07F3446FF2806D0A17F11B102F017FE19
:1068B00001E002F01BFE65772572D4E9002101B0EA
:1068C00004F10800BDE8F0401047F8BD003000407A
:1068D0006450002003F09CBCF0B5B5480023021DB5
:1068E0000178101D01254FF0805406290BD1167830
:1068F000360708D10678C6F30316032E06D0042EF9
:1069000004D0052E02D0062907D00EE0B4F8246387
:10691000A84FC6F304263E6002E01678360704D17D
:106920000678C6F30316032E02D0062904D00FE022
:10693000A24FA14E7E670EE01678360708D1067882
:10694000C6F30316032E06D0042E04D0052E02D063
:10695000062907D00EE0D4F84462994FC6F34236B8
:106960003E6002E01678360704D10678C6F30316B7
:10697000032E02D0062906D011E0924E376827F088
:10698000807737600EE01678360708D10678C6F3B0
:106990000316032E06D0042E04D0052E02D006299D
:1069A0000AD011E04FF08046C6F80C31C6F810311D
:1069B000834E361F336002E01678360704D106781E
:1069C000C6F30316032E02D0062905D00CE07C4F37
:1069D000032664373E600AE01678360704D106784D
:1069E000C6F30316032E02D006290DD014E0764F0D
:1069F00005263E60744E78363560734E0836336037
:106A00003F263F1D3E6002E01678360704D1067827
:106A1000C6F30316052E02D0062957D062E06B4E4E
:106A200036686B4F3E60694E361D36683F1D3E60CE
:106A3000664E083636683F1D3E60644E0C3636683A
:106A40003F1D3E60614E103636683F1D3E605F4E12
:106A5000143636683F1D3E605C4E183636685C4F13
:106A600020373E60594E1C3636683F1D3E60574EFB
:106A7000203636683F1D3E60544E243636683F1D32
:106A80003E60524E283636683F1D3E604F4E2C36D3
:106A900036683F1D3E604D4E303636684C4F4037AD
:106AA0003E604A4E343636683F1D3E60474E3836AB
:106AB00036683F1D3E60454E3C3636683F1D3E60A1
:106AC000424E403636683F1D3E6002E0167836077B
:106AD00008D10678C6F30316032E06D0042E04D080
:106AE000052E02D0062907D019E0D4F85812394AE9
:106AF00001F04F01116002E0117809070FD1007811
:106B0000C0F30310032803D0042801D0052806D1C0
:106B100031480168C90702D06FF001010160D4F863
:106B20003001062808D1D4F83401062804D12B48B6
:106B3000016841F48061016022487438016841F4C1
:106B400070010160BFF34F8FBFF36F8F4FF01021C3
:106B5000D1F80002002803DBD1F80402002822DA71
:106B60001F4A15601F480468002CFCD01524C1F88A
:106B700000420568002DFCD0C1F8044201680029DC
:106B8000FCD0136001680029FCD0BFF34F8F0D4883
:106B9000F0380168144A01F4E06111430160BFF369
:106BA0004F8F00BFFDE7124910480860F0BD00009C
:106BB000E00F00F0403501400DF0ADBA00C00740D5
:106BC0003C050040FCED00E01056004004040010BD
:106BD00020C50040E40E0040000400403C17004087
:106BE00004E5014000E401400400FA050090D003F0
:106BF000FC2D00200148006800470000402D0020C7
:106C000010B5124C02202061606111A0A06104F156
:106C10007800E0614FF4007020620020A0626062A2
:106C20000BA1A164E06204F51E71E1641021A0656E
:106C3000C4E91410E06509A1E01DFFF712FC08A1EA
:106C40002046FFF70EFC2020A07110BD9C5A0020AA
:106C50005465726D696E616C0000000052545400FE
:106C600053454747455200000269C1688A4203D82C
:106C70008068401A104400E0501A401E70472DE909
:106C8000F047C4681746894606464FF00008306949
:106C9000A04201D9051B02E0B168201A0D1AB068A4
:106CA0006D1E001BA84200D80546BD4200D33D46DC
:106CB00070682A4620444946FFF7A8FBB0687F1B4E
:106CC0002C44A844A944A04200D10024F460002F21
:106CD000DDD14046BDE8F0872DE9F0410446884605
:106CE000D4E90207C51BE168606816460844B5424E
:106CF00006D94146FFF78AFBB819E060BDE8F0818C
:106D00002A464146FFF782FB761B08EB0501324617
:106D10006068FFF77BFBE660F0E702E008C8121F3F
:106D200008C1002AFAD170477047002001E001C174
:106D3000121F002AFBD170470121202803DA81406D
:106D40000548014003E0402802DA2038814009B1BB
:106D50000120704700207047FC06FFBD90F824001A
:106D6000012801D01F207047EE20704710B5012286
:106D70000221002001F0D2F808B1072810D1072223
:106D80000221012001F0CAF808B1072808D100212A
:106D90000A22084601F0C2F808B1072800D10020F5
:106DA00010BD000000B5ABB0AC216846FFF747FB53
:106DB00002208DF8000000208DF8020005208DF8DB
:106DC00003000120ADF84C008DF87C000C49202018
:106DD0001491229044F2506023900A482990694609
:106DE000094800F0EFFA20B1084A40F2B311FFF76A
:106DF00013FA0121044800F0E2FA2BB000BD0000B4
:106E0000E82C002081A80200342F00209CA802005A
:106E1000FEB515460E46074672B602F02BFE00BFC1
:106E200002F058FC0028FBD12249234A0120891A8C
:106E3000C90800EB0144012F23D06FF480503818AB
:106E400022D0B0F5405F24D06FF44051C84206D143
:106E50002B88204619A16A6802F05FFD04E02046F5
:106E600032461DA102F052FD21480068C00700D043
:106E700000BE2A4603B031463846BDE8F04000F077
:106E800079B820461BA101E0204622A102F03AFD7C
:106E9000EAE7A86803F086FA0346D5E90001CDE9E0
:106EA00000100296204624A1AA6802F03EFD20466A
:106EB0002BA1EBE770C4020008C402004153534504
:106EC0005254494F4E204641494C4544206174205C
:106ED00025733A2575000000554E4B4E4F574E20F6
:106EE0004641554C54206174203078253038580084
:106EF000F0ED00E0534F46544445564943453A208F
:106F0000415353455254494F4E204641494C454404
:106F100000000000534F46544445564943453A202B
:106F2000494E56414C4944204D454D4F5259204100
:106F300043434553530000004552524F522025759C
:106F4000205B25735D2061742025733A25750D0A39
:106F500050432061743A20307825303878000000A2
:106F6000456E64206F66206572726F722072657064
:106F70006F72740008B501238DF800309DF8003061
:106F8000144B186059609A606FF48041401807D024
:106F900001280FD1DA60D86800889861D86807E0C6
:106FA0001A611869806858611869006898611869E1
:106FB0004068D861186858689868D868186958692E
:106FC0009869D86972B600BF9DF800000028FBD10F
:106FD00062B608BDA050002010B58268C368934215
:106FE00003D001F082FB002010BD052010BD10B5BC
:106FF0008268C3689A1A83889A4203D801F07FFB9B
:10700000002010BD042010BD014801F060BA00004E
:10701000502D00203AB100680129426100D00021C2
:1070200001610020704707207047000038B5114803
:1070300008235822416800910F49006801F067FE5B
:10704000002815D10D4A69460D4801F045FA0400A3
:107050000ED101210A4801F0B6FA0123094A194666
:10706000074801F00CFA064901200839087020464B
:1070700038BD000070B90200D050002095AD02006C
:10708000502D0020FFFF7F0070B50446007F0D46A5
:1070900008B1002070BDA26101F0A8FB401941F1C8
:1070A0000001C4E90201206900B125612146BDE863
:1070B0007040002004F0FAB9014600200877012052
:1070C00004F0F4B910B501461048FFF790FF040032
:1070D00019D10F480F4A0178515C19B1001D03F016
:1070E00091FB02E00C3003F027FB60B90849074828
:1070F0000839FFF771FF30B9054901220839044802
:1071000002F0AAF80446204610BD000038510020C5
:10711000742D00202C2D002030B5EFF3108172B6B5
:107120000D4A9468012324B10370002900D162B68E
:1071300030BD93604FF0E023D3F88051074C2540D9
:107140001560C3F88041D3F8844154605A17C3F8DE
:10715000842100220270E8E748510020FC06FFBDB0
:107160000B498A68002A11D000280FD1EFF3108054
:1071700072B60B684FF0E022C2F800314B68C2F8DB
:10718000043100228A60002800D162B670470000F6
:107190004851002070B51500044609D00020286031
:1071A00034B1206820B1A079800703D0072070BDDA
:1071B0000E2070BD084600F003FBC0B2142804D0B6
:1071C0002179814203D8042070BD052070BDE2887A
:1071D000216800FB02102860002070BD2DE9FC47EB
:1071E000002517880646158090F82D00144689461C
:1071F00030B13A462146484600F060FB051E09D1F1
:10720000B0784FF00C0A18B32088C846001DB84269
:1072100002D95046BDE8FC87684679DF0028F9D1DD
:107220002088032108F8001020881921401C80B212
:10723000208008F800102088401C80B2208000EBDD
:107240000801BDF8000004F0A3F92188084420805B
:10725000F0780222C8B1218896F9033001F1030CBD
:107260004846BC45D5D8425421884FF0010C491CF2
:1072700089B2218000F801C02188491C89B221808F
:1072800009F801302088401C20807068B8B121883E
:1072900090F9003001F1030C4846BC45B9D842547E
:1072A00021880A22491C89B2218042542188491C24
:1072B00089B2218009F801302088401C2080308963
:1072C00050B1CDE900474B460622022106F10800E5
:1072D00004F010FA051E9DD1308A50B1CDE9004767
:1072E0004B460722032106F1100004F003FA051EA5
:1072F00090D1308B50B1CDE900474B461522142177
:1073000006F1180004F0F6F9051E83D1306A30B199
:107310003B462246494600F0AAFF051EDBD1706AB3
:1073200030B13B462246494601F014FC051ED2D13D
:1073300096F82C0038B13B4622464946304603F0C9
:1073400049FE051EC7D1307838B13B462246494632
:10735000304601F089FC051EBDD128465AE718B514
:1073600004460020ADF8000013466A46204600F0AF
:1073700006F8002802D0BDF80000204418BD70B502
:10738000C8B1C2B10024158803E0065D641C344412
:10739000A4B2A54203D8061976789E4201D08C4249
:1073A000F3D38C4207D2005DA31C401E9BB280B277
:1073B0001C188C4201D9002070BD138070BD80F86C
:1073C000301070472DE9F0410D00044606D02CB175
:1073D00095F87A000026012803D006E00E20BDE8CB
:1073E000F08195F89800012829D0D5F8A00004284C
:1073F00025D0D5F89C00042821D04FF00108A670B4
:107400002C2205F17801201DFFF700F884F8306088
:10741000D5F8A4006063D5F8A800A0634FF6FF700C
:10742000A4F8240404F58260C4F82004C4F8266497
:10743000A4F82A6484F82C64207810B104E00720B2
:10744000CDE7FF2084F8540004F155072046C4F826
:107450001074FFF783FCA4F8140404F214423946B4
:107460002846FFF7BBFE0028B9D104F23120C4F84A
:1074700018042046FFF772FCA4F81C0404F21C4216
:1074800005F13C00D4F81814FFF7A8FE0028A6D197
:1074900084F85180208BA4F8480084F83C8026644E
:1074A00084F85060606900216064454604F13C0244
:1074B000781E72DF002892D1257090E710B50288FF
:1074C000102A1BD0112A20D0262A1DD1007A0C4662
:1074D000012801D0022817D1A0780521401CB0FB5B
:1074E000F1F201FB1201204600F01DF800280BD03C
:1074F000A16B002908D0BDE810400847C27B012AD3
:1075000002D18088A1F8240410BD0C46002184F823
:107510002E148088B4F824148842F5D120790028EC
:10752000F2D10121DFE72DE9F05F044600780F4634
:1075300098B1A7700025C4F82654A4F82A5484F8FA
:107540002C54A079012608B1012F09D0E07980B12F
:10755000012F05D0022F03D00BE00820BDE8F09FDB
:10756000616B21B184F82D640820884701E084F81C
:107570002D5404F2274100200A5C0AB1304603E092
:10758000401C0628F8D300204FF002084FF0030BF0
:10759000012F06D0022F0CD0032F0FD0042F15D1AE
:1075A00010E0A17929B194F8241011B908B130463E
:1075B0000DE0E17911B108B1404608E0207A08B148
:1075C000584604E0607A08B1042000E02846A07024
:1075D000616B41B1032801D0042804D1607910B156
:1075E00094F82E0498B184F82F5404F13C0018212B
:1075F0000746FEF724FF84F83C6004F12C0003F0FA
:10760000AFFA58B194F82C0084F8510008E084F8DF
:10761000305484F82F6407208847E6E784F85160E7
:1076200094F8240058B104F1280003F099FA20B12D
:1076300094F8280084F8520001E084F8526084F83D
:107640005050A27804F2264104F582694FF0060AF0
:10765000052A64D2DFE802F07C030F22420084F89E
:107660003160C4F82054C4E9101584F83C808020AF
:10767000A4F8480055E084F8318094F82420384676
:1076800012B10722027001E080F800B0228A8281E4
:10769000C4F820544160E168B96042E06069B860B4
:1076A000208BB88194F824003D460028204602D063
:1076B00084F83CA001E084F83C6003F0FDFF50B189
:1076C00085F814800421204601F027F838BB0521F5
:1076D00084F8311021E084F831B01EE0E069B86030
:1076E000208CB88194F824003D460028204602D022
:1076F00084F83CA001E084F83C6003F0DDFF48B171
:1077000085F814800421204601F007F838B984F880
:1077100031A002E0042084F83100C4F82094A0785D
:1077200078B13A4604F15400D4F8201472DF0028EE
:107730007FF414AF94F8301094F8540073DF0028ED
:10774000F6D1616B11B194F831008847002005E74C
:1077500084F83150F5E7000070B5040012D00146FE
:107760001C221448FEF752FE1248134D0560206893
:1077700050B17ADF002806D120680168296040688E
:10778000686005E00E2070BD0B487BDF0028FAD151
:1077900008484FF6FF711438084A20F8041B0549C1
:1077A000343901600021FFF735FC0028EBD00320BD
:1077B00070BD00000C4F0020242D002051B60200A7
:1077C00010B5044600F006F808B1204610BD14209C
:1077D00010BD0000142801D3002070470146014865
:1077E00001F0DFBA2C4F0020F8B52D4C0026ADF883
:1077F0000060207800284AD0A0782A4DE8B1B5F87A
:10780000D200ADF80000A3886A46294604F11C00A6
:1078100000F086FA13283AD008280ED005280CD09C
:1078200028B121A240F2E911FEF7F6FC05E0BDF80F
:107830000010E0680844E060A67005F1D2071E4819
:1078400002F085FA002822D1A07800281FD100225A
:107850001449194802F034FA002818D1B5F8D200BA
:10786000ADF800000E48A3883A460E491C3000F0DF
:1078700057FA082809D0132807D0052805D038B1B1
:1078800009A240F20221FEF7C7FC0120A070F8BD5A
:10789000BDF80010E0680844E060A670CFE7000083
:1078A000E02C00203C3400202E2E5C2E2E5C2E2E50
:1078B0005C6D61696E2E6300A4C402007CB5054650
:1078C00008880C460930904201D90C207CBD6846DE
:1078D0006DDF0028FAD121880820685420881B21F8
:1078E000401C80B2208029542088401C80B2208017
:1078F0002844DDF801100160BDF805108180208862
:10790000801D80B220809DF80010490800D0012120
:1079100029542088401C208000207CBD7CB5018833
:107920003E4E3F4D0446212957D01ADC3D483E4A81
:107930001029A0EB02004FEAD0004FF0030202EB47
:1079400000401DD0112934D0132945D100231A46F7
:107950008521A8887FDF00283ED034A24FF494719F
:1079600045E03B2951D0522944D0562934D1808852
:10797000132176DF00282FD02CA24FF49E7136E021
:107980002EA101F0BFFFA188A9802F4801F070FB54
:1079900020B126A24FF48271FEF73EFC30680090C1
:1079A000A08869468FDF002816D020A24FF4867188
:1079B0001DE000242C7025A101F0A4FF4FF6FF70FC
:1079C000A880B068FFF778FB20B118A24FF48A7145
:1079D000FEF722FCEC606C617CBD70680190A088B1
:1079E00001A98FDF0028F7D010A24FF49171FEF7A4
:1079F00013FC7CBD00231A461946A888B1DF002875
:107A0000F7D00AA24FF49771F1E78088132176DF4F
:107A10000028EED005A240F23511E8E7C4B7020015
:107A2000E02C002070C4020008C402002E2E5C2E40
:107A30002E5C2E2E5C6D61696E2E6300436F6E6E40
:107A40006563746564000000282F00204469736337
:107A50006F6E6E65637465640000000010B51A4CAB
:107A60000188606810290ED011292BD1401E60605A
:107A700028D1FFF77BF9002824D02168002921D0E4
:107A8000BDE810400847D0B900210122084600F0A7
:107A900045FA08B107280FD107220221012000F082
:107AA0003DFA08B1072807D104220221002000F086
:107AB00035FA20B1072802D0216801B188476068F3
:107AC000401C606010BD00001C2D00202DE9F04717
:107AD00001883B4E40F2F3194FF6FF7510291BD079
:107AE00011293ED0122954D0502946D1C188F2899B
:107AF000841D914241D1618902293ED18688304658
:107B000000F094FE050038D004F10C0000F0DFF91D
:107B1000A8B3294630464EE0C17B87880446012938
:107B20002BD1A846284600F081FE050017D02F80F3
:107B300000202872234843464A460168C5F80A10C7
:107B40004068C5F80E0004F1100105F10A0000F0CC
:107B5000E4FE6872F08900280FD129462AE004204B
:107B600013E0808800F062FE040006D06068FFF732
:107B7000A3FA08B103F0FEF92580BDE8F087FFE71E
:107B80006868FFF799FA0028F7D0BDE8F04703F0DE
:107B9000F1B987880646384600F048FE0400ECD06C
:107BA0002B464A4606F1080104F10A0000F0B5FE32
:107BB000607221463846BDE8F04700F0A9BB0000DE
:107BC0000C4F0020242D00202DE9F04F044686881C
:107BD0000188434897B0834610290CD0112952D010
:107BE000103019296CD01A2976D1217A0C09042C6D
:107BF0004FD301224EE03A4D083DA868C0430B9098
:107C000069680BA801F0EEF80B990CA800F010FBC6
:107C10002C220CA96846FEF7F9FB0027E946A84686
:107C200010E000BF09EB47005FF00005B0F804A0CA
:107C300008EB85005146001D01F0A8F86D1C1E2DB3
:107C4000F6D37F1C0098B842ECD8142E07D317B097
:107C5000F021BDE8F04F23A20420FEF7DDBA314643
:107C6000584601F0A9F8314608F1040001F0A4F8E3
:107C7000E07B012830D017B03146BDE8F04F1848FE
:107C8000001D01F099B817B03146BDE8F04F01F082
:107C90007DB80022314600F03BFD032C01D30122C8
:107CA00000E000220E4831460C3000F031FD022C7D
:107CB00001D3012200E0002209483146083006E0E5
:107CC000217A002908D1617AC1F3C002314617B088
:107CD000BDE8F04F00F01CBD17B0BDE8F08F00000C
:107CE000304F00202E2E5C2E2E5C2E2E5C2E2E5C15
:107CF0002E2E5C2E2E5C636F6D706F6E656E7473CE
:107D00005C626C655C636F6D6D6F6E5C626C655F11
:107D1000636F6E6E5F73746174652E6300000000A4
:107D2000F0B585B016460F4604001D4614D004AACF
:107D300019466069FFF72EFA00280BD1A5F57F40A0
:107D4000FF380BD0049848B1007848B13088F42847
:107D500008D9072005B0F0BD0E20FBE70520F9E7A4
:107D60000820F7E700200090019002900390A0887F
:107D7000ADF8000001208DF80200CDE902676946E8
:107D80002846AEDFE6E7000070B5334D04008EB044
:107D90002DCD08AE86E82D005BD0E9B30868A06160
:107DA000214608A862DF002851D1207801258DF8EE
:107DB0003200ADF83050A21C0CA92846A8DF0028DC
:107DC00045D120216846FEF73AFB0220ADF80000BD
:107DD00020788DF802008DF80C509DF80D00F426E7
:107DE000ADF8046040F00C008DF81150ADF806506D
:107DF0008DF80D008DF81250608804F10C02694670
:107E000000F020F9002822D120216846FEF717FB58
:107E10000320ADF8000000E01BE020788DF80200A0
:107E20008DF80C509DF80D008DF81150ADF80460E0
:107E300040F010008DF81250ADF806508DF80D008E
:107E40008DF813506088221D694600F0FBF80EB0D3
:107E500070BD0E20FBE7000048B9020030B587B0C6
:107E60000446002925D0002C23D00846218810295B
:107E700021D0502925D057291BD10546A18840691A
:107E80006A46FFF787F9002813D100980078002888
:107E90000FD0182101A8FEF7D2FA01208DF80400B6
:107EA0000295A088ADF80C0000980490A96901A87B
:107EB000884707B030BD07B02146BDE8304002F02A
:107EC0000DBD07B02146BDE8304002F0E7BD0078A7
:107ED00000F001007047000008B502F05FF920B122
:107EE0000D4A40F24911FEF797F9002000906946CB
:107EF000012001F0CFFF20B1074A40F24D11FEF7FB
:107F00008BF9684602F05EF8002804D0024A4FF46C
:107F1000A871FEF781F908BD9CA8020070B5002386
:107F2000042810D20D4D00EB4004012A02D1012992
:107F30000CD00022094E00EB4000304461B1012911
:107F400006D0022906D00723184670BD0E30C2B2F3
:107F50002A55F9E74270F7E78270F5E7C84E00202E
:107F60002DE9F8430546C61C00208DF80000904618
:107F70000F464FF001096846FFF7CEF81B4C20680A
:107F80003860D4E90001401AA16804F21C47081ABD
:107F90000EE00121384600F01FFF00F0EDFC014625
:107FA000384600F019FFD4E90001401AA168081A08
:107FB000401C8642EDD8B8F1000F03D0052065F3D0
:107FC000891002E0062065F39F50A26821681140E5
:107FD00004EB8101C8602068304420609DF80000F7
:107FE000FFF7BEF84846BDE8F88300007856002049
:107FF00070B50D4604460A2902D10D21FFF7F8FF9E
:10800000A0682268411CA1601554D4E90101814295
:1080100004D32046BDE8704001F03BB970BD0000BC
:10802000034803C8814201D10120704700207047F6
:10803000785600200249084490F93000704700004B
:10804000B84F00202DE9F0438146887891B09046E2
:108050000C4600B901208DF83E002088ADF83C00A8
:1080600000250095607C694602F0F8FF6E46A07C12
:10807000711C02F0F3FFE07B00289DF8020002D0A3
:1080800040F0080001E020F008008DF80200217C9B
:1080900011B140F0100001E020F010008DF8020056
:1080A000217B11B140F0010001E020F001008DF8CA
:1080B0000200217D09B1022100E0012161F34200AB
:1080C0008DF802001C2102A8FEF7B9F9607BC106F9
:1080D00001D4800617D50E950EAFE07C791C02F016
:1080E000BDFF9DF83800079720F00F00401C20F0DE
:1080F000F00010308DF838009DF83A0020F00600AE
:10810000801C8DF83A00607B8DF80800A07B8DF80C
:108110000900142109A8FEF792F90FA8CDE9090674
:10812000A088ADF83000A06820B1E088ADF82C0040
:10813000A0680D90A06998B301950088ADF8100073
:10814000A06901AD01A94088ADF81200A06940689E
:1081500006950390A069007B02F080FFA069691C6E
:10816000407B02F07BFFA069807A00289DF8060022
:1081700002D040F0080001E020F008008DF8060071
:10818000A169C97A11B140F0100001E020F010009F
:108190008DF80600A169097A19B140F0010002E0EA
:1081A0000DE020F001008DF80600A169897B09B17E
:1081B000022100E0012161F342008DF80600E06930
:1081C00000B10590434609AA02A94846AADF11B0AA
:1081D000BDE8F08370B5084C050009D01034216863
:1081E000002907D008682060496828468847F6E7D4
:1081F0000834F4E770BD0000A44F0020054A0121B7
:1082000020B1012805D19170FFF7E4BF5170002023
:10821000FAE77047A44F002010B5D0E90234D1E945
:108220000220D11AA04101D3012010BD002010BDB1
:1082300073B58CB00646002000900D9880B10024E4
:108240006D4621460DA800F0ACFD30B1009805EB5D
:10825000400084800098401C0090641C142CF0D3D3
:108260002C2269463046FEF7D1F80EB070BD2DE9DC
:10827000F04117880646B81D14460D46984202D9AB
:108280000C20BDE8F0813188072206290AD34FF47B
:10829000486C4FF6FF73614501D9994202D170884D
:1082A000062801D21046ECE7604501D99842F9D181
:1082B000994203D0984201D08142F3D80520E85575
:1082C00020881221401C80B2208029542088401C24
:1082D00080B220804119308803F05AF9218808447F
:1082E00080B220804119708803F052F92188084437
:1082F00020800020C5E7000001A2D221FDF78CBF3D
:108300002E2E5C2E2E5C2E2E5C6D61696E2E63000F
:1083100038B54A7A0F4B62B100220A7259690029B6
:1083200006D001228DF80020ADF80200684688478B
:1083300038BD0A7A62B19B684C68024619462046ED
:10834000FEF7A2FE0028F3D0BDE8384002F012BECE
:108350005B68F1E70C4F002070B504464AF2010556
:108360004FF6FF7000220CE0A35C58400023C607C4
:1083700002D085EA500000E040085B1C082BF6D3D1
:10838000521C8A42F0D370BD70B588B006460020FA
:1083900005900690ADF81410ADF8161001900290FB
:1083A00001AA05A9304690DF050021D001F0FAFFAF
:1083B0000346114811493246401AC108012000EB1A
:1083C000014004460E4901F0A8FABDF8042012B994
:1083D000BDF8060028B1BDF80630204609A101F01D
:1083E0009CFABDF808201AB12046164901F08EFA11
:1083F00008B0284670BD000008C4020008C402008E
:1084000060BC02005468652072657175657374659F
:10841000642054582F5258207061636B6574206C2F
:10842000656E67746820697320746F6F206C6F6E5F
:10843000672062792025752F2575206F6374657418
:10844000732E0000ACBC020010B50021024800F001
:10845000D4FC80F3100010BD945A00204FF48032F9
:108460008A400168C1F848230068C0F808237047B3
:108470004FF4A07202EB810189B200F02CB92DE912
:10848000F04105460E464FF4A07000EB860081B225
:1084900028684FF48034B440984622F07F47C0F8F3
:1084A00008432868C0F84843286801F0E3FC2868BE
:1084B00000EB8600C0F840752868C0F84443B8F166
:1084C000000F02D02868C0F80443BDE8F0810068BE
:1084D000D0F804057047000070B54379224C44F889
:1084E00023204279241D04EBC202204B1579204A37
:1084F0009A1AD3082DB10824022000EB03401DA1D5
:108500002EE002680D88C2F8085590F90420897899
:10851000002A4FEA411106DA02F00F0202F1E022CE
:1085200082F8141D03E002F1E02282F8001490F9B1
:108530000410012201F01F0502FA05F5490989001E
:1085400001F1E021C1F80051417904EBC1010A7148
:10855000417944F831000320002400EB03400EA1D0
:1085600001F0D0F9204670BD882D002058C40200CB
:1085700008C4020052544320696E7374616E6365CF
:1085800020616C726561647920696E697469616CDF
:10859000697A65642E0000005254433A20696E697E
:1085A0007469616C697A65642E00000090F90400BA
:1085B000012100F01F0291404009800000F1E020FD
:1085C000C0F8001270470A46022100F07BB84FF451
:1085D000827100F080B80068012101607047006876
:1085E0000121416070472DE9F05F07460C464FF4CA
:1085F000A07000EB84001FFA80FA38684FF48036D0
:10860000A6409B4622F07F45C0F848633868C0F812
:1086100008633868D0F8048500EB8402D2F84095EE
:10862000C2F840855146386801F024FCA9EB0800E7
:1086300020F07F40012806D1102001F007FF5146AD
:10864000386801F017FC3868D0F80485C0F8446336
:10865000A5EB080121F07F413868012900EB840077
:1086600010D0C0F840553868D0F804156FF07F4C32
:108670006A1A521E22F07F42ACEB0B03934217D3CF
:1086800062B118E06D1CC0F84055102001F0DEFE0C
:108690003868D0F8040540450AD10CE000EB8400AE
:1086A0006D1CC0F840553868D0F80405884202D0E7
:1086B0000D20BDE8F09F01223146384600F002F857
:1086C0000020F6E70368C3F84413002A02D00068CC
:1086D000C0F80413704710B5006842581AB101F091
:1086E000C9FB012010BD002010BD826883881A409C
:1086F00003689A5C0A708168491C81607047C2688F
:1087000083881A4003689954C168491CC160704746
:108710000AB100F051BB00F039BB70B50D460446FC
:10872000B0F81414D0F810040122FEF718FE00B1BE
:10873000057004F13C0204F5826104F1540072DF1B
:1087400070BD00000C484A8883889A4213D10A8879
:10875000A2F52063773B0ED18988C91E8AB2C280F8
:10876000064807491346401AC008032101EB0040A0
:1087700004A101F0D2B87047E02C002070C40200C0
:1087800008C4020044617461206C656E2069732026
:1087900073657420746F203078255828256429006B
:1087A00010B50C490C4800F0A9FB20B10BA24FF406
:1087B000B371FDF731FDF721074800F093FB002866
:1087C00006D0BDE8104005A240F26911FDF724BDB6
:1087D00010BD000045870200142F00202E2E5C2EB5
:1087E0002E5C2E2E5C6D61696E2E630010B50B48F9
:1087F000FFF76DFE094A083AD2E90434C018D2E9FD
:10880000063244F10001C31A71EB020204D24FF0A8
:108810008072801841F1000110BD0000502D002031
:1088200001480068704700000415014001460348F4
:1088300002888A4200D0002070470000F84E0020D5
:108840002DE9FC5F0E008346DDE90C47C6F1000010
:1088500098469246814600D40846012503E000BFB1
:1088600090FBFAF06D1C5045FADAA84500D9454650
:1088700024B1002E01DB780700D5641EB80702D5AD
:10888000B8F1000F0AD0F80708D13CB1A54205D2D3
:1088900020215846641EFFF7ABFBF6E7002E02DAF4
:1088A0004E462D2102E0780703D52B215846FFF7CD
:1088B0009FFB07F0030002280BD1B8F1000F08D18D
:1088C0003CB1A54205D230215846641EFFF790FB0B
:1088D000F6E7CDE90047434652463146584602F096
:1088E0005DFEBDE8FC9F024600201268530713D5C9
:1088F00002F00300012802D002280CD105E0C2F3E7
:1089000083100B68C01C184404E00323086803EBC1
:1089100092521044086001207047F0B58488A51871
:10892000944200D82246A41AC288D6189A4200D887
:108930001346D21A4B880788BB420CD34088834227
:1089400009D88888A04206D3A84204D8C888904293
:1089500001D3B04201D90020F0BD0120F0BDF721C4
:10896000018017214180002101714171FB2181713A
:108970001B21C171704700002DE9FF4100262348EB
:1089800000F027FA2148001F074600F022FA204C89
:1089900060680090A56800E000986946284004EBF4
:1089A00080000C30FFF79FFF0028F5D101AA009945
:1089B00001EA050304EB8303491CDB6842F820301D
:1089C000401C00910328F2D3019800F00300012815
:1089D0000BD0022810D10198032101EB905000998F
:1089E000BDF80A6001EB900005E00198BDF80A604F
:1089F000C0F3831008440090384600F0E7F908B14E
:108A00000098606004B03046BDE8F081905A0020C4
:108A10007856002088B002F0ADFB02F07BF94FF4ED
:108A20008041434800F0E8FF20B1424A40F2BF11C4
:108A3000FDF7F2FB00F040FEFEF7F8FA18B13D4AF0
:108A40006821FDF7E9FB01F005F920B1394A4FF43F
:108A5000E271FDF7E1FBFFF73FFA002400940620E6
:108A6000ADF8000050200194ADF80200ADF80440CC
:108A70004FF4C870ADF8060068467ADF18B12D4A89
:108A80007421FDF7C9FBFFF78BFE2B48019001A96C
:108A90002A4800F0F8FA18B1264ABA21FDF7BCFBC3
:108AA0002748009069462748FFF76EF918B1214A18
:108AB000C221FDF7B1FBFEF775F91C216846FDF7F1
:108AC000BEFC4FF4A03001904FF4F0200290032040
:108AD0008DF80C0001208DF810001B4805901B48F4
:108AE0000690ADF80E406846FEF736FE18B1114A02
:108AF000E121FDF791FB114803210C30FEF713FD36
:108B000020B10C4A4FF4E971FDF786FB02F028FC16
:108B10000F4801F025F908B9FDF7D6FDFEF764FE10
:108B200000F0D8FD0028F3D101F0A8F8F0E700002C
:108B3000218802009CA80200419E0200282F0020EC
:108B400021A80200FC2C0020ADA80200F98202003E
:108B5000A4C4020070B5144682880E4605462088DB
:108B6000111D0144921C994201D8FE2A01D90C2002
:108B700070BD521C32542088FF21401C80B22080DE
:108B800031542088401C80B220808119288802F04E
:108B9000FFFC2188084480B22080AA8842B1A968DD
:108BA00041B13044FDF732FC2088A9880844208078
:108BB000002070BD072070BD2DE9F047C5881E1D3F
:108BC000B6FBF5F78946B6FBF5F1044605FB176CD5
:108BD000407916686843DDF820A0F718001F874227
:108BE00000D9C61A166001E02468491E0029FBD18D
:108BF000A5EB0C078846B74216D818E004EB0C002A
:108C0000001D09EB0803BAF1000F3A4602D00146F5
:108C1000184600E01946FDF7F9FB2468F61B4FF0F3
:108C2000000CB844B54201D9374600E02F46002E6B
:108C3000E4D1BDE8F087000030B5024651B100F044
:108C400001FF0021074C08E034F821301568AB42E1
:108C500002D11160002030BD491C8142F4D30520AF
:108C600030BD000000000000F8B50F460178144642
:108C70000546012901D1687830B12088821C9A42CA
:108C800032D8012902D006E00720F8BD69780144F6
:108C9000891C994228D8181A801E86B2ADF8006047
:108CA0002188B81C084469467DDF0028EDD1297869
:108CB000022904D06878BDF80020904205D3BDF8A1
:108CC0000000B04201D809200AE00820012905D19E
:108CD0006978B14202D8ADF8001001E0ADF800604B
:108CE000BDF80010FE2901D90C20F8BD2288491CCE
:108CF000B9542188491C89B2218078542088401CAD
:108D00002080BDF80010084420800020F8BD10B578
:108D100031B1B2FBF3F403FB14241CB1092010BDE4
:108D20000E2010BD01600021416081608281C381FD
:108D3000084610BD70B50C460546FDF77BFA0028C5
:108D400002D021882868084470BD10B50A88498877
:108D50008A4203D1FDF7B0FA012010BD002010BDFA
:108D600070B50C460546FDF78AFA002802D06188E6
:108D70002868084470BD10B50A8849888A4203D122
:108D8000FDF774FA012010BD002010BD01F01F0393
:108D900001229A40D243490900EB8100114600F0BC
:108DA00021B84A0950F8220001F01F020121914028
:108DB000084000D00120704701F01F0301229A40B3
:108DC000490900EB8100114600F01CB8002100F0B9
:108DD0000FB8012100F016B808B56A46FDF7C1FAD0
:108DE000009808BD08B56A46FDF7A1FA009808BDCD
:108DF00008B56A46FDF79BFA08BD08B56A46FDF757
:108E00007DFA08BD08B56A46FDF784FA009808BDEA
:108E100008B56A46FDF7B2FA009808BD38B50446B1
:108E200000258DF800506846FEF776F921686268E3
:108E3000086890420ED9401E08600178238AE268D3
:108E400001FB0325227A2168101AC0B20A798242F6
:108E500000D208719DF80000FEF782F9284638BD5F
:108E600038B5054600208DF800000C466846FEF730
:108E700053F9E868298A201AB0FBF1F12A681068D2
:108E8000431C136001709DF80000FEF769F938BDBE
:108E900010B530B1017A42680368891AC9B21A6004
:108EA00006E00E2010BD03681A68541C1C60117087
:108EB000491EC9B2F7D2006800210171084610BDF1
:108EC000C20800F007030120895C98400840704701
:108ED00010B5C20800F00703885C01249C402043C1
:108EE000885410BD28B1A1F11702E12A03D307204D
:108EF00070470E20704701800020704710B560B1A8
:108F00000161F72120F8021B20F8021BFB2100F869
:108F1000021BFFF724FD002010BD0E2010BD000035
:108F2000F0B5858893B00C46002D39D10188002614
:108F30003F4F24293BD006DC102909D011290CD041
:108F4000232958D14FE03A290BD0552953D129E094
:108F50000146204601F0F8FC4DE0A01DFFF7FFFCA4
:108F600049E02246408934F8061F814200D808466D
:108F70006080172800D217206080106970B1607976
:108F800060B1D7E90001CDE90301ADF80E5060886A
:108F9000ADF81000136903A9104698476671267151
:108FA00013B0F0BD0146204601F022FD23E0011D73
:108FB0002C2206A8FDF72AFABDF81800BDF81C20DF
:108FC00004EBC0014A732269AAB1D7E90423CDE9B1
:108FD0000423ADF81200487B8DF814002269204666
:108FE00004A9904707E0017A207B884200D201461D
:108FF0002846FFF7C9F9A07A0028D1D0E188284691
:10900000A5DF012580B11128CAD001F0CBF90246B5
:109010000848094913B0401AC00805EB0040BDE8F4
:10902000F04006A100F072BCA672E572B8E700003D
:1090300030B9020008C4020008C4020073645F6211
:109040006C655F67617474635F65786368616E67A0
:10905000655F6D74755F726571756573742829201D
:1090600072657475726E65642025732E00000000B1
:1090700020B10278DE2A03D0082070470E20704706
:1090800041800020704760B159B10278DE2A0AD0D1
:1090900009684160DE2101704FF6FF7141800020B8
:1090A00070470E207047082070477FB5054600299D
:1090B0004DD0002D4BD008780C46DE2847D1A8882B
:1090C0006188884202D1204602F002FB28880128EC
:1090D00025D002283BD011283AD0512837D135F875
:1090E000040F6188884232D1A978A81C02292ED1A8
:1090F000017A042903D0062901D0052927D10021AE
:10910000009102228DF8002001914FF4C07202916B
:109110000391ADF80420007A05280FD010E0297AD9
:109120002046012913D1A988428891420FD10121FB
:10913000017204B0BDE8704002F0CABAADF8041084
:1091400028886946B0DF002801D0616888477FBD64
:10915000A88861888842FAD14FF6FF7060807FBD91
:1091600000F180400068002800D00120704708B559
:1091700000F18040002101600068009008BD0000FF
:1091800070B50B4C207808B185250FE00020A06059
:1091900060602061E060074801F03AF9054601F09F
:1091A00049F808B901F01EF901202070284670BD69
:1091B000A44F0020FD81020038B500258DF8005035
:1091C0006846FDF7A9FF074CE068401EE060E068D4
:1091D00010B901F02DF9A5709DF80000FDF7C0FF52
:1091E00038BD0000A44F00202DE9FF411C46037844
:1091F000164D174E45F823200C3545F82340F0CE88
:109200008DE8F0000C788DF800404C788DF8014026
:109210008C788DF80240CC788DF803400C798DF86D
:1092200005404C798DF806408C6802940C7B8DF8D3
:109230000C40497B8DF80D1002B1064A6946001DAD
:1092400001F03AF904B0BDE8F08100008850002038
:1092500060B90200D1B1020030B40378054CE35C80
:109260001BB130BC001D01F077BA30BC0C3001F0EE
:109270000FBA00002C2D00200FB408B50399002967
:1092800004D004AA00926A4600F00FF801B05DF81D
:1092900014FB10B582680446002A05D0D4E9040303
:1092A000216898470020A06010BD2DE9FC47914639
:1092B0000C00804676D014F8011B39B125290ED058
:1092C0004046FEF795FE20780028F4D198F80C006F
:1092D000002867D04046BDE8FC47FFF7DABF002012
:1092E000012221782B291BD02D2902D0302908D129
:1092F00002E040F0010001E040F00200641C002A9E
:10930000EFD100252A290ED02178A1F130020A2AB6
:1093100011D205EB850201EB4205641C303DF1E7FB
:1093200040F00400EAE7D9F800100B1DC9F800303E
:109330000968641C0D44217800232E290BD114F8F0
:10934000011FA1F130020A2A05D203EB830201EBCF
:109350004203303BF3E76C290DD068290BD0692913
:1093600021D00BDC252918D0582931D063290ED003
:10937000642915D117E014F8011FECE7702969D0B2
:10938000732932D075291BD0782909D120E0D9F86A
:109390000000011DC9F8001001784046FEF728FEC4
:1093A000641C90E76CE0D9F800100A1DC9F8002091
:1093B0000968CDE900500A224046FFF741FAEFE77D
:1093C000D9F800100A1DC9F8002009680A2206E031
:1093D000D9F800100A1DC9F8002009681022CDE94B
:1093E0000050404602F0DAF8DAE7D9F8001000271A
:1093F0000A1DC9F800200E68C00705D112E04046DA
:10940000761C7F1CFEF7F4FD31780029F7D104E0CB
:10941000202140466D1EFEF7EBFDBD42C0D9002D58
:10942000F6D1BDE74EB13046FDF714F8074604E02B
:10943000202140466D1EFEF7DBFDBD4206D9002D02
:10944000F6D103E04046761CFEF7D2FD31780029C4
:10945000F8D1A5E7D9F80000011DC9F8001005688A
:1094600030214046FEF7C4FD78214046FEF7C0FD9E
:1094700008200021CDE90001034610222946B0E76B
:10948000BDE8FC8770B541EA4201DDE904564FF0C2
:10949000A04441EA830141EA052104EB800041EA4E
:1094A0000641C0F8001770BD1CB5002100910B46A5
:1094B000012201911146FFF7E5FF1CBD4FF0A042CC
:1094C00002EB8000D0F8002722F44032C0F80027D9
:1094D000D0F8002742EA0141C0F8001770474FF06A
:1094E000A04201218140C2F80C1570474FF0A04204
:1094F00001218140C2F808157047000018B5084BDB
:109500006C4601441B68009306E000BF54F820300D
:10951000D3F81035401C08C28142F7D818BD0000AE
:1095200058B90200034908B50844002101600068E9
:10953000009008BD0060004002494058012800D05A
:10954000002070470060004030B5154A01460020F9
:10955000D2F8104423460AE0DB681D79854205D124
:10956000401C0A28F6DB4FF0FF3030BD1B68002B93
:10957000F2D1431CF9D0CB681871D2F8103443B142
:10958000DB68CC681B682360D2F81024D2681160B5
:1095900030BDC2F81014C96800220A6030BD000056
:1095A000785600207047FDF73BB9704708B5034A6D
:1095B00000924023024A00F005F808BD85AF020082
:1095C00060510020F0B595B01C4615460E46084681
:1095D0001A9F00F01AFB182109A8FCF730FF0E971C
:1095E000CDE9095400230C2203A9304600F022FBE8
:1095F00005980690BDF81000ADF81C00BDF81200EB
:10960000ADF81E0000208DF8210003990C2501F013
:109610000300012802D0022816D02FE0C1F3C200B7
:10962000C1F383178C0A8DF82000BA002B460FA9CE
:10963000304600F0FFFA09A8009006AB3A460FA9A1
:10964000204600F02DFA19E0C1F3C2008C0D8DF810
:109650002000082C01D2274600E008272B463A4676
:109660000FA9304600F0E6FA3D44E41B09AB06AA18
:1096700039460FA800F068F9002CEAD1304600F016
:10968000CAFA15B0F0BD00000A4A012902EBC00079
:1096900007D0022907D0032907D0042907D00020CA
:1096A0007047022070470420704700797047407966
:1096B0007047000008C4020010B5FFF774FF0421D2
:1096C0000348FFF741FF02490120C968487110BDF6
:1096D000F8C302002DE9F04F8DB0FEF7A1FC18B1E0
:1096E00000200DB0BDE8F08F7D4C4FF0000BC4F8AA
:1096F00018B4BFF34F8F60680290A568D846284021
:1097000004EB80000CE000BFD4F8180470B92168A5
:109710000298814201D86160E2E7284004EB8000B2
:109720000C3002A9FFF7DFF80028EDD1002009AACC
:10973000029901EA050304EB8303491CDB6842F844
:109740002030401C02910328F2D3099800F0030155
:10975000022902D001294DD0A8E0810D502289466E
:10976000B2EB905F00D850210F4667F39F500990ED
:109770000C315C4800F000FA060077D000F045FAA2
:1097800043460C2209A9304600F05CFA029908F120
:109790000C0A2940681A8000001D874223D9504DC9
:1097A0000C3530B1C2B204EB8101381A90460C314D
:1097B00004E02946FAB2002590462846C7B253462F
:1097C000304600F03FFA0AEB08032DB13A4629462D
:1097D0004FEA060000F036FA029909F1030001EBA6
:1097E0009000029039E004EB810153463A4630463E
:1097F0000C31EFE7C0F38311062900D3062161F392
:1098000089100990C0F38310C01C8100354800F016
:10981000B3F906004AD000F0F8F943460C2209A932
:10982000304600F00FFA08F10C0800270FE002980C
:10983000434600EA0501401C04EB8101029004222A
:1098400030460C3100F0FEF908F104087F1C09983D
:10985000C0F38310B842EAD846B1D4F81054D4F813
:10986000180478B1304600F0D6F934E01EE0E8681C
:109870004079012804D12A68284631461268904769
:10988000E8680568002DF2D1304600F0C4F98DF883
:1098900000B06846FDF740FCD4F8180408B90298F7
:1098A00060609DF80000FDF75BFC14E0D4F8104404
:1098B00005E02168204689688847E0680468002C34
:1098C000F7D109480949401AC008022101EB0040BC
:1098D00007A100F017F8FEF7A3FB80F0010000E7F6
:1098E0007856002090C4020070C4020008C4020030
:1098F0004261636B656E647320666C757368656442
:109900000000000000231A4601F0DCBC08B501236A
:1099100000926A4601F0D6FC08BD1CB5CDE90023D3
:1099200002236A4601F0CEFC1CBD70B586B00DF175
:10993000280C9CE870008DE87C0005236A4601F045
:10994000C1FC06B070BD00002DE9F0470E46804610
:109950001C469246082940D894F80C9000202073A9
:109960001946104601F024F90025B54206D218F830
:1099700005201BA12046FFF77FFC03E01AA120462B
:10998000FFF77AFC6D1C082DEFD318A12046FFF7D6
:1099900073FC0025B54212D218F805707E2F08D846
:1099A000FCF730FD0068C05D10F03E0F01D03A4674
:1099B00000E02E220EA12046FFF75EFC03E00DA181
:1099C0002046FFF759FC6D1C082DE3D301222146E8
:1099D000504601F0CFF884F80C90BDE8F087000005
:1099E0002025303278000000202020007C0000007C
:1099F000256300002000000070B505001AD00E4C51
:109A0000FF20A060002020606060C4F81804C4F843
:109A1000140484F82004084600F09EF80748C4F8AF
:109A20000C5400F0F6F8002803D1054800F014FAB1
:109A3000002070BD072070BD7856002090C4020041
:109A400028BB020002480349401AC00870470000C2
:109A500090C4020008C4020013B56846FFF7ECF892
:109A600008B100201CBD0248009950F831001CBD0F
:109A700008C4020070B509480125D0F8104480F8E8
:109A8000205407E0E068457121682046496888470E
:109A9000E0680468002CF5D170BD00007856002005
:109AA0002DE9FF4781460C9D00200C462F7B287333
:109AB000984616462946184601F07AF8072E42D2F3
:109AC000DFE806F004090F161F2A3600494628462B
:109AD000FFF7D2FB37E0494628462268FFF7CCFB68
:109AE00031E0D4E9002349462846FFF7C5FB2AE0C8
:109AF000A0680090D4E9002349462846FFF7BCFB44
:109B000021E0D4E90201CDE90001D4E9002349466E
:109B10002846FFF7B1FB16E004F1080007C88DE8FE
:109B20000700D4E9002349462846FFF7A5FB0AE0D1
:109B300004F108000FC88DE80F00D4E9002349465E
:109B40002846FFF799FB00222946404601F012F80B
:109B50002F73BDE8FF870000054A0121054B5160C6
:109B600001E0400849009842FBD8C2E90001704773
:109B7000B82D002040420F002DE9F041058A8046B3
:109B80002D1F4819C01CB0FBF5F0C6B24046FFF7C8
:109B900045F9041E19D00020207101206071E58074
:109BA00000272546761EC4F800800BE04046FFF7EC
:109BB00035F960B16179491C6171286005467F1CE7
:109BC000C0F80080B742F1D32046BDE8F0812046BE
:109BD00000F002F80020F8E72DE9F0414579014650
:109BE0006B1E002201E00968521C9A42FBD30F68E9
:109BF0000146002605E038460C68FFF731F921469A
:109C0000761CAE42F7D3BDE8F0810121001DFFF7BD
:109C1000E3B8FFF73DB910B504460121001DFFF779
:109C2000F7F810F0FF0F04D12046BDE81040FFF711
:109C3000D3BF10BD1CB501920122009201AAFEF70C
:109C4000BBFF1CBD1CB501920022009201AAFEF7C9
:109C5000B3FF1CBD064910B500204870091D0860FF
:109C6000BFF35F8F0349044800F02AFB002010BDBA
:109C7000942D0020C0B902005451002008B50020E6
:109C80008DF800006846FDF747FAF1EE100A20F063
:109C90009F00E1EE100ABFF35F8F08494020C1F832
:109CA00080029DF80000FDF75BFA00F0C3FA08B1EE
:109CB00041DF08BD20BF40BF20BF08BD04E000E079
:109CC0002DE9F8430446002790460E468DF80070B3
:109CD0006846FDF721FA204600F039F838B105272B
:109CE0009DF80000FDF73CFA3846BDE8F88320688F
:109CF0000568B8F1000F05D10168204600F03FF873
:109D000021680860E268012A0CD0022A0ED0042AD9
:109D100011D06068082A13D005FB02013046FCF719
:109D200075FBDDE76068405D3070D9E7606830F84A
:109D300015003080D4E7606850F825003060CFE728
:109D400000EBC501D1E90001C6E90001C8E70168DF
:109D500008684968884201D1012070470020704797
:109D600001680A6849688068884201D9491C00E096
:109D70000021914201D10120704700207047806886
:109D8000884201D9481C7047002070472DE9F843EC
:109D900004464FF000080E468DF800806846FDF737
:109DA000BBF92046FFF7DCFF07000AD0207C40B15A
:109DB0004FF004089DF80000FDF7D2F94046BDE8D9
:109DC000F8832068456841682046FFF7D8FF21687E
:109DD000486037B1206801682046FFF7D0FF21684E
:109DE0000860E268012A14D0022A16D0042A19D089
:109DF000082A1CD06068314605FB0200FCF706FB10
:109E0000204600F07BFF21688A688242D2D28860B7
:109E1000D0E7616830784855F2E76168308821F80A
:109E20001500EDE76168306841F82500E8E7D6E9FC
:109E30000001626802EBC502C2E90001E0E7000030
:109E400001A27921FCF7E8B92E2E5C2E2E5C2E2E75
:109E50005C6D61696E2E630082680021916082688A
:109E60001161826851618268D16082685160806846
:109E70000160704708B5002242504058009008BD6C
:109E800020B1034909680160002070470E20704727
:109E9000ACBB02002DE9FE4307460E460846FFF71D
:109EA000EFFF00287CD100240094019408208DF855
:109EB00000704FF00108ADF8040002948DF80280A4
:109EC00069462020326869DF3649374A891AC9084D
:109ED000012202EB014530B100F064FA0246284647
:109EE0003249FFF713FD00948DF801808DF8024090
:109EF000019402948DF8034069464020326869DF7E
:109F000030B100F04FFA024628462949FFF7FEFC1F
:109F100000948DF80070F720ADF8020001940294CF
:109F200069462320326869DF30B100F03BFA02460F
:109F300028462049FFF7EAFC0094019402948DF82A
:109F4000008069460120326869DF30B100F02AFAEA
:109F5000024628461849FFF7D9FC4FF4B06000903C
:109F6000019402946946A120326869DF30B100F0A3
:109F700019FA024628461149FFF7C8FC00940194DB
:109F800002948DF800406946A020326869DF30B144
:109F900000F008FA024628460949FFF7B7FC0020FE
:109FA000BDE8FE8380C4020008C402004CC2020067
:109FB00094C20200E0C20200ACC10200F8C102007B
:109FC00058C102002DE9F0410546076860DF804670
:109FD00019491A482A68081AC608BA4219D902202B
:109FE00000EB064416A12046FFF78CFC20463A46BB
:109FF0001FA12B68FFF791FC4FF08050D0F80C01A7
:10A000002968800200F10050421A204625A1FFF77E
:10A010007DFCB8F100004FF001040AD000F0C2F955
:10A02000024604EB06402AA1FFF770FC4046BDE85B
:10A03000F0812F480470F9E780C4020008C40200D0
:10A04000496E73756666696369656E742052414D29
:10A0500020616C6C6F636174656420666F7220743C
:10A06000686520536F66744465766963652E0000E9
:10A070004368616E6765207468652052414D2073A6
:10A0800074617274206C6F636174696F6E206672A4
:10A090006F6D203078257820746F20307825782EE9
:10A0A000000000004D6178696D756D2052414D20B2
:10A0B00073697A6520666F72206170706C69636184
:10A0C00074696F6E20697320307825782E00000047
:10A0D00073645F626C655F656E61626C65282920E0
:10A0E00072657475726E65642025732E0000000021
:10A0F000FB2D002030B51748ADF5017D0078002814
:10A1000025D04FF4FA7400BFADF8004280A968462C
:10A1100061DF50B105281AD00DF5017D0EA2BDE812
:10A12000304040F23911FCF777B86D461A497DA8E6
:10A1300000F0C6F807E000BFD0E9002128469047AC
:10A140007DA800F0D4F87F980028DDD0F4E70DF565
:10A15000017D30BDFB2D00202E2E5C2E2E5C2E2E80
:10A160005C2E2E5C2E2E5C2E2E5C636F6D706F6EDF
:10A17000656E74735C736F66746465766963655C41
:10A18000636F6D6D6F6E5C6E72665F7364685F6245
:10A190006C652E6300000000B0BB02007CB5194C5A
:10A1A000207808B108207CBD0120A070002000F0BC
:10A1B000B3FE112819D0002000F0C6FE1248002678
:10A1C000006801908DF800606846FCF7A5FF0F4914
:10A1D00001A810DF05000AD0002020709DF80000C3
:10A1E000FCF7BEFF2DB128467CBD00207CBD0120C0
:10A1F000F3E7A670667000F055FF012000F0A4FEA2
:10A20000F3E70000F82D002044BB0200116E0200AD
:10A210000EB50749684600F053F805E0D0E9001094
:10A220008847684600F063F802980028F6D10EBD12
:10A2300060BB02000148007870470000F82D002044
:10A240001FB568464BDF40B1052816D004B00BA2FD
:10A25000BDE810406B21FBF7DFBF184901A800F0F3
:10A260002FF806E0D0E900210098904701A800F0FF
:10A270003EF803980028E4D0F4E71FBD2E2E5C2E94
:10A280002E5C2E2E5C2E2E5C2E2E5C2E2E5C636F92
:10A290006D706F6E656E74735C736F6674646576F3
:10A2A0006963655C636F6D6D6F6E5C6E72665F7324
:10A2B00064685F736F632E6300000000CCBB020014
:10A2C000016009684160AFF3008010B5D0E900215A
:10A2D0005368994201D1002104E0D1E90034A3423E
:10A2E00002D01946816010BD08314160F0E78168F5
:10A2F00000290BD0026892680A44826041684B686A
:10A300009A4203D108314160FFF7DFBF704770B553
:10A310000D460646446804E0B2682946904718B1E5
:10A32000246820680028F7D120682860256070BD67
:10A3300040680068704741680868002801D00268DA
:10A340000A60704702460020526806E08B4203D143
:10A3500008681060012070471A461368002BF5D179
:10A3600070474058002800D0012070470C4A10B5B3
:10A3700002F594730EE0991AC91001EBD1714910DE
:10A3800002EBC1010C68844201D90B4602E005D200
:10A3900001F108029A42EED3002010BD486810BDBA
:10A3A000E0B9020000B5FFF7E1FF002800D1014845
:10A3B00000BD0000CCB902004058002800D00120A8
:10A3C000704708B5002242504058009008BD4058E0
:10A3D000002800D00120704708B5002242504058A4
:10A3E000009008BD08480068012110F0010F06D157
:10A3F0004FF0E020C02280F80024C0F8001103498B
:10A40000012008607047000000E100E018050040EE
:10A410000649024600200B790BB1852070470A607F
:10A4200001220A7100224A7170470000382D002075
:10A4300004490120086004480168C1F30041002973
:10A44000FAD170470C00004018040040002802D0E8
:10A45000014980010847704791B902000121B1EB21
:10A46000507F01D101207047002070470121B1EBDE
:10A47000507F01D1012070470020704738B50D464C
:10A4800000F030FC040014D000208DF80000684675
:10A49000FCF742FE207928B19DF80000FCF760FE31
:10A4A000112038BD0120256020719DF80000FCF7C7
:10A4B00057FE002038BD00002DE9FC470C4615462C
:10A4C00001798046574A01EBC10002EB80069946AC
:10A4D000307F10B10820BDE8FC87534AD8F800004F
:10A4E000074652F82110FFF7C9FF08B11120F2E723
:10A4F000C6E90059207B0128207802D8FEF7EFFF3B
:10A5000001E0FEF7F3FF4FF0000ACDF800A0CDF810
:10A5100004A02078534652460121FEF7B3FF60782D
:10A520004FF0FF35FF2806D08146FEF7D8FF48469A
:10A53000FEF7BAFF00E0A946A078FF2809D0002264
:10A5400005460123CDF800A01146CDF804A0FEF782
:10A5500099FFA07886F82000E078F077E078FF286F
:10A560000BD0217911B1FEF7BAFF01E0FEF7BEFF73
:10A57000E078FEF799FF2079B0772178C7F80815C1
:10A58000C7F80C95C7F81055A068C7F82405217BBB
:10A59000607B00B10120012904D0022905D00329E4
:10A5A00008D105E040F0020004E040F0040001E0C2
:10A5B00040F00600C7F85405A079C7F8C005306818
:10A5C00010B14020C7F804030720C7F80005306821
:10A5D000012108B3D8F80000627940F30730002861
:10A5E0004FEA421206DA00F00F0000F1E02080F896
:10A5F000142D03E000F1E02080F80024D8F80000DA
:10A6000040F3073000F01F0201FA02F24009800017
:10A6100000F1E020C0F80021504686F81DA03177F7
:10A6200059E70000645000205CB902002DE9F041B8
:10A6300005460F460079154900EBC00001EB800488
:10A640001646607F10B11120BDE8F081206820B16E
:10A6500016F0140F01D10120607797E80F0004F184
:10A660000C0888E80F00E07FFF2806D0A17F11B119
:10A67000FEF73CFF01E0FEF732FF33463A46214643
:10A680002868BDE8F04100F0BFBD00006450002024
:10A690002DE9F05F054600790B4600EB400101EB28
:10A6A000C000244901EB8004284600F045F810B1B1
:10A6B0001120BDE8F09F62614FF00009C4F82090BE
:10A6C000A36084F828904FF48E784E46414628685F
:10A6D000FFF777FE28684FF0010AC0F808A021466E
:10A6E000286800F045FF606808BBD5F800B06769CE
:10A6F0000FE000BF94F8280008B10F2615E041468E
:10A700005846FFF759FE0028F4D02146584600F07D
:10A710002FFF206AB842F2D3574641462868FFF718
:10A720004BFE0028F9D02868C760C4F81490304662
:10A73000BFE7000014500020007900EB400101EB5E
:10A74000C000044901EB80004069002800D00120CE
:10A7500070470000145000202DE9F04704460E46D3
:10A760000079274900EBC00001EB80051746304611
:10A77000FFF774FE30B1204600F044F820B11120FC
:10A78000BDE8F0871020FBE76F61AE604FF4907773
:10A790004FF0000839462068FFF71EFE4FF4AC76F4
:10A7A00031462068FFF718FE2068AA686969C0F87A
:10A7B0004425C0F8481520684FF00109C0F80890FA
:10A7C0006868D0B9BA4651462068FFF700FE0746D0
:10A7D00031462068FFF7FBFD0743F4D010B14FF07E
:10A7E0000F0808E02068C0F80C9031462068FFF799
:10A7F000EEFD0028F9D0002068614046C0E7000067
:10A80000405000200079054900EBC00001EB8000BA
:10A810004069002800D0012070470000405000200F
:10A8200010B50178A1B1012918D002291AD10E4919
:10A8300001200022087081030C488068FCF724FC8A
:10A8400000280FD0BDE8104009A29721FBF7E4BC17
:10A85000818A0069BDE8104000F0FAB9BDE81040F7
:10A86000FCF7C2BF10BD0000E02C0020C4B70200FE
:10A870002E2E5C2E2E5C2E2E5C6D61696E2E63007A
:10A88000002808D133DF04490028886103D003A2DF
:10A89000E721FBF7C1BC7047E02C00202E2E5C2E78
:10A8A0002E5C2E2E5C6D61696E2E63000078002890
:10A8B00009D105483B21808876DF002803D003A218
:10A8C000CC21FBF7A9BC7047E02C00202E2E5C2E7B
:10A8D0002E5C2E2E5C6D61696E2E6300F0B58BB020
:10A8E000002601960D4604468988406901AAFCF7B6
:10A8F00051FC0AA8CDE908600227ADF82070ADF838
:10A9000022602189A88808AAADDF002819D1A06992
:10A91000002816D00998FDF7DAFA002811D0019E18
:10A920000EB101203070182102A8FBF788FD8DF8C8
:10A9300008700394A888ADF810000596A16902A8D4
:10A9400088470BB0F0BD000070B58D88027900EB30
:10A95000C5042273C97BA41D012902D0022904D198
:10A9600001E0008800E040882080218860888142E2
:10A9700011D92846A5DF0126B0B1112816D0FFF75E
:10A9800011FD02460B480C49401AC00806EB004076
:10A990000AA1FEF7BBFFA179E079814208D92846D8
:10A9A000BDE87040FDF7F0BC6671F4E72671F2E790
:10A9B00070BD000008C4020008C4020073645F6236
:10A9C0006C655F67617474635F65786368616E6707
:10A9D000655F6D74755F7265717565737428292084
:10A9E00072657475726E65642025732E0000000018
:10A9F0007CB506468D88C88806EBC504A41D1728BB
:10AA000000D217202188814200D8084660800020AB
:10AA1000207121882846B5DF60B1FFF7C3FC0246EC
:10AA20000F481049401AC008012101EB00400EA157
:10AA3000FEF76CFF6079002810D1306900280DD036
:10AA40001549D1E90201CDE90001ADF80250608855
:10AA5000ADF8040032696946304690477CBD00007D
:10AA600008C4020008C4020073645F626C655F671B
:10AA7000617474735F65786368616E67655F6D7438
:10AA8000755F7265706C7928292072657475726EB5
:10AA900065642025732E000030B90200F0B587B040
:10AAA0000C4605468E1D8988406906AAFCF772FB94
:10AAB00018216846FBF7C3FC0195A088069AADF8FB
:10AAC0000800039231882B89002704F11200994273
:10AAD00002D17389022B0DD0AA8991421ED1A96996
:10AAE00000291BD08DF8007004907089ADF8140017
:10AAF000A96911E0002A11D0FDF7E9F920B1069902
:10AB000001200870022002E00698077003208DF8EB
:10AB10000000A969002901D06846884707B0F0BD48
:10AB200070B50646AA200870BB204870CC208870FB
:10AB3000DD200C46C870002504EB851006EB85115E
:10AB40004022001DFBF762FC6D1C032DF4DBC421C9
:10AB50002046FDF701FC010A04F8C41F607070BDB7
:10AB60000068012803D0022801D00020704701208E
:10AB70007047000010B50C46017A052908D0407ACC
:10AB800038B1084808A102682046FEF775FB00E0CE
:10AB90001AB106A12046FEF76FFB2046BDE8104023
:10ABA000FEF777BBD42D0020257300000D0A0000AE
:10ABB00038B5C3880D46044633B116A0009017A2DD
:10ABC00018A12846FEF758FB217A052920D0607A83
:10ABD00048B1A088FEF758FD184951F8202018A167
:10ABE0002846FEF749FB2846216800F07BFCA08838
:10ABF0000021FEF731FF03461049207A143951F83D
:10AC0000202001B02846BDE830400EA1FEF734BB3D
:10AC100038BD00001B5B306D000000001B5B313B4A
:10AC200033316D0025734C6F67732064726F7070E1
:10AC30006564202825642925730D0A00D42D002081
:10AC4000257300003C25733E2025733A2000000048
:10AC50002DE9F0410F460646002519E0705DFCF72E
:10AC600031FA040013D0112CF8D0104810492246B4
:10AC7000401AC008012101EB00400EA1FEF746FE7C
:10AC80002046BDE8F041164A8321FBF7C5BA6D1C8A
:10AC9000BD42E3D3F01910F8010C0D2804D10A20AD
:10ACA000FCF710FA1128FAD0BDE8F08170C4020058
:10ACB00008C402004661696C656420726563656959
:10ACC00076696E67204E5553206D657373616765B5
:10ACD0002E204572726F7220307825782E00000089
:10ACE0009CA802000349884201D103487047002014
:10ACF0007047000000200040402D002001680A68D5
:10AD00004968914201D3881A70478068801A0844C4
:10AD1000401C7047F0B5D1B0002150ABFF2208466F
:10AD2000FBF7DFFB0023202219461846FBF7F4FB54
:10AD30000023212219461846FBF7EEFB00214FF6AF
:10AD4000FF7326220846FBF7E7FBFBF7A5FB4FF452
:10AD5000A0720F496846FBF759FB352600246D4663
:10AD600004EB440705EB470083888278417815F8A7
:10AD70001700FBF7D1FB641CB442F1D350ABFF22A8
:10AD800001210020FBF7ADFB51B00020F0BD000019
:10AD9000E0B7020070B50546FDF719FC134C40B151
:10ADA000D4E904024FF08071411842F10000C4E977
:10ADB000041000212846FDF75BFB30B1606820B12C
:10ADC000606800F00BFB0020606001212846FDF761
:10ADD0004FFB18B1FDF70AFDC4E90601284600F053
:10ADE00029FB2846BDE8704000F034B8482D00200B
:10ADF00070B5054600200C460870FDF7F7FCD5E954
:10AE00000223101A63EB010300263146361A9941DA
:10AE100012DAB0F5350F03D3FCF7F6F80B494218F8
:10AE20004FF4960300210A48FDF7DDFB10B10D2811
:10AE300006D009E0012070BD00210548FDF70EFB9A
:10AE4000284600F0CBFA2070002070BDFFFFB40050
:10AE5000502D0020F8B51A4C074600261948FFF778
:10AE600067FAD0B1616871B1D0E902106268D2E9C5
:10AE70000232C91A904120D26068007F18B161681F
:10AE80001048FFF744FA00F059F905466946FFF704
:10AE9000AFFF98B1606840B10AE0606800280CD14B
:10AEA0003846BDE8F840FDF79ABB3846FDF793FBFE
:10AEB00065609DF800000028D0D1F8BD6660CDE740
:10AEC000482D002078B9020038B50021012548B18D
:10AED00001280CD0032809D1FFF784FABDE83840D7
:10AEE000FEF76AB94FF0E020C0F8805138BD8DF808
:10AEF00000106846FCF710F9064C207808B9FEF7F8
:10AF00003FF9E068401CE060A5709DF80000FCF788
:10AF100027F938BDA44F00203EB5044609496846CC
:10AF2000FFF7CEF908E000BFD0E9002120469047A6
:10AF300030B16846FFF7DBF902980028F4D13EBD36
:10AF400011203EBD48BB02003EB504460849684694
:10AF5000FFF7B6F907E000BFD0E90021204690478F
:10AF60006846FFF7C4F902980028F5D13EBD0000FD
:10AF700054BB020002498969002900D00847704784
:10AF80000C4F00202DE9F0411400884618D0002510
:10AF90000E4F032608EB050122460020FBF742FC7A
:10AFA0000544241A40B93878002809D008494FF4DC
:10AFB0007A408847761E05D001203870002CE9D1F0
:10AFC000BDE8F08100203870FAE700009C2D0020D9
:10AFD00021BB02002DE9F0410746806A14468846ED
:10AFE000C8B3002531E000BFB96A05EB450001EBAD
:10AFF0008006B088801CFE2802D90C20BDE8F081B4
:10B000002288401C08F8020020881622401C80B2CA
:10B01000208008F800202088401C80B2208000EBAF
:10B020000801308800F0B4FA2188084480B22080FA
:10B03000B28842B1B16871B14044FBF7E7F92088AA
:10B04000B188084420806D1CEDB297F82C00A8420E
:10B05000CAD80020D2E7FFE70720CFE70A78062802
:10B0600022F0FF020A7010D2DFE800F003050709A2
:10B070000B0D002008E0112006E0212004E0312023
:10B0800002E0122000E0222008707047002805D15D
:10B090000349012048700020FDF79CB8704700006C
:10B0A000A44F002010B51620FBF746FEA0B11248B1
:10B0B00090F800044009082811D20121814011F0C4
:10B0C000EC0F0CD00D4882684FF480017AB1016812
:10B0D00041F48001016010BD42F2010001E042F242
:10B0E0000200BDE8104006A2A121FBF795B84FF081
:10B0F000E020C0F8001110BD16E000E0485100202B
:10B100002E2E5C2E2E5C2E2E5C2E2E5C2E2E5C2E79
:10B110002E5C636F6D706F6E656E74735C736F66BB
:10B12000746465766963655C636F6D6D6F6E5C6E8C
:10B1300072665F7364682E63000000000148FFF7C9
:10B14000FAB8000078B9020070B54FF0A0444FF48F
:10B1500080250E46C4F80C5504F5A164FBF718FBD6
:10B160003060256070BD000001490120C870704743
:10B17000E02C00201FB50F4B0FCB8DE80F001220E5
:10B180008DF803001C208DF802001D208DF80100B1
:10B190001E208DF800000023074A69460748FEF785
:10B1A00023F8002804D006A240F2EB21FBF734F884
:10B1B0001FBD000020B9020069B10200D0B7020033
:10B1C0002E2E5C2E2E5C2E2E5C6D61696E2E630021
:10B1D00000B585B00A4601788DF8001041680191EC
:10B1E000017A8DF80810C1680391007C8DF8100079
:10B1F000044850F822100C3850F822206846904736
:10B2000005B000BD945000202DE9F84304461068B5
:10B210001E4615460F464FF0000810B1FFF726F9FD
:10B22000F8B1A86810B1FFF721F9D0B1D5E9000154
:10B23000C4F84405C4F84815D5E90201C4F834053A
:10B24000C4F838154FF48C754046C4F81881D4F80A
:10B2500018110091F2074FF0010107D0C4F8501502
:10B2600006E087F81D801020BDE8F883C4F850057B
:10B27000B20702D5C4F8401501E0C4F84005300714
:10B2800000D42161386848B146F38000401C4FF07B
:10B29000400014D0C4F804030020E5E72946204606
:10B2A000FFF75FF80028F9D0F87FFF28F4D0B97FC6
:10B2B00011B1FEF714F9EFE7FEF718F9ECE7C4F85F
:10B2C0000803E9E72DE9F84F244D924689460746E1
:10B2D0009846012269461846AE68FCF741FE98B3CD
:10B2E000009800210446C01C09E000BF00EA0603E4
:10B2F0005AF8212005EB8303401C491CDA604145C4
:10B30000F4D34FEA174AFDF79FF84AEA0041601C60
:10B31000304005EB8000C160D5F80C048047A11CCB
:10B32000314005EB8101344005EB8402C860D068F0
:10B3300067F3C50068F3891069F39F2020F00300CC
:10B34000401C20F00400D06095F8200402E000BF0B
:10B35000FEF7C0F90028FBD1BDE8F88F7856002031
:10B3600010B5074A01210748FBF754FE002806D014
:10B37000BDE81040044A40F2DB21FAF74DBF10BD92
:10B380008DB30200CCB702009CA8020010B508489B
:10B390000849094C401AC0080321D4E9032301EBF2
:10B3A000004006A1FEF7B9FA00202061E06010BD60
:10B3B00070C4020008C40200E02C00203D3D2A2A8F
:10B3C00053706565643A20256420422F732C6472A3
:10B3D0006F703A25642A2A3D3D00000070B504468E
:10B3E000124800250078F8B1F4B1207FE0B1FDF7F4
:10B3F000FDF9D4E90223801A994110D3206900266F
:10B4000000B92677D4E905108847206960B1217F0B
:10B4100051B1D4E9022110187141C4E90201214659
:10B420000348FEF774FF0125284670BD482D002013
:10B4300078B90200F8B51B4C69462068FDF790FC0E
:10B4400000260127184D29E0017821B101290CD0EF
:10B4500002291BD114E041680A7FBAB90F7741680D
:10B4600010480830FEF753FF10E0416868688142D9
:10B4700001D16E600AE00B480830FEF763FF05E07B
:10B48000FFF75CFE08B10677FAE72F70694620687F
:10B49000FDF75BFC69462068FDF762FC0028D3D10C
:10B4A000F8BD000070B90200482D0020F8B50B4C23
:10B4B0000D46064669462068FDF73CFC58B106700B
:10B4C000456069462068FDF756FC10B10448FDF759
:10B4D0006DF80020F8BD0420F8BD000070B902002E
:10B4E000502D0020FEB51A4A6FF0E0055368B1FBFD
:10B4F000F3F411684FF46162B4FBF1F3B3FBF2F2C1
:10B50000554303EB05153C23B5FBF3F3A3EB0316FF
:10B5100005EB8606B4FBF1F501FB15444FF47A7593
:10B520006543B5FBF1F504EB440C05FB01F7CCEBEF
:10B53000C414C7EBC4044FF47A777C43B4FBF1F135
:10B540000096CDE9015103A1FDF796FEFEBD000076
:10B55000B82D00205B253032643A253032643A251C
:10B560003032642E253033642C253033645D200066
:10B5700070B50C4605464FF48E71FEF722FF216A26
:10B58000A068415C206A401C2062C5F81C1570BD93
:10B590000870000A48700220704700002DE9F05F33
:10B5A0008346DDE90A4A994690460D46084601273A
:10B5B00003E000BFB0FBF8F07F1C4045FAD2B9456C
:10B5C00000D94F465FEACA7012D18CB15FEA8A7027
:10B5D00002D5B9F1000F01D0202607E0302605E0A2
:10B5E00031465846641EFCF703FD0CB1A742F7D361
:10B5F0005FF00106B9F1010F02D9A9F1010903E0D9
:10B60000B5FBF6F0404502D306FB08F6F2E7DFF89B
:10B610003C9000BFB5FBF6F000FB165519F8001082
:10B620005846FCF7E5FCB6FBF8F6002EF2D15FEACF
:10B63000CA7009D0002C07D0A74205D22021584655
:10B64000641EFCF7D5FCF5E7BDE8F09F96B9020053
:10B65000F8B5054680B2FDF7E9F8040013D0154EA1
:10B66000207A0027317B88420ED2A8B204F10A0169
:10B6700075DF28B1112806D0BDE8F840FFF77ABC85
:10B68000207A401C2072F8BD2772307C38B1A8B2F5
:10B690003B2176DF18B1082801D0FFF76BFC7169F8
:10B6A0000029F0D08DF80070ADF802506846884748
:10B6B000F8BD00000C4F0020417939B190F82E14EC
:10B6C00021B990F8300408B101207047002070477C
:10B6D00030B40446007A00280AD06088002166DF72
:10B6E00028B1112802D0616830BC084701202072BF
:10B6F00030BC70472DE9FC411646DDE90854CDE920
:10B7000000541F468046022200F00CF8002807D1A2
:10B71000CDE900543B4610223146404600F002F885
:10B72000BDE8FC812DE9FC5F0026DDE90C4B994664
:10B7300092468E4680462788354630E0D8F8040089
:10B74000002200EB850069460068019001A864DFD3
:10B75000002830D19DF8000050451FD10EB10021C6
:10B7600000E00221228808441118594522D846B920
:10B77000521C90B2208009F800E02088401C2080F4
:10B780000126218801A801EB0902694664DF00282F
:10B7900011D120889DF80010084420806D1CB8F855
:10B7A0000000A842CADC56B12088C01B401E80B2EF
:10B7B000FF2802D90C20BDE8FC9F09F807000020F3
:10B7C000F9E700000202000002020000002E002043
:10B7D00000000000003000400000000001000000F8
:10B7E00000000000C700000001001A050000020070
:10B7F000400000000300800000000400160000006C
:10B800000500170000000600A800000007000A005D
:10B8100000000800FFFF01000A00000001000C000A
:10B82000FFFF00002200E20000002300AA00000049
:10B830002400800000002500004F01002A000000C5
:10B8400001002C00010001002E000000010030006A
:10B85000000001004000FF80010041000080010065
:10B86000420000800100430000800100440000808D
:10B8700001004500008001004600008001004700F3
:10B8800000800100480000800100490000800100A4
:10B890004A00008001004B00008001004C00008045
:10B8A00001004D00008001004E00008001004F00AB
:10B8B0000080010060000080010061000080010044
:10B8C00062000080010063000080010064000080CD
:10B8D0000100650000800100660000800100670033
:10B8E0000080010068000080010069000080010004
:10B8F0006A00008001006B00008001006C00008085
:10B9000001006D00008001006E00008001006F00EA
:10B91000008000002000AAAA00002100FF00000013
:10B92000FFFFFFFF06FF0000000000800000000096
:10B93000770A000000000000770A00000000000005
:10B940007ADA0000000000009ECADC240EE5A9E0BF
:10B9500093F3A3B50000406E000000508168020020
:10B96000FFFFFFFF0006FF00000000400000000096
:10B97000C05000200100060000000000682D0020DB
:10B98000198202000000000000000000000000001A
:10B990000338FDD8704730313233343536373839D3
:10B9A0004142434445460000000000000000000002
:10B9B0000000000000000000000000000000000087
:10B9C000A8B90200C0B9020004000000556E6B6EF9
:10B9D0006F776E206572726F7220636F646500000E
:10B9E000000000007CC002000100000028BF02002F
:10B9F000020000001CBD0200030000009CBF02000A
:10BA000004000000F0BF020005000000D0BE0200EC
:10BA1000060000006CBE020007000000D8BF020054
:10BA200008000000E4BE02000900000048BF020058
:10BA30000A00000064C002000B00000004BD020008
:10BA40000C000000FCBE02000D000000CCC0020093
:10BA50000E000000C8BF02000F00000004C002007A
:10BA60001000000038C0020011000000E0C0020019
:10BA700012000000B4C002001300000050C0020019
:10BA80008000000084BE020081000000C0BD0200F2
:10BA90008200000080BD02008300000060BD020043
:10BAA000840000009CBD020085000000A8BE0200CA
:10BAB00086000000B0BF0200900000004CBE0200F3
:10BAC0009100000040BD02009200000010BF020083
:10BAD0000082000018C002000182000064BF020062
