:020000040002F8
:10600000687E0020E1630200E9630200EB630200A6
:10601000ED630200EF630200F16302000000000084
:10602000000000000000000000000000F363020018
:10603000F563020000000000F7630200F96302004C
:106040003D680200FB630200B96C0200796902003E
:1060500089690200FB63020041660200FB630200E3
:10606000FB630200FB630200FB630200FB630200B0
:10607000FB630200FB630200FB630200FB630200A0
:10608000FB63020009690200FB630200FB6302007C
:10609000FB630200FB63020099690200FB630200DC
:1060A000FB630200FB630200FB630200FB63020070
:1060B000FB630200FB630200000000000000000020
:1060C000FB630200FB630200FB630200FB63020050
:1060D000FB630200FB630200FB63020000000000A0
:1060E00000000000000000000000000000000000B0
:1060F00000000000000000000000000000000000A0
:10610000000000000000000000000000000000008F
:10611000000000000000000000000000000000007F
:10612000000000000000000000000000000000006F
:10613000000000000000000000000000000000005F
:10614000000000000000000000000000000000004F
:10615000000000000000000000000000000000003F
:10616000000000000000000000000000000000002F
:10617000000000000000000000000000000000001F
:10618000000000000000000000000000000000000F
:1061900000000000000000000000000000000000FF
:1061A00000000000000000000000000000000000EF
:1061B00000000000000000000000000000000000DF
:1061C00000000000000000000000000000000000CF
:1061D00000000000000000000000000000000000BF
:1061E00000000000000000000000000000000000AF
:1061F000000000000000000000000000000000009F
:10620000DFF810D000F036F900480047C98B0200D3
:10621000AFF30080687E002000B583B0029000914B
:10622000019244F2010071466A4600F053FE03B049
:1062300000BD000030B450E8012F93B2C48923445C
:106240008489A34228BF1B1B0489A34202BFBFF35A
:106250002F8F002007E0C3EA020340E80134002C3E
:10626000E9D14FF001000A6030BC704750E8012FBF
:10627000C2EA024240E801210029F7D1704730B458
:1062800050E8022F1FFAA2F3C488A34202BFBFF353
:106290002F8F00200DE0C48923448489A34228BFA6
:1062A0001B1BC2EA034340E80234002CE8D14FF044
:1062B00001000A6030BC704750E8022FC2EA224257
:1062C00040E802210029F7D17047034653E8022F26
:1062D000D988B2EB324F4FF0000017BF92B241EABB
:1062E000014142EA014104E05A68B2EB324F08BF73
:1062F000012043E80212002AE8D1704730B4044676
:1063000054E8000F0D4644E80053002BF8D1156007
:1063100030BC704730B4044654E8000F40EA010531
:1063200044E80053002BF7D1156030BC704730B4FF
:10633000044654E8000F00EA010544E80053002B2E
:10634000F7D1156030BC704730B4044654E8000FF4
:1063500080EA010544E80053002BF7D1156030BCFA
:10636000704730B4044654E8000F00EB010544E8E0
:106370000053002BF7D1156030BC704730B4044691
:1063800054E8000FA0EB010544E80053002BF7D1BF
:10639000156030BC704770B404464FF0000054E8FC
:1063A000006F0D68AE4207BF44E80023012044E8B7
:1063B00000630E60002B1CBF0020F0E770BC70472C
:1063C00030B4044654E8000F88422CBF451A0546F5
:1063D00044E80053002BF5D1156030BC7047000035
:1063E0000648804706480047FEE7FEE7FEE7FEE76F
:1063F000FEE7FEE7FEE7FEE7FEE7FEE79D69020037
:1064000001620200004870471CBF020040EA01031D
:106410009B0703D009E008C9121F08C0042AFAD25A
:1064200003E011F8013B00F8013B521EF9D270471E
:10643000D2B201E000F8012B491EFBD270470022C6
:10644000F6E710B513460A4604461946FFF7F0FF73
:10645000204610BD421C10F8011B0029FBD1801AF8
:106460007047034611F8012B00F8012B002AF9D1DF
:1064700018467047064C074D06E0E06840F00103FF
:1064800094E8070098471034AC42F6D3FFF7BCFEFF
:1064900098C60200B8C6020070B58C1810F8015BEF
:1064A00015F0070301D110F8013B2A1106D110F8AD
:1064B000012B03E010F8016B01F8016B5B1EF9D1B1
:1064C0002B0705D40023521E0DD401F8013BFAE737
:1064D00010F8013BCB1A921C03E013F8015B01F8A2
:1064E000015B521EF9D5A142D8D3002070BD10B572
:1064F0004FF0D444122003F0D8F8204600F0CAF937
:10650000122003F0E0F8122003F0CFF84FF0FF3430
:10651000204600F0BFF9122003F0D5F8122003F056
:10652000C4F8204600F0B6F9BDE81040122003F090
:10653000CAB810B54FF0006141EA0044122003F0E0
:10654000B4F8204600F0A6F9122003F0BCF812209F
:1065500003F0ABF84FF0FF34204600F09BF9122017
:1065600003F0B1F8122003F0A0F8204600F092F9F1
:106570000446122003F0A7F8204610BD70B51D4652
:106580004FF0404400B1641009B144F0805444EA33
:106590000244122003F089F8204600F07BF9122013
:1065A00003F091F8122003F080F84FF0FF342046FA
:1065B00000F070F9122003F086F8122003F075F84D
:1065C000204600F067F90446122003F07CF82C8086
:1065D00070BD70B51D464FF0004408B14FF0204427
:1065E00009B144F0805444EA02442C43122003F0E1
:1065F0005CF8204600F04EF9122003F064F81220F7
:1066000003F053F84FF0FF34204600F043F9122016
:1066100003F059F8122003F048F8204600F03AF948
:106620000446122003F04FF84FF6FF70B0EB144F02
:1066300002D1A0B2A84201D0FF2070BD002070BDE1
:106640002DE9F04700268AB0DFF85091B0464FF4AC
:106650008075012437460696284603F061F838B164
:10666000D9F80403204203D0284603F04FF826430C
:106670002D1D64007F1CADB2082FEDD34FF4BE7406
:10668000204603F04DF848B1204603F03FF846F0AD
:10669000004606AA0121002003F024F8404D16F020
:1066A000FF0F15D00127002437420DD009EB8401DC
:1066B000D1F81005D1F81015C0F3042055F82420A6
:1066C000C1F3014102B190477F00641C082CEBD359
:1066D000002E5FDA4FF0FF30CDF8108054E028191B
:1066E00010F8507F90F9000027F0C008401C3BD004
:1066F00007A9404602F0CAFC10B34FEA971940467A
:1067000001F01AFD55F820701FB1B9F1030F03D045
:1067100006E0B9F1030F27D104A9404602F0BEFC00
:106720004FF0A04101EB8800D0F8000706A9C0F3A4
:10673000014A404602F0AAFC18B1BAF1020F03D098
:1067400012E0BAF1030F0FD1B9F1030F08D1BAF17A
:10675000020F1DD00221404602F096FF761CF6B2D1
:1067600017B149464046B847641C042CB7D3002EE5
:1067700010D06A460121002002F0B4FF069900986B
:10678000884207D006900498002634460790A6E772
:106790000321E0E70AB0BDE8F08700000060004098
:1067A000D850002070B590B0D2212048FFF747FEA6
:1067B00040216846FFF743FE1C48402446214638E6
:1067C000FFF73DFE00256E46E8B2FFF7B2FE46F841
:1067D00025006D1C102DF7DB144A2146463A684609
:1067E00004F0D4FA114846380178AA291BD1407820
:1067F000BB2818D10D49A21D463901F5CC60FFF721
:1068000005FE0B48A41D0146A0F8D240094803F03C
:10681000B1FB09490428086205D10878002802D094
:106820008869401C886110B070BD00004E2E0020A9
:106830006834002064C70200E02C002070B54FF4DB
:106840008076304602F072FD114CB50560B13046DD
:1068500002F073FD0120C5F80803607920B901201A
:1068600060712168002088474FF48276304602F03C
:106870005DFD00280AD0304602F05FFD0220C5F819
:1068800008032168BDE870400120084770BD000082
:10689000402D00207FB51649040E030C0C70020A2F
:1068A0004B708A70C870A1F10C040020E0700422C3
:1068B0000B1D15468DE82E000E480022694603F098
:1068C000A9FF20B10CA240F26121FFF7A5FCE078FE
:1068D0000028FCD00648001DC178027801EB026157
:1068E00042788078120402EB002004B0084470BDA6
:1068F000EC2C0020D4BB02002E2E5C2E2E5C2E2E03
:106900005C6D61696E2E630002490248091F0968C7
:1069100000680847942D002000F0D4B970B50E46E9
:10692000144900EB400001EBC0051446E86A183535
:1069300020B101280FD0022805D113E0284600F02D
:10694000F5F9A04201D2002411E022463146284642
:1069500000F024FA0BE0284600F0E8F9A042F4D257
:106960000446F2E73146284600F0EBF9044620469B
:1069700070BD0000E05B00200149024802F083B8CE
:10698000845100200030004002494FF0402002F0C6
:106990007AB80000A851002003F02EBDF0B5B5482C
:1069A0000023021D0178101D01254FF08054062997
:1069B0000BD11678360708D10678C6F30316032ED6
:1069C00006D0042E04D0052E02D0062907D00EE0F2
:1069D000B4F82463A84FC6F304263E6002E016789C
:1069E000360704D10678C6F30316032E02D0062913
:1069F00004D00FE0A24FA14E7E670EE01678360756
:106A000008D10678C6F30316032E06D0042E04D050
:106A1000052E02D0062907D00EE0D4F84462994F23
:106A2000C6F342363E6002E01678360704D1067897
:106A3000C6F30316032E02D0062906D011E0924EAB
:106A4000376827F0807737600EE01678360708D170
:106A50000678C6F30316032E06D0042E04D0052EA6
:106A600002D006290AD011E04FF08046C6F80C315A
:106A7000C6F81031834E361F336002E016783607B1
:106A800004D10678C6F30316032E02D0062905D0DA
:106A90000CE07C4F032664373E600AE01678360728
:106AA00004D10678C6F30316032E02D006290DD0B2
:106AB00014E0764F05263E60744E78363560734E8E
:106AC000083633603F263F1D3E6002E016783607E9
:106AD00004D10678C6F30316052E02D0062957D036
:106AE00062E06B4E36686B4F3E60694E361D36680D
:106AF0003F1D3E60664E083636683F1D3E60644E60
:106B00000C3636683F1D3E60614E103636683F1DBC
:106B10003E605F4E143636683F1D3E605C4E183650
:106B200036685C4F20373E60594E1C3636683F1D34
:106B30003E60574E203636683F1D3E60544E243628
:106B400036683F1D3E60524E283636683F1D3E6017
:106B50004F4E2C3636683F1D3E604D4E30363668FF
:106B60004C4F40373E604A4E343636683F1D3E60DB
:106B7000474E383636683F1D3E60454E3C363668D7
:106B80003F1D3E60424E403636683F1D3E6002E08B
:106B90001678360708D10678C6F30316032E06D0FA
:106BA000042E04D0052E02D0062907D019E0D4F80F
:106BB0005812394A01F04F01116002E011780907BB
:106BC0000FD10078C0F30310032803D0042801D0AC
:106BD000052806D131480168C90702D06FF00101CC
:106BE0000160D4F83001062808D1D4F83401062811
:106BF00004D12B48016841F4806101602248743857
:106C0000016841F470010160BFF34F8FBFF36F8FD4
:106C10004FF01021D1F80002002803DBD1F8040264
:106C2000002822DA1F4A15601F480468002CFCD097
:106C30001524C1F800420568002DFCD0C1F80442BB
:106C400001680029FCD0136001680029FCD0BFF363
:106C50004F8F0D48F0380168144A01F4E061114388
:106C60000160BFF34F8F00BFFDE712491048086075
:106C7000F0BD0000E00F00F0403501400DF0ADBA6E
:106C800000C007403C050040FCED00E0105600400D
:106C90000404001020C50040E40E00400004004041
:106CA0003C17004004E5014000E401400400FA05FF
:106CB0000090D003042E0020014800680047000027
:106CC000482D002010B5124C02202061606111A0F7
:106CD000A06104F17800E0614FF4007020620020B0
:106CE000A06260620BA1A164E06204F51E71E16420
:106CF0001021A065C4E91410E06509A1E01DFFF7AB
:106D0000B0FB08A12046FFF7ACFB2020A07110BD0E
:106D1000E05B00205465726D696E616C00000000DC
:106D20005254540053454747455200000269C16818
:106D30008A4203D88068401A104400E0501A401E6E
:106D400070472DE9F047C4681746894606464FF05C
:106D500000083069A04201D9051B02E0B168201A81
:106D60000D1AB0686D1E001BA84200D80546BD4232
:106D700000D33D4670682A4620444946FFF746FB4B
:106D8000B0687F1B2C44A844A944A04200D1002431
:106D9000F460002FDDD14046BDE8F0872DE9F041D9
:106DA00004468846D4E90207C51BE16860681646B8
:106DB0000844B54206D94146FFF728FBB819E06000
:106DC000BDE8F0812A464146FFF720FB761B08EB21
:106DD000050132466068FFF719FBE660F0E702E064
:106DE00008C8121F08C1002AFAD170477047002056
:106DF00001E001C1121F002AFBD1704701212028A8
:106E000003DA81400548014003E0402802DA2038D7
:106E1000814009B10120704700207047FC06FFBD8A
:106E200090F82400012801D01F207047EE20704701
:106E300010B501220221002001F0F2F808B1072864
:106E400010D107220221012001F0EAF808B1072839
:106E500008D100210A22084601F0E2F808B107280B
:106E600000D1002010BD000000B5ABB0AC216846D9
:106E7000FFF7E5FA02208DF8000000208DF80200EF
:106E800005208DF803000120ADF84C008DF87C0042
:106E90000C4940201491229044F2506023900A48FB
:106EA00029906946094800F0EFFA20B1084A4FF4EA
:106EB000F771FFF7B1F90121044800F0E2FA2BB0B5
:106EC00000BD0000E82C0020E9AA020034300020B8
:106ED00008AB0200FEB515460E46074672B602F034
:106EE000BDFE00BF02F0EAFC0028FBD12249234A84
:106EF0000120891AC90800EB0144012F23D06FF447
:106F00008050381822D0B0F5405F24D06FF4405143
:106F1000C84206D12B88204619A16A6802F0F1FD0B
:106F200004E0204632461DA102F0E4FD214800683D
:106F3000C00700D000BE2A4603B031463846BDE83F
:106F4000F04000F079B820461BA101E0204622A1C4
:106F500002F0CCFDEAE7A86803F018FB0346D5E988
:106F60000001CDE900100296204624A1AA6802F093
:106F7000D0FD20462BA1EBE730C70200C8C60200B7
:106F8000415353455254494F4E204641494C454484
:106F90002061742025733A2575000000554E4B4E34
:106FA0004F574E204641554C54206174203078256F
:106FB00030385800F0ED00E0534F465444455649F0
:106FC00043453A20415353455254494F4E20464180
:106FD000494C454400000000534F4654444556492F
:106FE00043453A20494E56414C4944204D454D4F6A
:106FF0005259204143434553530000004552524FDC
:1070000052202575205B25735D2061742025733A1D
:1070100025750D0A50432061743A203078253038A8
:1070200078000000456E64206F66206572726F7292
:10703000207265706F72740008B501238DF80030FE
:107040009DF80030144B186059609A606FF48041CD
:10705000401807D001280FD1DA60D86800889861FD
:10706000D86807E01A611869806858611869006873
:10707000986118694068D861186858689868D86835
:10708000186958699869D86972B600BF9DF8000000
:107090000028FBD162B608BDE451002010B582681B
:1070A000C368934203D001F0A2FB002010BD05206D
:1070B00010BD10B58268C3689A1A83889A4203D8B3
:1070C00001F09FFB002010BD042010BD014801F01D
:1070D00080BA0000582D00203AB1006801294261B1
:1070E00000D0002101610020704707207047000098
:1070F00038B5114808235822416800910F490068AB
:1071000001F0EBFE002815D10D4A69460D4801F04B
:1071100065FA04000ED101210A4801F0D6FA0123D4
:10712000094A1946074801F02CFA06490120083996
:107130000870204638BD000034BC02001452002004
:10714000B9B10200582D0020FFFF7F0070B5044642
:10715000007F0D4608B1002070BDA26101F0FCFB6C
:10716000401941F10001C4E90201206900B1256123
:107170002146BDE87040002004F098BB0146002085
:107180000877012004F092BB10B501461048FFF7C4
:1071900090FF040019D10F480F4A0178515C19B1D2
:1071A000001D03F023FC02E00C3003F0B9FB60B9D2
:1071B000084907480839FFF771FF30B9054901222E
:1071C0000839044802F02EF90446204610BD00009C
:1071D0007C5200207C2D0020342D002030B5EFF3B0
:1071E000108172B60D4A9468012324B103700029FE
:1071F00000D162B630BD93604FF0E023D3F88051E8
:10720000074C25401560C3F88041D3F88441546091
:107210005A17C3F8842100220270E8E78C5200203C
:10722000FC06FFBD0B498A68002A11D000280FD147
:10723000EFF3108072B60B684FF0E022C2F8003115
:107240004B68C2F8043100228A60002800D162B67F
:10725000704700008C52002070B51500044609D01C
:107260000020286034B1206820B1A079800703D0C5
:10727000072070BD0E2070BD084600F003FBC0B2B1
:10728000142804D02179814203D8042070BD052040
:1072900070BDE288216800FB02102860002070BDEC
:1072A0002DE9FC47002517880646158090F82D002B
:1072B0001446894630B13A462146484600F060FB04
:1072C000051E09D1B0784FF00C0A18B32088C846C3
:1072D000001DB84202D95046BDE8FC87684679DFF8
:1072E0000028F9D12088032108F8001020881921EE
:1072F000401C80B2208008F800102088401C80B21A
:10730000208000EB0801BDF8000004F041FB21885B
:1073100008442080F0780222C8B1218896F9033011
:1073200001F1030C4846BC45D5D8425421884FF0A2
:10733000010C491C89B2218000F801C02188491C38
:1073400089B2218009F801302088401C20807068B3
:10735000B8B1218890F9003001F1030C4846BC45D2
:10736000B9D8425421880A22491C89B2218042544A
:107370002188491C89B2218009F801302088401CED
:107380002080308950B1CDE900474B4606220221CA
:1073900006F1080004F0AEFB051E9DD1308A50B105
:1073A000CDE900474B460722032106F1100004F007
:1073B000A1FB051E90D1308B50B1CDE900474B4663
:1073C0001522142106F1180004F094FB051E83D148
:1073D000306A30B13B462246494600F0CAFF051EDE
:1073E000DBD1706A30B13B462246494601F098FC39
:1073F000051ED2D196F82C0038B13B4622464946AC
:10740000304603F0F9FF051EC7D1307838B13B464E
:1074100022464946304601F00DFD051EBDD12846E5
:107420005AE718B504460020ADF8000013466A4636
:10743000204600F006F8002802D0BDF800002044E5
:1074400018BD70B5C8B1C2B10024158803E0065D4F
:10745000641C3444A4B2A54203D8061976789E422F
:1074600001D08C42F3D38C4207D2005DA31C401E96
:107470009BB280B21C188C4201D9002070BD1380D1
:1074800070BD80F8301070472DE9F0410D000446C2
:1074900006D02CB195F87A000026012803D006E02A
:1074A0000E20BDE8F08195F89800012829D0D5F884
:1074B000A000042825D0D5F89C00042821D04FF046
:1074C0000108A6702C2205F17801201DFEF79EFF11
:1074D00084F83060D5F8A4006063D5F8A800A063F4
:1074E0004FF6FF70A4F8240404F58260C4F8200469
:1074F000C4F82664A4F82A6484F82C64207810B1B7
:1075000004E00720CDE7FF2084F8540004F155077C
:107510002046C4F81074FFF783FCA4F8140404F2A6
:10752000144239462846FFF7BBFE0028B9D104F2C1
:107530003120C4F818042046FFF772FCA4F81C049C
:1075400004F21C4205F13C00D4F81814FFF7A8FE21
:107550000028A6D184F85180208BA4F8480084F834
:107560003C80266484F85060606900216064454670
:1075700004F13C02781E72DF002892D1257090E75A
:1075800010B50288102A1BD0112A20D0262A1DD11E
:10759000007A0C46012801D0022817D1A0780521D5
:1075A000401CB0FBF1F201FB1201204600F01DF877
:1075B00000280BD0A16B002908D0BDE81040084777
:1075C000C27B012A02D18088A1F8240410BD0C4698
:1075D000002184F82E148088B4F824148842F5D150
:1075E00020790028F2D10121DFE72DE9F05F044680
:1075F00000780F4698B1A7700025C4F82654A4F867
:107600002A5484F82C54A079012608B1012F09D0FE
:10761000E07980B1012F05D0022F03D00BE00820C4
:10762000BDE8F09F616B21B184F82D640820884784
:1076300001E084F82D5404F2274100200A5C0AB1CD
:10764000304603E0401C0628F8D300204FF0020823
:107650004FF0030B012F06D0022F0CD0032F0FD0B9
:10766000042F15D110E0A17929B194F8241011B993
:1076700008B130460DE0E17911B108B1404608E0AB
:10768000207A08B1584604E0607A08B1042000E08E
:107690002846A070616B41B1032801D0042804D1B1
:1076A000607910B194F82E0498B184F82F5404F145
:1076B0003C0018210746FEF7C2FE84F83C6004F146
:1076C0002C0003F081FB58B194F82C0084F8510091
:1076D00008E084F8305484F82F6407208847E6E7F0
:1076E00084F8516094F8240058B104F1280003F0A4
:1076F0006BFB20B194F8280084F8520001E084F874
:10770000526084F85050A27804F2264104F5826950
:107710004FF0060A052A64D2DFE802F07C030F224C
:10772000420084F83160C4F82054C4E9101584F88C
:107730003C808020A4F8480055E084F8318094F81B
:107740002420384612B10722027001E080F800B010
:10775000228A8281C4F820544160E168B96042E025
:107760006069B860208BB88194F824003D460028F9
:10777000204602D084F83CA001E084F83C6004F08C
:107780009BF950B185F814800421204601F047F898
:1077900038BB052184F8311021E084F831B01EE0B7
:1077A000E069B860208CB88194F824003D46002838
:1077B000204602D084F83CA001E084F83C6004F04C
:1077C0007BF948B185F814800421204601F027F8A0
:1077D00038B984F831A002E0042084F83100C4F8FC
:1077E0002094A07878B13A4604F15400D4F82014DB
:1077F00072DF00287FF414AF94F8301094F854002E
:1078000073DF0028F6D1616B11B194F8310088471D
:10781000002005E784F83150F5E7000070B504005A
:1078200012D001461C221448FEF7F0FD1248134DF9
:107830000560206850B17ADF002806D12068016811
:1078400029604068686005E00E2070BD0B487BDF52
:107850000028FAD108484FF6FF711438084A20F87A
:10786000041B0549343901600021FFF735FC00286D
:10787000EBD0032070BD00002C5000202C2D0020E8
:1078800051BA020010B5044600F006F808B12046CF
:1078900010BD142010BD0000142801D30020704733
:1078A0000146014801F063BB4C500020F8B52D4C57
:1078B0000026ADF80060207800284AD0A0782A4D34
:1078C000E8B1B5F8D200ADF80000A3886A462946B1
:1078D00004F1240000F086FA13283AD008280ED0CC
:1078E00005280CD028B121A240F22921FEF794FCF2
:1078F00005E0BDF80010606908446061A67005F1FC
:10790000D2071E4802F017FB002822D1A0780028D9
:107910001FD100221449194802F0C6FA002818D1D4
:10792000B5F8D200ADF800000E48A3883A460E49DB
:10793000243000F057FA082809D0132807D005286A
:1079400005D038B109A240F24221FEF765FC0120C2
:10795000A070F8BDBDF80010606908446061A670B1
:10796000CFE70000E02C00203C3500202E2E5C2EBE
:107970002E5C2E2E5C6D61696E2E630064C7020062
:107980007CB5054608880C460930904201D90C2088
:107990007CBD68466DDF0028FAD121880820685434
:1079A00020881B21401C80B2208029542088401C44
:1079B00080B220802844DDF801100160BDF8051078
:1079C00081802088801D80B220809DF800104908A9
:1079D00000D0012129542088401C208000207CBD3B
:1079E0007CB501883E4E3F4D0446212957D01ADC14
:1079F0003D483E4A1029A0EB02004FEAD0004FF06C
:107A0000030202EB00401DD0112934D0132945D1C7
:107A100000231A468521A8887FDF00283ED034A2A3
:107A200040F2491145E03B2951D0522944D0562912
:107A300034D18088132176DF00282FD02CA240F289
:107A40005D1136E02EA102F051F8A188A9802F48DF
:107A500001F0F4FB20B126A240F22511FEF7DCFB79
:107A600030680090A08869468FDF002816D020A2D9
:107A700040F22D111DE000242C7025A102F036F8F3
:107A80004FF6FF70A880B068FFF778FB20B118A20E
:107A900040F23511FEF7C0FB6C61EC617CBD706893
:107AA0000190A08801A98FDF0028F7D010A240F232
:107AB0004311FEF7B1FB7CBD00231A461946A88886
:107AC000B1DF0028F7D00AA240F24F11F1E7808819
:107AD000132176DF0028EED005A24FF4AB71E8E762
:107AE000C4BB0200E02C002030C70200C8C6020060
:107AF0002E2E5C2E2E5C2E2E5C6D61696E2E630028
:107B0000436F6E6E6563746564000000283000206A
:107B1000446973636F6E6E65637465640000000092
:107B200010B51A4C0188606810290ED011292BD18C
:107B3000401E606028D1FFF77BF9002824D021681F
:107B4000002921D0BDE810400847D0B9002101220A
:107B5000084600F065FA08B107280FD10722022174
:107B6000012000F05DFA08B1072807D104220221A4
:107B7000002000F055FA20B1072802D0216801B199
:107B800088476068401C606010BD0000242D002004
:107B90002DE9F04701883B4E40F2F3194FF6FF758F
:107BA00010291BD011293ED0122954D0502946D17A
:107BB000C188F289841D914241D1618902293ED157
:107BC0008688304600F0E8FE050038D004F10C004D
:107BD00000F0DFF9A8B3294630464EE0C17B878824
:107BE000044601292BD1A846284600F0D5FE050001
:107BF00017D02F8000202872234843464A46016848
:107C0000C5F80A104068C5F80E0004F1100105F12E
:107C10000A0000F05DFF6872F08900280FD1294644
:107C20002AE0042013E0808800F0B6FE040006D0AD
:107C30006068FFF7A3FA08B103F0AEFB2580BDE84A
:107C4000F087FFE76868FFF799FA0028F7D0BDE8EA
:107C5000F04703F0A1BB87880646384600F09CFE3B
:107C60000400ECD02B464A4606F1080104F10A0054
:107C700000F02EFF607221463846BDE8F04700F064
:107C8000C9BB00002C5000202C2D00202DE9F04F06
:107C9000044686880188434897B0834610290CD053
:107CA000112952D0103019296CD01A2976D1217A95
:107CB0000C09042C4FD301224EE03A4D083DA86830
:107CC000C0430B9069680BA801F072F90B990CA8DE
:107CD00000F030FB2C220CA96846FEF797FB00272A
:107CE000E946A84610E000BF09EB47005FF0000539
:107CF000B0F804A008EB85005146001D01F02CF9F6
:107D00006D1C1E2DF6D37F1C0098B842ECD8142EA3
:107D100007D317B0F021BDE8F04F23A20420FEF7EF
:107D20007BBA3146584601F02DF9314608F104007E
:107D300001F028F9E07B012830D017B03146BDE8CA
:107D4000F04F1848001D01F01DB917B03146BDE8CD
:107D5000F04F01F001B90022314600F05BFD032C29
:107D600001D3012200E000220E4831460C3000F021
:107D700051FD022C01D3012200E0002209483146C6
:107D8000083006E0217A002908D1617AC1F3C002E7
:107D9000314617B0BDE8F04F00F03CBD17B0BDE86C
:107DA000F08F0000505000202E2E5C2E2E5C2E2EC8
:107DB0005C2E2E5C2E2E5C2E2E5C636F6D706F6EB3
:107DC000656E74735C626C655C636F6D6D6F6E5C29
:107DD000626C655F636F6E6E5F73746174652E6352
:107DE00000000000F0B585B016460F4604001D46A1
:107DF00014D004AA19466069FFF72EFA00280BD1A7
:107E0000A5F57F40FF380BD0049848B1007848B101
:107E10003088F42808D9072005B0F0BD0E20FBE714
:107E20000520F9E70820F7E7002000900190029074
:107E30000390A088ADF8000001208DF80200CDE984
:107E4000026769462846AEDFE6E7000070B5334DAD
:107E500004008EB02DCD08AE86E82D005BD0E9B3CE
:107E60000868A061214608A862DF002851D1207867
:107E700001258DF83200ADF83050A21C0CA928461F
:107E8000A8DF002845D120216846FEF7D8FA022055
:107E9000ADF8000020788DF802008DF80C509DF8A8
:107EA0000D00F426ADF8046040F00C008DF8115080
:107EB000ADF806508DF80D008DF81250608804F171
:107EC0000C02694600F040F9002822D120216846C2
:107ED000FEF7B5FA0320ADF8000000E01BE02078C3
:107EE0008DF802008DF80C509DF80D008DF81150A2
:107EF000ADF8046040F010008DF81250ADF8065057
:107F00008DF80D008DF813506088221D694600F031
:107F10001BF90EB070BD0E20FBE7000008BC02008C
:107F200030B587B00446002925D0002C23D0084660
:107F30002188102921D0502925D057291BD1054649
:107F4000A18840696A46FFF787F9002813D1009895
:107F5000007800280FD0182101A8FEF770FA012040
:107F60008DF804000295A088ADF80C0000980490EC
:107F7000A96901A8884707B030BD07B02146BDE810
:107F8000304002F0E1BD07B02146BDE8304002F0CC
:107F9000BBBE007800F00100704700001FB502F082
:107FA000F1F920B11A4A40F26D11FEF735F90024BB
:107FB00069460120009402F061F820B1144A40F2B1
:107FC0007311FEF729F901940294039401248DF8AA
:107FD000044002208DF8060001A92220009A69DFE2
:107FE00058B102F0D3FA02460A480B49401AC008B9
:107FF00004EB0040094901F07DFD684602F0D6F827
:10800000002804D0024A4FF4C271FEF705F91FBDE3
:1080100008AB020030C70200C8C6020020BF020041
:1080200070B50023042810D20D4D00EB4004012A46
:1080300002D101290CD00022094E00EB400030444F
:1080400061B1012906D0022906D00723184670BD68
:108050000E30C2B22A55F9E74270F7E78270F5E7B1
:10806000E84F00202DE9F8430546C61C00208DF896
:10807000000090460F464FF001096846FFF7AEF842
:108080001B4C20683860D4E90001401AA16804F252
:108090001C47081A0EE00121384600F083FF00F06B
:1080A00045FD0146384600F07DFFD4E90001401A45
:1080B000A168081A401C8642EDD8B8F1000F03D021
:1080C000052065F3891002E0062065F39F50A26841
:1080D0002168114004EB8101C860206830442060B1
:1080E0009DF80000FFF79EF84846BDE8F8830000C1
:1080F000BC57002070B50D4604460A2902D10D2157
:10810000FFF7F8FFA0682268411CA1601554D4E96C
:108110000101814204D32046BDE8704001F09FB9BF
:1081200070BD0000034803C8814201D1012070479F
:1081300000207047BC5700200249084490F93000E5
:1081400070470000D85000202DE9F0438146887820
:1081500091B090460C4600B901208DF83E00208871
:10816000ADF83C0000250095607C694603F088F975
:108170006E46A07C711C03F083F9E07B00289DF81B
:10818000020002D040F0080001E020F008008DF865
:108190000200217C11B140F0100001E020F010003D
:1081A0008DF80200217B11B140F0010001E020F0C8
:1081B00001008DF80200217D09B1022100E00121BA
:1081C00061F342008DF802001C2102A8FEF737F986
:1081D000607BC10601D4800617D50E950EAFE07CFA
:1081E000791C03F04DF99DF83800079720F00F0037
:1081F000401C20F0F00010308DF838009DF83A0057
:1082000020F00600801C8DF83A00607B8DF8080095
:10821000A07B8DF80900142109A8FEF710F90FA81A
:10822000CDE90906A088ADF83000A06820B1E0884B
:10823000ADF82C00A0680D90A06998B30195008856
:10824000ADF81000A06901AD01A94088ADF8120099
:10825000A069406806950390A069007B03F010F9BF
:10826000A069691C407B03F00BF9A069807A0028A3
:108270009DF8060002D040F0080001E020F0080060
:108280008DF80600A169C97A11B140F0100001E033
:1082900020F010008DF80600A169097A19B140F0AC
:1082A000010002E00DE020F001008DF80600A16958
:1082B000897B09B1022100E0012161F342008DF8C0
:1082C0000600E06900B10590434609AA02A94846A4
:1082D000AADF11B0BDE8F08370B5084C050009D0E5
:1082E00010342168002907D00868206049682846B2
:1082F0008847F6E70834F4E770BD0000C45000205A
:10830000054A012120B1012805D19170FFF7E4BF92
:1083100051700020FAE77047C450002010B5D0E932
:108320000234D1E90220D11AA04101D3012010BDAD
:10833000002010BD73B58CB00646002000900D984B
:1083400080B100246D4621460DA800F010FE30B12A
:10835000009805EB400084800098401C0090641C4D
:10836000142CF0D32C2269463046FEF74FF80EB09D
:1083700070BD2DE9F04117880646B81D14460D461C
:10838000984202D90C20BDE8F081318807220629E5
:108390000AD34FF4486C4FF6FF73614501D99942F7
:1083A00002D17088062801D21046ECE7604501D959
:1083B0009842F9D1994203D0984201D08142F3D832
:1083C0000520E85520881221401C80B220802954C5
:1083D0002088401C80B220804119308803F0D8FAF0
:1083E0002188084480B220804119708803F0D0FAB7
:1083F0002188084420800020C5E7000001A2ED216B
:10840000FDF70ABF2E2E5C2E2E5C2E2E5C6D616950
:108410006E2E630038B54A7A0F4B62B100220A72A1
:108420005969002906D001228DF80020ADF802001C
:108430006846884738BD0A7A62B19B684C68024634
:1084400019462046FEF782FE0028F3D0BDE83840EA
:1084500002F0A2BF5B68F1E72C50002070B5054622
:108460004FF6FF7000224AF201040BE0AB5C58406B
:108470000023C6074FEA500000D060405B1C082B69
:10848000F7D3521C8A42F1D370BD000070B588B09A
:108490000646002005900690ADF81410ADF81610B1
:1084A0000190029001AA05A9304690DF050021D075
:1084B00002F06CF80346114811493246401AC108CF
:1084C000012000EB014004460E4901F01AFBBDF803
:1084D000042012B9BDF8060028B1BDF806302046C8
:1084E00009A101F00EFBBDF808201AB1204616497B
:1084F00001F000FB08B0284670BD0000C8C60200AD
:10850000C8C6020068BF02005468652072657175B4
:1085100065737465642054582F5258207061636BE2
:108520006574206C656E67746820697320746F6F62
:10853000206C6F6E672062792025752F2575206F5E
:1085400063746574732E0000B4BF020010B500217F
:10855000024800F038FD80F3100010BDD85B002009
:108560004FF480328A400168C1F848230068C0F89F
:10857000082370474FF4A07202EB810189B200F02A
:108580002CB92DE9F04105460E464FF4A07000EBE2
:10859000860081B228684FF48034B440984622F0B7
:1085A0007F47C0F808432868C0F84843286801F0AE
:1085B00055FD286800EB8600C0F840752868C0F8B3
:1085C0004443B8F1000F02D02868C0F80443BDE866
:1085D000F0810068D0F804057047000070B5437959
:1085E000224C44F823204279241D04EBC202204B84
:1085F0001579204A9A1AD3082DB10824022000EBDD
:1086000003401DA12EE002680D88C2F8085590F9BC
:1086100004208978002A4FEA411106DA02F00F029D
:1086200002F1E02282F8141D03E002F1E02282F858
:10863000001490F90410012201F01F0502FA05F55B
:108640004909890001F1E021C1F80051417904EBA9
:10865000C1010A71417944F831000320002400EB84
:1086600003400EA101F042FA204670BD902D00207B
:1086700018C70200C8C6020052544320696E7374C2
:10868000616E636520616C726561647920696E69F1
:108690007469616C697A65642E0000005254433A33
:1086A00020696E697469616C697A65642E000000E6
:1086B00090F90400012100F01F0291404009800060
:1086C00000F1E020C0F8001270470A46022100F0D5
:1086D0007BB84FF4827100F080B80068012101601E
:1086E000704700680121416070472DE9F05F07463F
:1086F0000C464FF4A07000EB84001FFA80FA386833
:108700004FF48036A6409B4622F07F45C0F8486370
:108710003868C0F808633868D0F8048500EB840234
:10872000D2F84095C2F840855146386801F096FC71
:10873000A9EB080020F07F40012806D1102001F0AD
:1087400079FF5146386801F089FC3868D0F8048513
:10875000C0F84463A5EB080121F07F413868012986
:1087600000EB840010D0C0F840553868D0F80415EC
:108770006FF07F4C6A1A521E22F07F42ACEB0B0363
:10878000934217D362B118E06D1CC0F84055102019
:1087900001F050FF3868D0F8040540450AD10CE0DC
:1087A00000EB84006D1CC0F840553868D0F8040513
:1087B000884202D00D20BDE8F09F012231463846A4
:1087C00000F002F80020F6E70368C3F84413002A1B
:1087D00002D00068C0F80413704710B50068425812
:1087E0001AB101F03BFC012010BD002010BD8268D1
:1087F00083881A4003689A5C0A708168491C81600A
:108800007047C26883881A4003689954C168491C3C
:10881000C16070470AB100F0B5BB00F09DBB70B5F8
:108820000D460446B0F81414D0F810040122FEF7E7
:10883000F8FD00B1057004F13C0204F5826104F119
:10884000540072DF70BD00000EB515A19DF8080040
:1088500020F00F00401C20F0F00010308DF80800D0
:108860000B2202A87CDF18B1104A7B21FDF7D4FC53
:108870000020009001900621ADF80400ADF8001032
:108880004FF4C8700C21ADF80600ADF80210684630
:108890007ADF002803D0054A8521FDF7BDFC0EBD17
:1088A0004E6F726469635F554152540008AB020019
:1088B0000C484A8883889A4213D10A88A2F520631B
:1088C000773B0ED18988C91E8AB2C2800648074903
:1088D0001346401AC008032101EB004004A101F037
:1088E00010B97047E02C002030C70200C8C6020053
:1088F00044617461206C656E206973207365742017
:10890000746F2030782558282564290010B50C494B
:108910000C4800F0D9FB20B10BA240F29F11FDF7EB
:108920007BFCF721074800F0C3FB002806D0BDE818
:10893000104005A24FF4D171FDF76EBC10BD0000D0
:10894000B1880200143000202E2E5C2E2E5C2E2EBC
:108950005C6D61696E2E630010B50B48FFF739FE40
:10896000094A083AD2E90434C018D2E9063244F17F
:108970000001C31A71EB020204D24FF0807280181A
:1089800041F1000110BD0000582D00200148006891
:1089900070470000041501400146034802888A42DE
:1089A00000D0002070470000185000202DE9FC5F27
:1089B0000E008346DDE90C47C6F10000984692465A
:1089C000814600D40846012503E000BF90FBFAF081
:1089D0006D1C5045FADAA84500D9454624B1002E51
:1089E00001DB780700D5641EB80702D5B8F1000F87
:1089F0000AD0F80708D13CB1A54205D2202158463B
:108A0000641EFFF777FBF6E7002E02DA4E462D21B3
:108A100002E0780703D52B215846FFF76BFB07F0E0
:108A2000030002280BD1B8F1000F08D13CB1A542D8
:108A300005D230215846641EFFF75CFBF6E7CDE90E
:108A40000047434652463146584602F0A7FFBDE86C
:108A5000FC9F024600201268530713D502F0030062
:108A6000012802D002280CD105E0C2F383100B6864
:108A7000C01C184404E00323086803EB925210441E
:108A8000086001207047F8B50E4604464FF48C711B
:108A900001F05BFD00281AD00025C4F81851D4F865
:108AA00018010090F07F3446FF2806D0A17F11B155
:108AB00000F002FE01E000F00DFE65772572D4E9BA
:108AC000002101B004F10800BDE8F0401047F8BDF6
:108AD000F0B58488A518944200D82246A41AC2880A
:108AE000D6189A4200D81346D21A4B880788BB4240
:108AF0000CD34088834209D88888A04206D3A84274
:108B000004D8C888904201D3B04201D90020F0BDFA
:108B10000120F0BDF7210180172141800021017162
:108B20004171FB2181711B21C17170472DE9FF410A
:108B30000026234800F033FA2148001F074600F0C2
:108B40002EFA204C60680090A56800E00098694605
:108B5000284004EB80000C30FFF77BFF0028F5D1A4
:108B600001AA009901EA050304EB8303491CDB68B1
:108B700042F82030401C00910328F2D3019800F005
:108B8000030001280BD0022810D10198032101EB2A
:108B900090500099BDF80A6001EB900005E0019843
:108BA000BDF80A60C0F3831008440090384600F016
:108BB000F3F908B10098606004B03046BDE8F08178
:108BC000D45B0020BC57002088B002F0D5FC02F036
:108BD0008BF94FF480413D4801F002F820B13C4A46
:108BE00040F2FB11FDF718FB00F05AFEFEF780FA89
:108BF00018B1374A6D21FDF70FFB01F01FF920B1C5
:108C0000334A4FF40171FDF707FBFFF7C7F9FFF790
:108C10001BFEFFF77BFE2F480190002401A92E4880
:108C200000F017FB18B12A4AD521FDF7F5FA2B48B9
:108C3000009069462A48FFF709F918B1244ADD2156
:108C4000FDF7EAFAFEF710F91C216846FDF7F7FB7D
:108C50004FF4A030CDE900404FF4F02002902148BD
:108C60000590032520488DF80C500690ADF80E4075
:108C70008DF810406846FEF7D1FD20B1144A40F24D
:108C80000111FDF7C9FA19481949401AC00805EB46
:108C9000004018A100F02AFF0F4803210C30FEF716
:108CA000A4FC20B10A4A40F21221FDF7B5FA02F005
:108CB00057FD00BFFDF776FDFEF7F8FD00F0FEFD65
:108CC0000028F7D101F0CEF8F4E700008D8902000A
:108CD00008AB020029A002002830002009AA0200E7
:108CE000042D002019AB0200FD83020030C70200F2
:108CF000C8C602004465627567206C6F6767696E5D
:108D00006720666F722055415254206F766572203D
:108D100052545420737461727465642E0000000014
:108D200070B5144682880E4605462088111D014400
:108D3000921C994201D8FE2A01D90C2070BD521C08
:108D400032542088FF21401C80B22080315420887A
:108D5000401C80B220808119288802F019FE2188E9
:108D6000084480B22080AA8842B1A96841B1304449
:108D7000FDF74CFB2088A98808442080002070BDA6
:108D8000072070BD2DE9F047C5881E1DB6FBF5F71D
:108D90008946B6FBF5F1044605FB176C4079166869
:108DA0006843DDF820A0F718001F874200D9C61AD3
:108DB000166001E02468491E0029FBD1A5EB0C07D1
:108DC0008846B74216D818E004EB0C00001D09EBEA
:108DD0000803BAF1000F3A4602D00146184600E0F7
:108DE0001946FDF713FB2468F61B4FF0000CB8443E
:108DF000B54201D9374600E02F46002EE4D1BDE848
:108E0000F087000030B5024651B100F00FFF00219D
:108E1000074C08E034F821301568AB4202D11160EC
:108E2000002030BD491C8142F4D3052030BD000034
:108E300000000000F8B50F460178144605460129E8
:108E400001D1687830B12088821C9A4232D8012939
:108E500002D006E00720F8BD69780144891C9942D8
:108E600028D8181A801E86B2ADF800602188B81C78
:108E7000084469467DDF0028EDD12978022904D015
:108E80006878BDF80020904205D3BDF80000B042DC
:108E900001D809200AE00820012905D16978B142EA
:108EA00002D8ADF8001001E0ADF80060BDF8001088
:108EB000FE2901D90C20F8BD2288491CB95421880B
:108EC000491C89B2218078542088401C2080BDF83C
:108ED0000010084420800020F8BD10B531B1B2FB6D
:108EE000F3F403FB14241CB1092010BD0E2010BDA7
:108EF00001600021416081608281C381084610BD0C
:108F000070B50C460546FDF795F9002802D021887A
:108F10002868084470BD10B50A8849888A4203D180
:108F2000FDF7CAF9012010BD002010BD70B50C4638
:108F30000546FDF7A4F9002802D061882868084496
:108F400070BD10B50A8849888A4203D1FDF78EF9B1
:108F5000012010BD002010BD01F01F0301229A4026
:108F6000D243490900EB8100114600F021B84A09BB
:108F700050F8220001F01F0201219140084000D06A
:108F80000120704701F01F0301229A40490900EBBC
:108F90008100114600F01CB8002100F00FB801213B
:108FA00000F016B808B56A46FDF7DBF9009808BD71
:108FB00008B56A46FDF7BBF9009808BD08B56A46D2
:108FC000FDF7B5F908BD08B56A46FDF797F908BD84
:108FD00008B56A46FDF79EF9009808BD08B56A46CF
:108FE000FDF7CCF9009808BD38B5044600258DF88A
:108FF00000506846FEF7F2F82168626808689042FF
:109000000ED9401E08600178238AE26801FB03251F
:10901000227A2168101AC0B20A79824200D20871FD
:109020009DF80000FEF7FEF8284638BD38B5054625
:1090300000208DF800000C466846FEF7CFF8E8687F
:10904000298A201AB0FBF1F12A681068431C1360CA
:1090500001709DF80000FEF7E5F838BD10B530B19D
:10906000017A42680368891AC9B21A6006E00E20C4
:1090700010BD03681A68541C1C601170491EC9B2E7
:10908000F7D2006800210171084610BDC20800F047
:1090900007030120895C98400840704710B5C2085A
:1090A00000F00703885C01249C402043885410BDD5
:1090B00028B1A1F11702E12A03D3072070470E203F
:1090C000704701800020704710B560B10161F72141
:1090D00020F8021B20F8021BFB2100F8021BFFF7FF
:1090E00019FD002010BD0E2010BD0000F0B58588D0
:1090F00093B00C46002D39D1018800263F4F24291A
:109100003BD006DC102909D011290CD0232958D1D5
:109110004FE03A290BD0552953D129E0014620468A
:1091200001F048FD4DE0A01DFFF7F4FC49E02246A8
:10913000408934F8061F814200D80846608017280D
:1091400000D217206080106970B1607960B1D7E9F2
:109150000001CDE90301ADF80E506088ADF81000B4
:10916000136903A9104698476671267113B0F0BDC4
:109170000146204601F072FD23E0011D2C2206A8C5
:10918000FDF744F9BDF81800BDF81C2004EBC00140
:109190004A732269AAB1D7E90423CDE90423ADF8C3
:1091A0001200487B8DF814002269204604A99047DC
:1091B00007E0017A207B884200D201462846FFF76B
:1091C00065F9A07A0028D1D0E1882846A5DF0125DD
:1091D00080B11128CAD001F0D9F9024608480949DE
:1091E00013B0401AC00805EB0040BDE8F04006A1EE
:1091F00000F080BCA672E572B8E70000F0BB020088
:10920000C8C60200C8C6020073645F626C655F670F
:10921000617474635F65786368616E67655F6D74C0
:10922000755F726571756573742829207265747530
:10923000726E65642025732E0000000020B1027854
:10924000DE2A03D0082070470E207047418000209E
:10925000704760B159B10278DE2A0AD009684160CE
:10926000DE2101704FF6FF714180002070470E2013
:109270007047082070477FB5054600294DD0002D66
:109280004BD008780C46DE2847D1A88861888842F0
:1092900002D1204602F01CFC2888012825D0022893
:1092A0003BD011283AD0512837D135F8040F6188C6
:1092B000884232D1A978A81C02292ED1017A04292A
:1092C00003D0062901D0052927D1002100910222CF
:1092D0008DF8002001914FF4C07202910391ADF816
:1092E0000420007A05280FD010E0297A20460129B1
:1092F00013D1A988428891420FD10121017204B093
:10930000BDE8704002F0E4BBADF80410288869465F
:10931000B0DF002801D0616888477FBDA8886188D8
:109320008842FAD14FF6FF7060807FBD00F1804027
:109330000068002800D00120704708B500F1804087
:10934000002101600068009008BD000070B50B4C62
:10935000207808B185250FE00020A06060602061C2
:10936000E060074801F048F9054601F057F808B9F0
:1093700001F02CF901202070284670BDC450002057
:109380000183020038B500258DF800506846FDF7CE
:1093900025FF074CE068401EE060E06810B901F06E
:1093A0003BF9A5709DF80000FDF73CFF38BD0000BB
:1093B000C45000202DE9FF411C460378164D174E7E
:1093C00045F823200C3545F82340F0CE8DE8F00019
:1093D0000C788DF800404C788DF801408C788DF831
:1093E0000240CC788DF803400C798DF805404C791B
:1093F0008DF806408C6802940C7B8DF80C40497BFC
:109400008DF80D1002B1064A6946001D01F048F9B9
:1094100004B0BDE8F0810000CC51002024BC020063
:10942000D1B5020030B40378054CE35C1BB130BC0D
:10943000001D01F085BA30BC0C3001F01DBA0000EF
:10944000342D00200FB408B50399002904D004AAD4
:1094500000926A4600F00FF801B05DF814FB10B5F9
:1094600082680446002A05D0D4E90403216898479D
:109470000020A06010BD2DE9FC4791460C008046FD
:1094800076D014F8011B39B125290ED04046FEF7DD
:1094900031FE20780028F4D198F80C00002867D01D
:1094A0004046BDE8FC47FFF7DABF002001222178E3
:1094B0002B291BD02D2902D0302908D102E040F001
:1094C000010001E040F00200641C002AEFD10025F9
:1094D0002A290ED02178A1F130020A2A11D205EBF7
:1094E000850201EB4205641C303DF1E740F00400C9
:1094F000EAE7D9F800100B1DC9F800300968641CB0
:109500000D44217800232E290BD114F8011FA1F15D
:1095100030020A2A05D203EB830201EB4203303BFF
:10952000F3E76C290DD068290BD0692921D00BDC19
:10953000252918D0582931D063290ED0642915D196
:1095400017E014F8011FECE7702969D0732932D0B5
:1095500075291BD0782909D120E0D9F80000011D18
:10956000C9F8001001784046FEF7C4FD641C90E77E
:109570006CE0D9F800100A1DC9F800200968CDE98F
:1095800000500A224046FFF711FAEFE7D9F8001021
:109590000A1DC9F8002009680A2206E0D9F800105F
:1095A0000A1DC9F8002009681022CDE90050404684
:1095B00002F0F4F9DAE7D9F8001000270A1DC9F81B
:1095C00000200E68C00705D112E04046761C7F1CC3
:1095D000FEF790FD31780029F7D104E020214046C4
:1095E0006D1EFEF787FDBD42C0D9002DF6D1BDE747
:1095F0004EB13046FCF72EFF074604E020214046DE
:109600006D1EFEF777FDBD4206D9002DF6D103E0B1
:109610004046761CFEF76EFD31780029F8D1A5E7AB
:10962000D9F80000011DC9F8001005683021404636
:10963000FEF760FD78214046FEF75CFD0820002122
:10964000CDE90001034610222946B0E7BDE8FC87BA
:1096500070B541EA4201DDE904564FF0A04441EA09
:10966000830141EA052104EB800041EA0641C0F88C
:10967000001770BD1CB5002100910B46012201911D
:109680001146FFF7E5FF1CBD4FF0A04202EB800042
:10969000D0F8002722F44032C0F80027D0F8002785
:1096A00042EA0141C0F8001770474FF0A042012183
:1096B0008140C2F80C1570474FF0A0420121814053
:1096C000C2F80C1570474FF0A04201218140C2F84A
:1096D000081570474FF0A04201218140C2F80815DB
:1096E0007047000018B5084B6C4601441B68009396
:1096F00006E000BF54F82030D3F81035401C08C2F3
:109700008142F7D818BD000018BC0200034908B513
:109710000844002101600068009008BD006000401E
:1097200002494058012800D00020704700600040E6
:1097300030B5154A01460020D2F8104423460AE00D
:10974000DB681D79854205D1401C0A28F6DB4FF005
:10975000FF3030BD1B68002BF2D1431CF9D0CB6821
:109760001871D2F8103443B1DB68CC681B682360F1
:10977000D2F81024D268116030BDC2F81014C96844
:1097800000220A6030BD0000BC5700207047FDF782
:10979000C3B8704708B5034A00924023024A00F05C
:1097A00005F808BDA9B30200A4520020F0B595B099
:1097B0001C4615460E4608461A9F00F01AFB182153
:1097C00009A8FCF73CFE0E97CDE9095400230C22B2
:1097D00003A9304600F022FB05980690BDF8100062
:1097E000ADF81C00BDF81200ADF81E0000208DF889
:1097F000210003990C2501F00300012802D0022862
:1098000016D02FE0C1F3C200C1F383178C0A8DF884
:109810002000BA002B460FA9304600F0FFFA09A835
:10982000009006AB3A460FA9204600F02DFA19E049
:10983000C1F3C2008C0D8DF82000082C01D2274600
:1098400000E008272B463A460FA9304600F0E6FA1A
:109850003D44E41B09AB06AA39460FA800F068F99D
:10986000002CEAD1304600F0CAFA15B0F0BD000075
:109870000A4A012902EBC00007D0022907D00329B8
:1098800007D0042907D00020704702207047042029
:10989000704700797047407970470000C8C60200E1
:1098A00010B5FFF774FF04210348FFF741FF024999
:1098B0000120C968487110BDB8C602002DE9F04FFB
:1098C0008DB0FEF72FFC18B100200DB0BDE8F08F71
:1098D0007D4C4FF0000BC4F818B4BFF34F8F606895
:1098E0000290A568D846284004EB80000CE000BF39
:1098F000D4F8180470B921680298814201D86160D7
:10990000E2E7284004EB80000C3002A9FFF7A1F841
:109910000028EDD1002009AA029901EA050304EB11
:109920008303491CDB6842F82030401C0291032865
:10993000F2D3099800F00301022902D001294DD089
:10994000A8E0810D50228946B2EB905F00D85021EB
:109950000F4667F39F5009900C315C4800F000FA05
:10996000060077D000F045FA43460C2209A930469C
:1099700000F05CFA029908F10C0A2940681A80008C
:10998000001D874223D9504D0C3530B1C2B204EBD3
:109990008101381A90460C3104E02946FAB20025BC
:1099A00090462846C7B25346304600F03FFA0AEBCD
:1099B00008032DB13A4629464FEA060000F036FA70
:1099C000029909F1030001EB9000029039E004EBE9
:1099D000810153463A4630460C31EFE7C0F383111C
:1099E000062900D3062161F389100990C0F3831082
:1099F000C01C8100354800F0B3F906004AD000F0E1
:109A0000F8F943460C2209A9304600F00FFA08F194
:109A10000C0800270FE00298434600EA0501401CAD
:109A200004EB81010290042230460C3100F0FEF973
:109A300008F104087F1C0998C0F38310B842EAD8E3
:109A400046B1D4F81054D4F8180478B1304600F078
:109A5000D6F934E01EE0E8684079012804D12A688C
:109A60002846314612689047E8680568002DF2D113
:109A7000304600F0C4F98DF800B06846FDF7AEFB43
:109A8000D4F8180408B9029860609DF80000FDF74A
:109A9000C9FB14E0D4F8104405E021682046896829
:109AA0008847E0680468002CF7D109480949401A42
:109AB000C008022101EB004007A100F017F8FEF7F3
:109AC00031FB80F0010000E7BC57002050C70200C6
:109AD00030C70200C8C602004261636B656E6473E2
:109AE00020666C75736865640000000000231A46E8
:109AF00001F0E8BD08B5012300926A4601F0E2FDDD
:109B000008BD1CB5CDE9002302236A4601F0DAFD49
:109B10001CBD70B586B00DF1280C9CE870008DE876
:109B20007C0005236A4601F0CDFD06B070BD000043
:109B30002DE9F0470E4680461C469246082940D83B
:109B400094F80C90002020731946104601F064F937
:109B50000025B54206D218F805201BA12046FFF7C4
:109B600071FC03E01AA12046FFF76CFC6D1C082D68
:109B7000EFD318A12046FFF765FC0025B54212D2AD
:109B800018F805707E2F08D8FCF73CFC0068C05D13
:109B900010F03E0F01D03A4600E02E220EA12046E2
:109BA000FFF750FC03E00DA12046FFF74BFC6D1CB6
:109BB000082DE3D301222146504601F00FF984F825
:109BC0000C90BDE8F08700002025303278000000BE
:109BD000202020007C000000256300002000000001
:109BE00070B505001AD00E4CFF20A0600020206048
:109BF0006060C4F81804C4F8140484F8200408460B
:109C000000F09EF80748C4F80C5400F0F6F800285D
:109C100003D1054800F014FA002070BD072070BD84
:109C2000BC57002050C70200E8BD020002480349AB
:109C3000401AC0087047000050C70200C8C60200A2
:109C400013B56846FFF7DEF808B100201CBD0248D6
:109C5000009950F831001CBDC8C6020070B5094813
:109C60000125D0F8104480F8205407E0E0684571E1
:109C70002168204649688847E0680468002CF5D1CF
:109C800070BD0000BC5700202DE9FF4781460C9DA8
:109C900000200C462F7B2873984616462946184606
:109CA00001F0BAF8072E42D2DFE806F004090F16D9
:109CB0001F2A360049462846FFF7C4FB37E04946CD
:109CC00028462268FFF7BEFB31E0D4E9002349466D
:109CD0002846FFF7B7FB2AE0A0680090D4E90023EC
:109CE00049462846FFF7AEFB21E0D4E90201CDE961
:109CF0000001D4E9002349462846FFF7A3FB16E0FC
:109D000004F1080007C88DE80700D4E9002349469C
:109D10002846FFF797FB0AE004F108000FC88DE81A
:109D20000F00D4E9002349462846FFF78BFB0022A9
:109D30002946404601F052F82F73BDE8FF87000026
:109D4000054A0121054B516001E040084900984255
:109D5000FBD8C2E900017047C02D002040420F002F
:109D60002DE9F041058A80462D1F4819C01CB0FB23
:109D7000F5F0C6B24046FFF737F9041E19D00020AF
:109D8000207101206071E58000272546761EC4F809
:109D900000800BE04046FFF727F960B16179491C6C
:109DA0006171286005467F1CC0F80080B742F1D37E
:109DB0002046BDE8F081204600F002F80020F8E7D8
:109DC0002DE9F041457901466B1E002201E009684A
:109DD000521C9A42FBD30F680146002605E0384624
:109DE0000C68FFF723F92146761CAE42F7D3BDE895
:109DF000F0810121001DFFF7D5B8FFF72FB910B58D
:109E000004460121001DFFF7E9F810F0FF0F04D10F
:109E10002046BDE81040FFF7D3BF10BD1CB501922E
:109E20000122009201AAFEF7ADFF1CBD1CB50192F4
:109E30000022009201AAFEF7A5FF1CBD064910B53D
:109E400000204870091D0860BFF35F8F0349044874
:109E500000F02AFB002010BD9C2D002080BC0200D9
:109E60009852002008B500208DF800006846FDF7E4
:109E7000B5F9F1EE100A20F09F00E1EE100ABFF3F1
:109E80005F8F08494020C1F880029DF80000FDF76F
:109E9000C9F900F0C3FA08B141DF08BD20BF40BFD7
:109EA00020BF08BD04E000E02DE9F8430446002788
:109EB00090460E468DF800706846FDF78FF92046F3
:109EC00000F039F838B105279DF80000FDF7AAF930
:109ED0003846BDE8F88320680568B8F1000F05D161
:109EE0000168204600F03FF821680860E268012A16
:109EF0000CD0022A0ED0042A11D06068082A13D090
:109F000005FB02013046FCF781FADDE76068405D41
:109F10003070D9E7606830F815003080D4E76068A9
:109F200050F825003060CFE700EBC501D1E9000112
:109F3000C6E90001C8E7016808684968884201D19C
:109F4000012070470020704701680A6849688068EE
:109F5000884201D9491C00E00021914201D1012031
:109F60007047002070478068884201D9481C7047BC
:109F7000002070472DE9F84304464FF000080E46D4
:109F80008DF800806846FDF729F92046FFF7DCFFD1
:109F900007000AD0207C40B14FF004089DF8000073
:109FA000FDF740F94046BDE8F88320684568416800
:109FB0002046FFF7D8FF2168486037B12068016864
:109FC0002046FFF7D0FF21680860E268012A14D01C
:109FD000022A16D0042A19D0082A1CD060683146FB
:109FE00005FB0200FCF712FA204600F071FF216821
:109FF0008A688242D2D28860D0E76168307848555A
:10A00000F2E76168308821F81500EDE76168306893
:10A0100041F82500E8E7D6E90001626802EBC502D5
:10A02000C2E90001E0E7000001A28A21FCF7F4B8D0
:10A030002E2E5C2E2E5C2E2E5C6D61696E2E6300C2
:10A040008268002191608268116182685161826832
:10A05000D1608268516080680160704708B5002255
:10A0600042504058009008BD20B103490968016082
:10A07000002070470E2070476CBE02002DE9FE43A1
:10A0800007460E460846FFF7EFFF00287CD1002464
:10A090000094019408208DF800704FF00108ADF88D
:10A0A000040002948DF8028069462020326869DF3E
:10A0B0003649374A891AC908012202EB014530B1F5
:10A0C00000F064FA024628463249FFF713FD009477
:10A0D0008DF801808DF80240019402948DF80340C0
:10A0E00069464020326869DF30B100F04FFA02461D
:10A0F00028462949FFF7FEFC00948DF80070F720F0
:10A10000ADF802000194029469462320326869DFA9
:10A1100030B100F03BFA024628462049FFF7EAFC3E
:10A120000094019402948DF8008069460120326801
:10A1300069DF30B100F02AFA024628461849FFF7D5
:10A14000D9FC4FF4B0600090019402946946A120BC
:10A15000326869DF30B100F019FA02462846114929
:10A16000FFF7C8FC0094019402948DF80040694602
:10A17000A020326869DF30B100F008FA02462846B4
:10A180000949FFF7B7FC0020BDE8FE8340C7020085
:10A19000C8C6020020BF020054C50200A0C50200CC
:10A1A000B4C4020000C5020060C402002DE9F04101
:10A1B0000546076860DF804619491A482A68081A68
:10A1C000C608BA4219D9022000EB064416A120465F
:10A1D000FFF78CFC20463A461FA12B68FFF791FC45
:10A1E0004FF08050D0F80C012968800200F1005037
:10A1F000421A204625A1FFF77DFCB8F100004FF080
:10A2000001040AD000F0C2F9024604EB06402AA17C
:10A21000FFF770FC4046BDE8F0812F480470F9E775
:10A2200040C70200C8C60200496E7375666669635E
:10A2300069656E742052414D20616C6C6F6361746E
:10A24000656420666F722074686520536F6674447D
:10A2500065766963652E00004368616E67652074EA
:10A2600068652052414D207374617274206C6F6375
:10A270006174696F6E2066726F6D2030782578206A
:10A28000746F20307825782E000000004D617869C9
:10A290006D756D2052414D2073697A6520666F722D
:10A2A000206170706C69636174696F6E20697320DE
:10A2B000307825782E00000073645F626C655F65FE
:10A2C0006E61626C6528292072657475726E6564B2
:10A2D0002025732E00000000032E002030B5174803
:10A2E000ADF5017D0078002825D04FF4FA7400BF49
:10A2F000ADF8004280A9684661DF50B105281AD048
:10A300000DF5017D0EA2BDE8304040F23911FBF79A
:10A3100083BF6D461A497DA800F0C6F807E000BF6C
:10A32000D0E90021284690477DA800F0D4F87F9816
:10A330000028DDD0F4E70DF5017D30BD032E0020AF
:10A340002E2E5C2E2E5C2E2E5C2E2E5C2E2E5C2E47
:10A350002E5C636F6D706F6E656E74735C736F6689
:10A36000746465766963655C636F6D6D6F6E5C6E5A
:10A3700072665F7364685F626C652E630000000044
:10A3800070BE02007CB5194C207808B108207CBD55
:10A390000120A070002000F0D1FF112819D000206A
:10A3A00000F0E4FF12480026006801908DF800607C
:10A3B0006846FCF713FF0F4901A810DF05000AD01B
:10A3C000002020709DF80000FCF72CFF2DB12846DE
:10A3D0007CBD00207CBD0120F3E7A670667001F013
:10A3E00073F8012000F0C2FFF3E70000002E002008
:10A3F00004BE0200D56E02000EB50749684600F0A3
:10A4000053F805E0D0E900108847684600F063F88B
:10A4100002980028F6D10EBD20BE02000148007847
:10A4200070470000002E00201FB568464BDF40B18A
:10A43000052816D004B00BA2BDE810406B21FBF735
:10A44000EBBE184901A800F02FF806E0D0E9002182
:10A450000098904701A800F03EF803980028E4D047
:10A46000F4E71FBD2E2E5C2E2E5C2E2E5C2E2E5C55
:10A470002E2E5C2E2E5C636F6D706F6E656E747326
:10A480005C736F66746465766963655C636F6D6D3C
:10A490006F6E5C6E72665F7364685F736F632E636A
:10A4A000000000008CBE0200016009684160AFF34B
:10A4B000008010B5D0E900215368994201D10021F4
:10A4C00004E0D1E90034A34202D01946816010BDF6
:10A4D00008314160F0E7816800290BD0026892687A
:10A4E0000A44826041684B689A4203D10831416056
:10A4F000FFF7DFBF704770B50D460646446804E0BD
:10A50000B2682946904718B1246820680028F7D11E
:10A5100020682860256070BD406800687047416809
:10A520000868002801D002680A60704702460020CF
:10A53000526806E08B4203D1086810600120704722
:10A540001A461368002BF5D170474058002800D0F8
:10A55000012070470C4A10B502F594730EE0991A69
:10A56000C91001EBD171491002EBC1010C688442A2
:10A5700001D90B4602E005D201F108029A42EED35E
:10A58000002010BD486810BDA0BC020000B5FFF758
:10A59000E1FF002800D1014800BD00008CBC020092
:10A5A0004058002800D00120704708B500224250D2
:10A5B0004058009008BD4058002800D00120704746
:10A5C00008B5002242504058009008BD0848006875
:10A5D000012110F0010F06D14FF0E020C02280F8D9
:10A5E0000024C0F8001103490120086070470000F2
:10A5F00000E100E0180500400649024600200B7902
:10A600000BB1852070470A6001220A7100224A714D
:10A6100070470000402D00200449012008600448D4
:10A620000168C1F300410029FAD170470C000040D5
:10A6300018040040002802D00149800108477047F3
:10A6400051BC02000121B1EB507F01D101207047C4
:10A65000002070470121B1EB507F01D101207047EC
:10A660000020704738B50D4600F026FC040014D0D9
:10A6700000208DF800006846FCF7B0FD207928B175
:10A680009DF80000FCF7CEFD112038BD01202560AB
:10A6900020719DF80000FCF7C5FD002038BD0000CA
:10A6A0002DE9FC470C46154601798046574A01EBD7
:10A6B000C10002EB80069946307F10B10820BDE84A
:10A6C000FC87534AD8F80000074652F82110FFF7DC
:10A6D000C9FF08B11120F2E7C6E90059207B012823
:10A6E000207802D8FEF7E8FF01E0FEF7F3FF4FF015
:10A6F000000ACDF800A0CDF804A0207853465246B9
:10A700000121FEF7A5FF60784FF0FF35FF2806D046
:10A710008146FEF7D1FF4846FEF7ACFF00E0A946B0
:10A72000A078FF2809D0002205460123CDF800A01B
:10A730001146CDF804A0FEF78BFFA07886F8200024
:10A74000E078F077E078FF280BD0217911B1FEF79F
:10A75000B3FF01E0FEF7BEFFE078FEF78BFF207944
:10A76000B0772178C7F80815C7F80C95C7F81055C9
:10A77000A068C7F82405217B607B00B10120012976
:10A7800004D0022905D0032908D105E040F00200D9
:10A7900004E040F0040001E040F00600C7F8540572
:10A7A000A079C7F8C005306810B14020C7F804038D
:10A7B0000720C7F800053068012108B3D8F8000069
:10A7C000627940F3073000284FEA421206DA00F0BF
:10A7D0000F0000F1E02080F8142D03E000F1E020EC
:10A7E00080F80024D8F8000040F3073000F01F0282
:10A7F00001FA02F24009800000F1E020C0F80021D7
:10A80000504686F81DA0317759E70000845100209A
:10A810001CBC02002DE9F04105460F4600791549A0
:10A8200000EBC00001EB80041646607F10B11120E0
:10A83000BDE8F081206820B116F0140F01D101208D
:10A84000607797E80F0004F10C0888E80F00E07FBC
:10A85000FF2806D0A17F11B1FEF73CFF01E0FEF713
:10A860002BFF33463A4621462868BDE8F04100F008
:10A87000CBBE0000845100202DE9F05F0546007931
:10A880000B4600EB400101EBC000244901EB8004C2
:10A89000284600F045F810B11120BDE8F09F626134
:10A8A0004FF00009C4F82090A36084F828904FF47A
:10A8B0008E784E4641462868FFF777FE28684FF0AD
:10A8C000010AC0F808A02146286801F051F8606824
:10A8D00008BBD5F800B067690FE000BF94F8280006
:10A8E00008B10F2615E041465846FFF759FE0028EB
:10A8F000F4D02146584601F03BF8206AB842F2D322
:10A90000574641462868FFF74BFE0028F9D02868D3
:10A91000C760C4F814903046BFE7000034510020EF
:10A92000007900EB400101EBC000044901EB80001D
:10A930004069002800D001207047000034510020F9
:10A940002DE9F04704460E460079274900EBC00088
:10A9500001EB800517463046FFF774FE30B1204604
:10A9600000F044F820B11120BDE8F0871020FBE78B
:10A970006F61AE604FF490774FF000083946206861
:10A98000FFF71EFE4FF4AC7631462068FFF718FE45
:10A990002068AA686969C0F84425C0F8481520688D
:10A9A0004FF00109C0F808906868D0B9BA4651461E
:10A9B0002068FFF700FE074631462068FFF7FBFDE1
:10A9C0000743F4D010B14FF00F0808E02068C0F83A
:10A9D0000C9031462068FFF7EEFD0028F9D00020EA
:10A9E00068614046C0E700006051002000790549D9
:10A9F00000EBC00001EB80004069002800D001207E
:10AA000070470000605100202DE9F04105460078B4
:10AA1000012738B1022830D001282CD1BDE8F041FF
:10AA2000FCF744BF002617E02869805DFCF7ACFB0B
:10AA3000040010D0112CF7D0184819492246401AAA
:10AA4000C00807EB004017A1FFF754F8204620A2EA
:10AA50009F21FBF7E1FB761CA88AB042E4D8A98AC3
:10AA60002869084410F8010C0D2804D10A20FCF7CD
:10AA70008BFB1128FAD0BDE8F081194800224FF471
:10AA80008041077017488068FCF760FB0028F2D00F
:10AA9000BDE8F0410EA2AB21FBF7BEBB30C7020000
:10AAA000C8C602004661696C6564207265636569A9
:10AAB00076696E67204E5553206D657373616765C7
:10AAC0002E204572726F7220307825782E2000007B
:10AAD0002E2E5C2E2E5C2E2E5C6D61696E2E630018
:10AAE000E02C0020C4BB0200002809D133DF054957
:10AAF0000028086204D004A24FF48471FBF78CBBD9
:10AB000070470000E02C00202E2E5C2E2E5C2E2E96
:10AB10005C6D61696E2E63000078002809D10548DC
:10AB20003B21808876DF002803D003A2E721FBF7D2
:10AB300073BB7047E02C00202E2E5C2E2E5C2E2E38
:10AB40005C6D61696E2E6300F0B58BB000260196D6
:10AB50000D4604468988406901AAFCF77DFB0AA8D6
:10AB6000CDE908600227ADF82070ADF82260218998
:10AB7000A88808AAADDF002819D1A069002816D03E
:10AB80000998FDF706FA002811D0019E0EB10120A8
:10AB90003070182102A8FBF752FC8DF8087003945E
:10ABA000A888ADF810000596A16902A888470BB0E7
:10ABB000F0BD000070B58D88027900EBC5042273EA
:10ABC000C97BA41D012902D0022904D101E000881B
:10ABD00000E04088208021886088814211D9284681
:10ABE000A5DF0126B0B1112816D0FFF7CFFC024631
:10ABF0000B480C49401AC00806EB00400AA1FEF7BA
:10AC000079FFA179E079814208D92846BDE87040F2
:10AC1000FDF73CBC6671F4E72671F2E770BD0000F9
:10AC2000C8C60200C8C6020073645F626C655F67D5
:10AC3000617474635F65786368616E67655F6D7486
:10AC4000755F7265717565737428292072657475F6
:10AC5000726E65642025732E000000007CB50646E8
:10AC60008D88C88806EBC504A41D172800D21720BC
:10AC70002188814200D80846608000202071218808
:10AC80002846B5DF60B1FFF781FC02460F48104946
:10AC9000401AC008012101EB00400EA1FEF72AFF77
:10ACA0006079002810D1306900280DD01549D1E90C
:10ACB0000201CDE90001ADF802506088ADF8040052
:10ACC00032696946304690477CBD0000C8C6020024
:10ACD000C8C6020073645F626C655F6761747473F9
:10ACE0005F65786368616E67655F6D74755F7265D7
:10ACF000706C7928292072657475726E65642025E0
:10AD0000732E0000F0BB0200F0B587B00C4605467C
:10AD10008E1D8988406906AAFCF79EFA18216846AC
:10AD2000FBF78DFB0195A088069AADF80800039209
:10AD300031882B89002704F11200994202D17389CE
:10AD4000022B0DD0AA8991421ED1A96900291BD0DE
:10AD50008DF8007004907089ADF81400A96911E0B5
:10AD6000002A11D0FDF715F920B1069901200870CD
:10AD7000022002E00698077003208DF80000A96900
:10AD8000002901D06846884707B0F0BD30B50D46B0
:10AD90000146AA201070BB205070280A90701446FB
:10ADA000D570002003E00A5C2318401C1A71A842E9
:10ADB00001D24028F7D3A91CA01CFDF74FFB020AC3
:10ADC00061190A71487130BD0068012803D002285A
:10ADD00001D00020704701207047000010B50C46DC
:10ADE000017A052908D0407A38B1084808A10268DC
:10ADF0002046FEF727FB00E01AB106A12046FEF729
:10AE000021FB2046BDE81040FEF729BBDC2D0020C9
:10AE1000257300000D0A000038B5C3880D460446AE
:10AE200033B116A0009017A218A12846FEF70AFB1E
:10AE3000217A052920D0607A48B1A088FEF718FD54
:10AE4000184951F8202018A12846FEF7FBFA284699
:10AE5000216800F047FDA0880021FEF7F1FE0346BF
:10AE60001049207A143951F8202001B02846BDE855
:10AE700030400EA1FEF7E6BA38BD00001B5B306D16
:10AE8000000000001B5B313B33316D0025734C6FBC
:10AE900067732064726F70706564202825642925AB
:10AEA000730D0A00DC2D0020257300003C25733E45
:10AEB0002025733A200000000349884201D103484D
:10AEC000704700207047000000200040482D0020FF
:10AED00001680A684968914201D3881A70478068FE
:10AEE000801A0844401C704738B500216B46FF2289
:10AEF0000846FBF743FB0023202219461846FBF7C0
:10AF000068FB0023212219461846FBF762FB4FF627
:10AF1000FF740021234626220846FBF75AFBFBF765
:10AF2000E6FA0022C72311461046FBF752FB002128
:10AF300040F21A5301220846FBF74BFB0021402345
:10AF400002220846FBF745FB002180230322084626
:10AF5000FBF73FFB0021162304220846FBF739FBD1
:10AF60000021172305220846FBF733FB0021A82305
:10AF700006220846FBF72DFB00210A23072208467C
:10AF8000FBF727FB0021234608220846FBF721FB9D
:10AF900000230A2219460120FBF71BFB23460C2243
:10AFA00000210120FBF715FB0021E22322220846A5
:10AFB000FBF70FFB0021AA2323220846FBF709FB1E
:10AFC0000021802324220846FBF703FB00214FF4D5
:10AFD0009E4325220846FBF7FCFA00232A22194645
:10AFE0000120FBF7F6FA00232C2219460120FBF77B
:10AFF000F0FA00232E2219460120FBF7EAFA00237B
:10B00000302219460120FBF7E4FA4FF400442346AE
:10B01000402200210120FBF7DCFA234641220021D7
:10B020000120FBF7D6FA2346422200210120FBF73C
:10B03000D0FA2346432200210120FBF7CAFA234617
:10B04000442200210120FBF7C4FA234645220021B7
:10B050000120FBF7BEFA2346462200210120FBF720
:10B06000B8FA2346472200210120FBF7B2FA234613
:10B07000482200210120FBF7ACFA23464922002197
:10B080000120FBF7A6FA23464A2200210120FBF704
:10B09000A0FA23464B2200210120FBF79AFA23460F
:10B0A0004C2200210120FBF794FA23464D22002177
:10B0B0000120FBF78EFA23464E2200210120FBF7E8
:10B0C00088FA23464F2200210120FBF782FA23460B
:10B0D000602200210120FBF77CFA23466122002137
:10B0E0000120FBF776FA2346622200210120FBF7BC
:10B0F00070FA2346632200210120FBF76AFA2346F7
:10B10000642200210120FBF764FA23466522002116
:10B110000120FBF75EFA2346662200210120FBF79F
:10B1200058FA2346672200210120FBF752FA2346F2
:10B13000682200210120FBF74CFA234669220021F6
:10B140000120FBF746FA23466A2200210120FBF783
:10B1500040FA23466B2200210120FBF73AFA2346EE
:10B160006C2200210120FBF734FA23466D220021D6
:10B170000120FBF72EFA23466E2200210120FBF767
:10B1800028FA23466F2200210120FBF722FA002132
:10B190004AF6AA2320220846FBF71BFA0021FF23C8
:10B1A00021220846FBF715FA6B46FF2201210020F9
:10B1B000FBF7E4F9002038BD70B50546FDF789FAC4
:10B1C000134C40B1D4E904024FF08071411842F1B0
:10B1D0000000C4E9041000212846FDF7CBF930B186
:10B1E000606820B1606800F0F9FA00206060012119
:10B1F0002846FDF7BFF918B1FDF7AEFBC4E906011B
:10B20000284600F017FB2846BDE8704000F034B82F
:10B21000502D002070B5054600200C460870FDF743
:10B220009BFBD5E90223101A63EB0103002631468C
:10B23000361A994112DAB0F5350F03D3FBF746FF02
:10B240000B4942184FF4960300210A48FDF74DFAC6
:10B2500010B10D2806D009E0012070BD002105487D
:10B26000FDF77EF9284600F0B9FA2070002070BD85
:10B27000FFFFB400582D0020F8B51A4C07460026F1
:10B280001948FFF749F9D0B1616871B1D0E90210EE
:10B290006268D2E90232C91A904120D26068007F08
:10B2A00018B161681048FFF726F900F059F9054612
:10B2B0006946FFF7AFFF98B1606840B10AE0606887
:10B2C00000280CD13846BDE8F840FDF70ABA3846E8
:10B2D000FDF703FA65609DF800000028D0D1F8BDA5
:10B2E0006660CDE7502D00203CBC020038B500213F
:10B2F000012548B101280CD0032809D1FFF766F9D0
:10B30000BDE83840FEF73EB84FF0E020C0F880516D
:10B3100038BD8DF800106846FBF760FF064C2078BA
:10B3200008B9FEF713F8E068401CE060A5709DF8CE
:10B330000000FBF777FF38BDC45000203EB504463F
:10B3400009496846FFF7B0F808E000BFD0E90021DE
:10B350002046904730B16846FFF7BDF802980028B4
:10B36000F4D13EBD11203EBD08BE02003EB50446EC
:10B3700008496846FFF798F807E000BFD0E90021C8
:10B38000204690476846FFF7A6F802980028F5D1B6
:10B390003EBD000014BE020002498969002900D0A8
:10B3A000084770472C5000202DE9F04114008846D2
:10B3B00018D000250E4F032608EB05012246002079
:10B3C000FBF7ACFA0544241A40B93878002809D0B4
:10B3D00008494FF47A408847761E05D0012038701E
:10B3E000002CE9D1BDE8F08100203870FAE70000B8
:10B3F000A42D0020E1BD02002DE9F0410746806A3E
:10B4000014468846C8B3002531E000BFB96A05EB91
:10B41000450001EB8006B088801CFE2802D90C2074
:10B42000BDE8F0812288401C08F80200208816221E
:10B43000401C80B2208008F800202088401C80B288
:10B44000208000EB0801308800F0A2FA218808442F
:10B4500080B22080B28842B1B16871B14044FAF73D
:10B46000D5FF2088B188084420806D1CEDB297F884
:10B470002C00A842CAD80020D2E7FFE70720CFE778
:10B480000A78062822F0FF020A7010D2DFE800F0E6
:10B49000030507090B0D002008E0112006E021201C
:10B4A00004E0312002E0122000E022200870704702
:10B4B000002805D10349012048700020FCF70CBF8B
:10B4C00070470000C450002010B51620FBF796FC12
:10B4D000A0B1124890F800044009082811D20121B7
:10B4E000814011F0EC0F0CD00D4882684FF48001C0
:10B4F0007AB1016841F48001016010BD42F201009F
:10B5000001E042F20200BDE8104006A2A121FAF7D4
:10B5100083BE4FF0E020C0F8001110BD16E000E03F
:10B520008C5200202E2E5C2E2E5C2E2E5C2E2E5C3D
:10B530002E2E5C2E2E5C636F6D706F6E656E747355
:10B540005C736F66746465766963655C636F6D6D6B
:10B550006F6E5C6E72665F7364682E63000000003D
:10B560000148FEF7DCBF00003CBC0200014901209D
:10B57000C8707047E02C00201FB50F4B0FCB8DE833
:10B580000F0012208DF803001C208DF802001D20F2
:10B590008DF801001E208DF8000007480023074A9F
:10B5A00069461038FDF706FF002804D004A24FF4C6
:10B5B0006571FAF731FE1FBDE0BB02006DB50200F8
:10B5C0002E2E5C2E2E5C2E2E5C6D61696E2E63001D
:10B5D00000B585B00A4601788DF8001041680191E8
:10B5E000017A8DF80810C1680391007C8DF8100075
:10B5F000044850F822100C3850F822206846904732
:10B6000005B000BDD85100202DE9F843044610686C
:10B610001E4615460F464FF0000810B1FFF71AF806
:10B62000F8B1A86810B1FFF715F8D0B1D5E900015D
:10B63000C4F84405C4F84815D5E90201C4F8340536
:10B64000C4F838154FF48C754046C4F81881D4F806
:10B6500018110091F2074FF0010107D0C4F85015FE
:10B6600006E087F81D801020BDE8F883C4F8500577
:10B67000B20702D5C4F8401501E0C4F84005300710
:10B6800000D42161386848B146F38000401C4FF077
:10B69000400014D0C4F804030020E5E72946204602
:10B6A000FEF753FF0028F9D0F87FFF28F4D0B97FC8
:10B6B00011B1FEF701F8EFE7FEF70CF8ECE7C4F87C
:10B6C0000803E9E72DE9F84F244D924689460746DD
:10B6D0009846012269461846AE68FCF7C3FC98B349
:10B6E000009800210446C01C09E000BF00EA0603E0
:10B6F0005AF8212005EB8303401C491CDA604145C0
:10B70000F4D34FEA174AFCF721FF4AEA0041601CD4
:10B71000304005EB8000C160D5F80C048047A11CC7
:10B72000314005EB8101344005EB8402C860D068EC
:10B7300067F3C50068F3891069F39F2020F00300C8
:10B74000401C20F00400D06095F8200402E000BF07
:10B75000FEF7B4F80028FBD1BDE8F88FBC570020F5
:10B7600010B5074A01210748FBF7B6FC002806D0B0
:10B77000BDE81040044A4FF46171FAF74DBD10BDA9
:10B780008DB70200CCBB020008AB020010B5084820
:10B790000849094C401AC0080321D4E9052301EBEC
:10B7A000004006A1FEF7ADF90020A061606110BD68
:10B7B00030C70200C8C60200E02C00203D3D2A2A06
:10B7C00053706565643A20256420422F732C64729F
:10B7D0006F703A25642A2A3D3D00000070B504468A
:10B7E000124800250078F8B1F4B1207FE0B1FDF7F0
:10B7F000B3F8D4E90223801A994110D320690026B6
:10B8000000B92677D4E905108847206960B1217F07
:10B8100051B1D4E9022110187141C4E90201214655
:10B820000348FEF768FE0125284670BD502D002014
:10B830003CBC0200F8B51B4C69462068FDF776FB5E
:10B8400000260127184D29E0017821B101290CD0EB
:10B8500002291BD114E041680A7FBAB90F77416809
:10B8600010480830FEF747FE10E0416868688142E2
:10B8700001D16E600AE00B480830FEF757FE05E084
:10B88000FFF76EFE08B10677FAE72F706946206869
:10B89000FDF741FB69462068FDF748FB0028D3D13E
:10B8A000F8BD000034BC0200502D0020F8B50B4C50
:10B8B0000D46064669462068FDF722FB58B1067022
:10B8C000456069462068FDF73CFB10B10448FCF771
:10B8D000EFFE0020F8BD0420F8BD000034BC0200DB
:10B8E000582D0020FEB51A4A6FF0E0055368B1FBF1
:10B8F000F3F411684FF46162B4FBF1F3B3FBF2F2BD
:10B90000554303EB05153C23B5FBF3F3A3EB0316FB
:10B9100005EB8606B4FBF1F501FB15444FF47A758F
:10B920006543B5FBF1F504EB440C05FB01F7CCEBEB
:10B93000C414C7EBC4044FF47A777C43B4FBF1F131
:10B940000096CDE9015103A1FDF77CFDFEBD00008D
:10B95000C02D00205B253032643A253032643A2510
:10B960003032642E253033642C253033645D200062
:10B9700070B50C4605464FF48E71FEF716FE216A2F
:10B98000A068415C206A401C2062C5F81C1570BD8F
:10B990000870000A48700220704700002DE9F05F2F
:10B9A0008346DDE90A4A994690460D460846012736
:10B9B00003E000BFB0FBF8F07F1C4045FAD2B94568
:10B9C00000D94F465FEACA7012D18CB15FEA8A7023
:10B9D00002D5B9F1000F01D0202607E0302605E09E
:10B9E00031465846641EFCF785FB0CB1A742F7D3DD
:10B9F0005FF00106B9F1010F02D9A9F1010903E0D5
:10BA0000B5FBF6F0404502D306FB08F6F2E7DFF897
:10BA10003C9000BFB5FBF6F000FB165519F800107E
:10BA20005846FCF767FBB6FBF8F6002EF2D15FEA4A
:10BA3000CA7009D0002C07D0A74205D22021584651
:10BA4000641EFCF757FBF5E7BDE8F09F56BC02000B
:10BA5000F8B5054680B2FCF79FFF040013D0154EE1
:10BA6000207A0027317B88420ED2A8B204F10A0165
:10BA700075DF28B1112806D0BDE8F840FFF78CBC6F
:10BA8000207A401C2072F8BD2772307C38B1A8B2F1
:10BA90003B2176DF18B1082801D0FFF77DFC7169E2
:10BAA0000029F0D08DF80070ADF802506846884744
:10BAB000F8BD00002C500020417939B190F82E14C7
:10BAC00021B990F8300408B1012070470020704778
:10BAD00030B40446007A00280AD06088002166DF6E
